{
  "contracts/PortifyRouter.sol": {
    "PortifyRouter": {
      "abi": [
        {
          "inputs": [
            {
              "components": [
                {
                  "internalType": "contract IPancakeV2Router02",
                  "name": "router",
                  "type": "address"
                },
                {
                  "internalType": "contract IPancakeV2Factory",
                  "name": "factory",
                  "type": "address"
                },
                {
                  "internalType": "bytes32",
                  "name": "pair_code_hash",
                  "type": "bytes32"
                },
                {
                  "internalType": "string",
                  "name": "name",
                  "type": "string"
                }
              ],
              "internalType": "struct PortifyRouter.DexInfo[]",
              "name": "_dex_list",
              "type": "tuple[]"
            },
            {
              "internalType": "address",
              "name": "_WETH",
              "type": "address"
            }
          ],
          "stateMutability": "nonpayable",
          "type": "constructor"
        },
        {
          "anonymous": false,
          "inputs": [
            {
              "components": [
                {
                  "internalType": "contract IPancakeV2Router02",
                  "name": "router",
                  "type": "address"
                },
                {
                  "internalType": "contract IPancakeV2Factory",
                  "name": "factory",
                  "type": "address"
                },
                {
                  "internalType": "bytes32",
                  "name": "pair_code_hash",
                  "type": "bytes32"
                },
                {
                  "internalType": "string",
                  "name": "name",
                  "type": "string"
                }
              ],
              "indexed": false,
              "internalType": "struct PortifyRouter.DexInfo",
              "name": "removed_dex",
              "type": "tuple"
            }
          ],
          "name": "DexRemoval",
          "type": "event"
        },
        {
          "anonymous": false,
          "inputs": [
            {
              "components": [
                {
                  "internalType": "contract IPancakeV2Router02",
                  "name": "router",
                  "type": "address"
                },
                {
                  "internalType": "contract IPancakeV2Factory",
                  "name": "factory",
                  "type": "address"
                },
                {
                  "internalType": "bytes32",
                  "name": "pair_code_hash",
                  "type": "bytes32"
                },
                {
                  "internalType": "string",
                  "name": "name",
                  "type": "string"
                }
              ],
              "indexed": false,
              "internalType": "struct PortifyRouter.DexInfo",
              "name": "new_dex",
              "type": "tuple"
            }
          ],
          "name": "NewDex",
          "type": "event"
        },
        {
          "anonymous": false,
          "inputs": [
            {
              "indexed": true,
              "internalType": "address",
              "name": "previousOwner",
              "type": "address"
            },
            {
              "indexed": true,
              "internalType": "address",
              "name": "newOwner",
              "type": "address"
            }
          ],
          "name": "OwnershipTransferred",
          "type": "event"
        },
        {
          "inputs": [],
          "name": "WETH",
          "outputs": [
            {
              "internalType": "address",
              "name": "",
              "type": "address"
            }
          ],
          "stateMutability": "view",
          "type": "function"
        },
        {
          "inputs": [
            {
              "components": [
                {
                  "internalType": "contract IPancakeV2Router02",
                  "name": "router",
                  "type": "address"
                },
                {
                  "internalType": "contract IPancakeV2Factory",
                  "name": "factory",
                  "type": "address"
                },
                {
                  "internalType": "bytes32",
                  "name": "pair_code_hash",
                  "type": "bytes32"
                },
                {
                  "internalType": "string",
                  "name": "name",
                  "type": "string"
                }
              ],
              "internalType": "struct PortifyRouter.DexInfo",
              "name": "new_dex",
              "type": "tuple"
            }
          ],
          "name": "addNewDex",
          "outputs": [],
          "stateMutability": "nonpayable",
          "type": "function"
        },
        {
          "inputs": [
            {
              "internalType": "uint256",
              "name": "",
              "type": "uint256"
            }
          ],
          "name": "dex_list",
          "outputs": [
            {
              "internalType": "contract IPancakeV2Router02",
              "name": "router",
              "type": "address"
            },
            {
              "internalType": "contract IPancakeV2Factory",
              "name": "factory",
              "type": "address"
            },
            {
              "internalType": "bytes32",
              "name": "pair_code_hash",
              "type": "bytes32"
            },
            {
              "internalType": "string",
              "name": "name",
              "type": "string"
            }
          ],
          "stateMutability": "view",
          "type": "function"
        },
        {
          "inputs": [
            {
              "internalType": "uint256",
              "name": "dex_id",
              "type": "uint256"
            },
            {
              "internalType": "uint256",
              "name": "amountOut",
              "type": "uint256"
            },
            {
              "internalType": "uint256",
              "name": "reserveIn",
              "type": "uint256"
            },
            {
              "internalType": "uint256",
              "name": "reserveOut",
              "type": "uint256"
            }
          ],
          "name": "getAmountIn",
          "outputs": [
            {
              "internalType": "uint256",
              "name": "amountIn",
              "type": "uint256"
            }
          ],
          "stateMutability": "view",
          "type": "function"
        },
        {
          "inputs": [
            {
              "internalType": "uint256",
              "name": "dex_id",
              "type": "uint256"
            },
            {
              "internalType": "uint256",
              "name": "amountIn",
              "type": "uint256"
            },
            {
              "internalType": "uint256",
              "name": "reserveIn",
              "type": "uint256"
            },
            {
              "internalType": "uint256",
              "name": "reserveOut",
              "type": "uint256"
            }
          ],
          "name": "getAmountOut",
          "outputs": [
            {
              "internalType": "uint256",
              "name": "amountOut",
              "type": "uint256"
            }
          ],
          "stateMutability": "view",
          "type": "function"
        },
        {
          "inputs": [
            {
              "internalType": "uint256",
              "name": "dex_id",
              "type": "uint256"
            },
            {
              "internalType": "uint256",
              "name": "amountOut",
              "type": "uint256"
            },
            {
              "internalType": "address[]",
              "name": "path",
              "type": "address[]"
            }
          ],
          "name": "getAmountsIn",
          "outputs": [
            {
              "internalType": "uint256[]",
              "name": "amounts",
              "type": "uint256[]"
            }
          ],
          "stateMutability": "view",
          "type": "function"
        },
        {
          "inputs": [
            {
              "internalType": "uint256",
              "name": "dex_id",
              "type": "uint256"
            },
            {
              "internalType": "uint256",
              "name": "amountIn",
              "type": "uint256"
            },
            {
              "internalType": "address[]",
              "name": "path",
              "type": "address[]"
            }
          ],
          "name": "getAmountsOut",
          "outputs": [
            {
              "internalType": "uint256[]",
              "name": "amounts",
              "type": "uint256[]"
            }
          ],
          "stateMutability": "view",
          "type": "function"
        },
        {
          "inputs": [],
          "name": "owner",
          "outputs": [
            {
              "internalType": "address",
              "name": "",
              "type": "address"
            }
          ],
          "stateMutability": "view",
          "type": "function"
        },
        {
          "inputs": [
            {
              "internalType": "uint256",
              "name": "dex_idx",
              "type": "uint256"
            }
          ],
          "name": "removeDex",
          "outputs": [],
          "stateMutability": "nonpayable",
          "type": "function"
        },
        {
          "inputs": [],
          "name": "renounceOwnership",
          "outputs": [],
          "stateMutability": "nonpayable",
          "type": "function"
        },
        {
          "inputs": [
            {
              "internalType": "uint256",
              "name": "dex_id",
              "type": "uint256"
            },
            {
              "internalType": "uint256",
              "name": "amountOut",
              "type": "uint256"
            },
            {
              "internalType": "address[]",
              "name": "path",
              "type": "address[]"
            },
            {
              "internalType": "address",
              "name": "to",
              "type": "address"
            },
            {
              "internalType": "uint256",
              "name": "deadline",
              "type": "uint256"
            }
          ],
          "name": "swapETHForExactTokens",
          "outputs": [
            {
              "internalType": "uint256[]",
              "name": "amounts",
              "type": "uint256[]"
            }
          ],
          "stateMutability": "payable",
          "type": "function"
        },
        {
          "inputs": [
            {
              "internalType": "uint256",
              "name": "dex_id",
              "type": "uint256"
            },
            {
              "internalType": "uint256",
              "name": "amountOutMin",
              "type": "uint256"
            },
            {
              "internalType": "address[]",
              "name": "path",
              "type": "address[]"
            },
            {
              "internalType": "address",
              "name": "to",
              "type": "address"
            },
            {
              "internalType": "uint256",
              "name": "deadline",
              "type": "uint256"
            }
          ],
          "name": "swapExactETHForTokens",
          "outputs": [
            {
              "internalType": "uint256[]",
              "name": "amounts",
              "type": "uint256[]"
            }
          ],
          "stateMutability": "payable",
          "type": "function"
        },
        {
          "inputs": [
            {
              "internalType": "uint256",
              "name": "dex_id",
              "type": "uint256"
            },
            {
              "internalType": "uint256",
              "name": "amountOutMin",
              "type": "uint256"
            },
            {
              "internalType": "address[]",
              "name": "path",
              "type": "address[]"
            },
            {
              "internalType": "address",
              "name": "to",
              "type": "address"
            },
            {
              "internalType": "uint256",
              "name": "deadline",
              "type": "uint256"
            }
          ],
          "name": "swapExactETHForTokensSupportingFeeOnTransferTokens",
          "outputs": [],
          "stateMutability": "payable",
          "type": "function"
        },
        {
          "inputs": [
            {
              "internalType": "uint256",
              "name": "dex_id",
              "type": "uint256"
            },
            {
              "internalType": "uint256",
              "name": "amountIn",
              "type": "uint256"
            },
            {
              "internalType": "uint256",
              "name": "amountOutMin",
              "type": "uint256"
            },
            {
              "internalType": "address[]",
              "name": "path",
              "type": "address[]"
            },
            {
              "internalType": "address",
              "name": "to",
              "type": "address"
            },
            {
              "internalType": "uint256",
              "name": "deadline",
              "type": "uint256"
            }
          ],
          "name": "swapExactTokensForETH",
          "outputs": [
            {
              "internalType": "uint256[]",
              "name": "amounts",
              "type": "uint256[]"
            }
          ],
          "stateMutability": "nonpayable",
          "type": "function"
        },
        {
          "inputs": [
            {
              "internalType": "uint256",
              "name": "dex_id",
              "type": "uint256"
            },
            {
              "internalType": "uint256",
              "name": "amountIn",
              "type": "uint256"
            },
            {
              "internalType": "uint256",
              "name": "amountOutMin",
              "type": "uint256"
            },
            {
              "internalType": "address[]",
              "name": "path",
              "type": "address[]"
            },
            {
              "internalType": "address",
              "name": "to",
              "type": "address"
            },
            {
              "internalType": "uint256",
              "name": "deadline",
              "type": "uint256"
            }
          ],
          "name": "swapExactTokensForETHSupportingFeeOnTransferTokens",
          "outputs": [],
          "stateMutability": "nonpayable",
          "type": "function"
        },
        {
          "inputs": [
            {
              "internalType": "uint256",
              "name": "dex_id",
              "type": "uint256"
            },
            {
              "internalType": "uint256",
              "name": "amountIn",
              "type": "uint256"
            },
            {
              "internalType": "uint256",
              "name": "amountOutMin",
              "type": "uint256"
            },
            {
              "internalType": "address[]",
              "name": "path",
              "type": "address[]"
            },
            {
              "internalType": "address",
              "name": "to",
              "type": "address"
            },
            {
              "internalType": "uint256",
              "name": "deadline",
              "type": "uint256"
            }
          ],
          "name": "swapExactTokensForTokens",
          "outputs": [
            {
              "internalType": "uint256[]",
              "name": "amounts",
              "type": "uint256[]"
            }
          ],
          "stateMutability": "nonpayable",
          "type": "function"
        },
        {
          "inputs": [
            {
              "internalType": "uint256",
              "name": "dex_id",
              "type": "uint256"
            },
            {
              "internalType": "uint256",
              "name": "amountIn",
              "type": "uint256"
            },
            {
              "internalType": "uint256",
              "name": "amountOutMin",
              "type": "uint256"
            },
            {
              "internalType": "address[]",
              "name": "path",
              "type": "address[]"
            },
            {
              "internalType": "address",
              "name": "to",
              "type": "address"
            },
            {
              "internalType": "uint256",
              "name": "deadline",
              "type": "uint256"
            }
          ],
          "name": "swapExactTokensForTokensSupportingFeeOnTransferTokens",
          "outputs": [],
          "stateMutability": "nonpayable",
          "type": "function"
        },
        {
          "inputs": [
            {
              "internalType": "uint256",
              "name": "dex_id",
              "type": "uint256"
            },
            {
              "internalType": "uint256",
              "name": "amountOut",
              "type": "uint256"
            },
            {
              "internalType": "uint256",
              "name": "amountInMax",
              "type": "uint256"
            },
            {
              "internalType": "address[]",
              "name": "path",
              "type": "address[]"
            },
            {
              "internalType": "address",
              "name": "to",
              "type": "address"
            },
            {
              "internalType": "uint256",
              "name": "deadline",
              "type": "uint256"
            }
          ],
          "name": "swapTokensForExactETH",
          "outputs": [
            {
              "internalType": "uint256[]",
              "name": "amounts",
              "type": "uint256[]"
            }
          ],
          "stateMutability": "nonpayable",
          "type": "function"
        },
        {
          "inputs": [
            {
              "internalType": "uint256",
              "name": "dex_id",
              "type": "uint256"
            },
            {
              "internalType": "uint256",
              "name": "amountOut",
              "type": "uint256"
            },
            {
              "internalType": "uint256",
              "name": "amountInMax",
              "type": "uint256"
            },
            {
              "internalType": "address[]",
              "name": "path",
              "type": "address[]"
            },
            {
              "internalType": "address",
              "name": "to",
              "type": "address"
            },
            {
              "internalType": "uint256",
              "name": "deadline",
              "type": "uint256"
            }
          ],
          "name": "swapTokensForExactTokens",
          "outputs": [
            {
              "internalType": "uint256[]",
              "name": "amounts",
              "type": "uint256[]"
            }
          ],
          "stateMutability": "nonpayable",
          "type": "function"
        },
        {
          "inputs": [
            {
              "internalType": "address",
              "name": "newOwner",
              "type": "address"
            }
          ],
          "name": "transferOwnership",
          "outputs": [],
          "stateMutability": "nonpayable",
          "type": "function"
        },
        {
          "stateMutability": "payable",
          "type": "receive"
        }
      ],
      "evm": {
        "bytecode": {
          "linkReferences": {},
          "object": "60a06040523480156200001157600080fd5b506040516200486938038062004869833981016040819052620000349162000409565b6200003f33620002da565b6001600160601b0319606082901b1660805260005b600154811015620002d1576001838281518110620000765762000076620006c9565b602090810291909101810151825460018181018555600094855293839020825160049092020180546001600160a01b039283166001600160a01b03199182161782558385015195820180549690931695169490941790556040810151600284015560608101518051919392620000f5926003850192909101906200032a565b505050600181815481106200010e576200010e620006c9565b6000918252602091829020600491820201546040805163c45a015560e01b815290516001600160a01b039092169363c45a015593828101939192829003018186803b1580156200015d57600080fd5b505afa15801562000172573d6000803e3d6000fd5b505050506040513d601f19601f82011682018060405250810190620001989190620003e2565b60018281548110620001ae57620001ae620006c9565b906000526020600020906004020160010160006101000a8154816001600160a01b0302191690836001600160a01b0316021790555060018181548110620001f957620001f9620006c9565b906000526020600020906004020160010160009054906101000a90046001600160a01b03166001600160a01b0316635855a25a6040518163ffffffff1660e01b815260040160206040518083038186803b1580156200025757600080fd5b505afa1580156200026c573d6000803e3d6000fd5b505050506040513d601f19601f82011682018060405250810190620002929190620005ea565b60018281548110620002a857620002a8620006c9565b600091825260209091206002600490920201015580620002c8816200069f565b91505062000054565b5050506200070e565b600080546001600160a01b038381166001600160a01b0319831681178455604051919092169283917f8be0079c531659141344cd1fd0a4f28419497f9722a3daafe3b4186f6b6457e09190a35050565b828054620003389062000662565b90600052602060002090601f0160209004810192826200035c5760008555620003a7565b82601f106200037757805160ff1916838001178555620003a7565b82800160010185558215620003a7579182015b82811115620003a75782518255916020019190600101906200038a565b50620003b5929150620003b9565b5090565b5b80821115620003b55760008155600101620003ba565b8051620003dd81620006f5565b919050565b600060208284031215620003f557600080fd5b81516200040281620006f5565b9392505050565b600080604083850312156200041d57600080fd5b82516001600160401b03808211156200043557600080fd5b818501915085601f8301126200044a57600080fd5b8151818111156200045f576200045f620006df565b6200047060208260051b016200062f565b80828252602082019150602085018960208560051b88010111156200049457600080fd5b60005b84811015620005c957815186811115620004b057600080fd5b8701601f196080828e0382011215620004c857600080fd5b620004d262000604565b6020830151620004e281620006f5565b81526040830151620004f481620006f5565b6020820152606083015160408201526080830151898111156200051657600080fd5b8084019350508d603f8401126200052c57600080fd5b602083015189811115620005445762000544620006df565b62000557602084601f840116016200062f565b92508083528e60408286010111156200056f57600080fd5b60005b818110156200059557604081860101516020828601015260208101905062000572565b81811115620005a8576000602083860101525b50506060810191909152855250602093840193919091019060010162000497565b50508096505050505050620005e160208401620003d0565b90509250929050565b600060208284031215620005fd57600080fd5b5051919050565b604051608081016001600160401b0381118282101715620006295762000629620006df565b60405290565b604051601f8201601f191681016001600160401b03811182821017156200065a576200065a620006df565b604052919050565b600181811c908216806200067757607f821691505b602082108114156200069957634e487b7160e01b600052602260045260246000fd5b50919050565b6000600019821415620006c257634e487b7160e01b600052601160045260246000fd5b5060010190565b634e487b7160e01b600052603260045260246000fd5b634e487b7160e01b600052604160045260246000fd5b6001600160a01b03811681146200070b57600080fd5b50565b60805160601c6140cc6200079d600039600081816101730152818161035a015281816104b10152818161079101528181611342015281816113ef015281816114630152818161172a015281816118570152818161198001528181611a4301528181611c4901528181611cd701528181611f350152818161269801528181612892015261292001526140cc6000f3fe6080604052600436106101635760003560e01c8063903ab0bb116100c0578063cd5fcd3511610074578063f6173d6111610059578063f6173d61146103fc578063f7d13af91461041c578063fc3741571461043c57600080fd5b8063cd5fcd35146103bc578063f2fde38b146103dc57600080fd5b8063ad5c4648116100a5578063ad5c464814610348578063b67b12201461037c578063c510b3561461039c57600080fd5b8063903ab0bb14610315578063a5be382e1461033557600080fd5b8063571fd01211610117578063715018a6116100fc578063715018a6146102bb57806373e45444146102d05780638da5cb5b146102e357600080fd5b8063571fd0121461027b57806367e9803c1461029b57600080fd5b80633746af08116101485780633746af08146101fd57806341c6a58b1461021d57806352707d8c1461024d57600080fd5b80632b5f221d146101a757806334cdb1e9146101dd57600080fd5b366101a257336001600160a01b037f000000000000000000000000000000000000000000000000000000000000000016146101a0576101a0613f96565b005b600080fd5b3480156101b357600080fd5b506101c76101c2366004613a8e565b61044f565b6040516101d49190613b86565b60405180910390f35b3480156101e957600080fd5b506101a06101f8366004613a8e565b610871565b34801561020957600080fd5b506101a061021836600461394c565b610b8c565b34801561022957600080fd5b5061023d61023836600461394c565b610da7565b6040516101d49493929190613bca565b34801561025957600080fd5b5061026d610268366004613b0c565b610e7b565b6040519081526020016101d4565b34801561028757600080fd5b5061026d610296366004613b0c565b610f48565b3480156102a757600080fd5b506101a06102b636600461380b565b610fc0565b3480156102c757600080fd5b506101a061127a565b6101a06102de366004613965565b6112ef565b3480156102ef57600080fd5b506000546001600160a01b03165b6040516001600160a01b0390911681526020016101d4565b34801561032157600080fd5b506101a0610330366004613a8e565b6116cf565b6101c7610343366004613965565b6119ee565b34801561035457600080fd5b506102fd7f000000000000000000000000000000000000000000000000000000000000000081565b34801561038857600080fd5b506101c76103973660046139d8565b611e10565b3480156103a857600080fd5b506101c76103b7366004613a8e565b611ed8565b3480156103c857600080fd5b506101c76103d7366004613a8e565b61213a565b3480156103e857600080fd5b506101a06103f73660046136fe565b612335565b34801561040857600080fd5b506101c7610417366004613a8e565b612426565b34801561042857600080fd5b506101c76104373660046139d8565b6125d7565b6101c761044a366004613965565b612643565b606081428110156104a75760405162461bcd60e51b815260206004820152601660248201527f506f7274696679526f757465723a20455850495245440000000000000000000060448201526064015b60405180910390fd5b6001600160a01b037f00000000000000000000000000000000000000000000000000000000000000001686866104de600182613ec6565b8181106104ed576104ed614023565b905060200201602081019061050291906136fe565b6001600160a01b0316146105585760405162461bcd60e51b815260206004820152601b60248201527f506f7274696679526f757465723a20494e56414c49445f504154480000000000604482015260640161049e565b6001898154811061056b5761056b614023565b60009182526020909120600491820201546040517f1f00ca740000000000000000000000000000000000000000000000000000000081526001600160a01b0390911691631f00ca74916105c4918c918b918b9101613d5f565b60006040518083038186803b1580156105dc57600080fd5b505afa1580156105f0573d6000803e3d6000fd5b505050506040513d6000823e601f3d908101601f19168201604052610618919081019061373f565b9150868260008151811061062e5761062e614023565b602002602001015111156106aa5760405162461bcd60e51b815260206004820152602560248201527f506f7274696679526f757465723a204558434553534956455f494e5055545f4160448201527f4d4f554e54000000000000000000000000000000000000000000000000000000606482015260840161049e565b61074f868660008181106106c0576106c0614023565b90506020020160208101906106d591906136fe565b3361072f8c8a8a60008181106106ed576106ed614023565b905060200201602081019061070291906136fe565b8b8b600181811061071557610715614023565b905060200201602081019061072a91906136fe565b612a9f565b8560008151811061074257610742614023565b6020026020010151612bf3565b61078f8983888880806020026020016040519081016040528093929190818152602001838360200280828437600092019190915250309250612d6b915050565b7f00000000000000000000000000000000000000000000000000000000000000006001600160a01b0316632e1a7d4d83600185516107cd9190613ec6565b815181106107dd576107dd614023565b60200260200101516040518263ffffffff1660e01b815260040161080391815260200190565b600060405180830381600087803b15801561081d57600080fd5b505af1158015610831573d6000803e3d6000fd5b505050506108658483600185516108489190613ec6565b8151811061085857610858614023565b6020026020010151612f34565b50979650505050505050565b80428110156108c25760405162461bcd60e51b815260206004820152601660248201527f506f7274696679526f757465723a204558504952454400000000000000000000604482015260640161049e565b610933858560008181106108d8576108d8614023565b90506020020160208101906108ed91906136fe565b3361092d8b8989600081811061090557610905614023565b905060200201602081019061091a91906136fe565b8a8a600181811061071557610715614023565b8a612bf3565b60008585610942600182613ec6565b81811061095157610951614023565b905060200201602081019061096691906136fe565b6040517f70a082310000000000000000000000000000000000000000000000000000000081526001600160a01b03868116600483015291909116906370a082319060240160206040518083038186803b1580156109c257600080fd5b505afa1580156109d6573d6000803e3d6000fd5b505050506040513d601f19601f820116820180604052508101906109fa91906137f2565b9050610a3b8987878080602002602001604051908101604052809392919081815260200183836020028082843760009201919091525089925061301c915050565b86818787610a4a600182613ec6565b818110610a5957610a59614023565b9050602002016020810190610a6e91906136fe565b6040517f70a082310000000000000000000000000000000000000000000000000000000081526001600160a01b03888116600483015291909116906370a08231906024015b60206040518083038186803b158015610acb57600080fd5b505afa158015610adf573d6000803e3d6000fd5b505050506040513d601f19601f82011682018060405250810190610b0391906137f2565b610b0d9190613ec6565b1015610b815760405162461bcd60e51b815260206004820152602960248201527f506f7274696679526f757465723a20494e53554646494349454e545f4f55545060448201527f55545f414d4f554e540000000000000000000000000000000000000000000000606482015260840161049e565b505050505050505050565b33610b9f6000546001600160a01b031690565b6001600160a01b031614610bf55760405162461bcd60e51b815260206004820181905260248201527f4f776e61626c653a2063616c6c6572206973206e6f7420746865206f776e6572604482015260640161049e565b7f6f42797b737f51226bf9946fb22052d33e5ad3d5bdfd88ac38f73c375f35b1a060018281548110610c2957610c29614023565b9060005260206000209060040201604051610c449190613c4c565b60405180910390a160018054610c5b908290613ec6565b81548110610c6b57610c6b614023565b906000526020600020906004020160018281548110610c8c57610c8c614023565b60009182526020909120825460049092020180546001600160a01b039283167fffffffffffffffffffffffff0000000000000000000000000000000000000000918216178255600180850154908301805491909416911617909155600280830154908201556003808301805491830191610d0590613f09565b610d10929190613548565b509050506001805480610d2557610d25613ff4565b60008281526020812060047fffffffffffffffffffffffffffffffffffffffffffffffffffffffffffffffff9093019283020180547fffffffffffffffffffffffff0000000000000000000000000000000000000000908116825560018201805490911690556002810182905590610da060038301826135d3565b5050905550565b60018181548110610db757600080fd5b600091825260209091206004909102018054600182015460028301546003840180546001600160a01b039485169650929093169390929091610df890613f09565b80601f0160208091040260200160405190810160405280929190818152602001828054610e2490613f09565b8015610e715780601f10610e4657610100808354040283529160200191610e71565b820191906000526020600020905b815481529060010190602001808311610e5457829003601f168201915b5050505050905084565b600060018581548110610e9057610e90614023565b60009182526020909120600491820201546040517f054d50d400000000000000000000000000000000000000000000000000000000815291820186905260248201859052604482018490526001600160a01b03169063054d50d4906064015b60206040518083038186803b158015610f0757600080fd5b505afa158015610f1b573d6000803e3d6000fd5b505050506040513d601f19601f82011682018060405250810190610f3f91906137f2565b95945050505050565b600060018581548110610f5d57610f5d614023565b60009182526020909120600491820201546040517f85f8c25900000000000000000000000000000000000000000000000000000000815291820186905260248201859052604482018490526001600160a01b0316906385f8c25990606401610eef565b33610fd36000546001600160a01b031690565b6001600160a01b0316146110295760405162461bcd60e51b815260206004820181905260248201527f4f776e61626c653a2063616c6c6572206973206e6f7420746865206f776e6572604482015260640161049e565b80600001516001600160a01b031663c45a01556040518163ffffffff1660e01b815260040160206040518083038186803b15801561106657600080fd5b505afa15801561107a573d6000803e3d6000fd5b505050506040513d601f19601f8201168201806040525081019061109e9190613722565b6001600160a01b03166020808301829052604080517f5855a25a0000000000000000000000000000000000000000000000000000000081529051635855a25a92600480840193919291829003018186803b1580156110fb57600080fd5b505afa15801561110f573d6000803e3d6000fd5b505050506040513d601f19601f8201168201806040525081019061113391906137f2565b60408201908152600180548082018255600091909152825160049091027fb10e2d527612073b26eecdfd717e6a320cf44b4afac2b0732d9fcbe2b7fa0cf6810180546001600160a01b039384167fffffffffffffffffffffffff00000000000000000000000000000000000000009182161782556020808701517fb10e2d527612073b26eecdfd717e6a320cf44b4afac2b0732d9fcbe2b7fa0cf7850180549190961692169190911790935592517fb10e2d527612073b26eecdfd717e6a320cf44b4afac2b0732d9fcbe2b7fa0cf88201556060840151805185949361123d937fb10e2d527612073b26eecdfd717e6a320cf44b4afac2b0732d9fcbe2b7fa0cf90192019061360d565b5050507f2fd65a6bb51fd3e365a257d71d5bd076b21801a0198d49b8f93e4b42a9ab344a8160405161126f9190613c06565b60405180910390a150565b3361128d6000546001600160a01b031690565b6001600160a01b0316146112e35760405162461bcd60e51b815260206004820181905260248201527f4f776e61626c653a2063616c6c6572206973206e6f7420746865206f776e6572604482015260640161049e565b6112ed60006133d0565b565b80428110156113405760405162461bcd60e51b815260206004820152601660248201527f506f7274696679526f757465723a204558504952454400000000000000000000604482015260640161049e565b7f00000000000000000000000000000000000000000000000000000000000000006001600160a01b03168585600081811061137d5761137d614023565b905060200201602081019061139291906136fe565b6001600160a01b0316146113e85760405162461bcd60e51b815260206004820152601b60248201527f506f7274696679526f757465723a20494e56414c49445f504154480000000000604482015260640161049e565b60003490507f00000000000000000000000000000000000000000000000000000000000000006001600160a01b031663d0e30db0826040518263ffffffff1660e01b81526004016000604051808303818588803b15801561144857600080fd5b505af115801561145c573d6000803e3d6000fd5b50505050507f00000000000000000000000000000000000000000000000000000000000000006001600160a01b031663a9059cbb6114a78a8989600081811061090557610905614023565b6040517fffffffff0000000000000000000000000000000000000000000000000000000060e084901b1681526001600160a01b03909116600482015260248101849052604401602060405180830381600087803b15801561150757600080fd5b505af115801561151b573d6000803e3d6000fd5b505050506040513d601f19601f8201168201806040525081019061153f91906137d0565b61154b5761154b613f96565b6000868661155a600182613ec6565b81811061156957611569614023565b905060200201602081019061157e91906136fe565b6040517f70a082310000000000000000000000000000000000000000000000000000000081526001600160a01b03878116600483015291909116906370a082319060240160206040518083038186803b1580156115da57600080fd5b505afa1580156115ee573d6000803e3d6000fd5b505050506040513d601f19601f8201168201806040525081019061161291906137f2565b9050611653898888808060200260200160405190810160405280939291908181526020018383602002808284376000920191909152508a925061301c915050565b87818888611662600182613ec6565b81811061167157611671614023565b905060200201602081019061168691906136fe565b6040517f70a082310000000000000000000000000000000000000000000000000000000081526001600160a01b03898116600483015291909116906370a0823190602401610ab3565b80428110156117205760405162461bcd60e51b815260206004820152601660248201527f506f7274696679526f757465723a204558504952454400000000000000000000604482015260640161049e565b6001600160a01b037f0000000000000000000000000000000000000000000000000000000000000000168585611757600182613ec6565b81811061176657611766614023565b905060200201602081019061177b91906136fe565b6001600160a01b0316146117d15760405162461bcd60e51b815260206004820152601b60248201527f506f7274696679526f757465723a20494e56414c49445f504154480000000000604482015260640161049e565b6117e7858560008181106108d8576108d8614023565b6118268886868080602002602001604051908101604052809392919081815260200183836020028082843760009201919091525030925061301c915050565b6040517f70a082310000000000000000000000000000000000000000000000000000000081523060048201526000907f00000000000000000000000000000000000000000000000000000000000000006001600160a01b0316906370a082319060240160206040518083038186803b1580156118a157600080fd5b505afa1580156118b5573d6000803e3d6000fd5b505050506040513d601f19601f820116820180604052508101906118d991906137f2565b9050868110156119515760405162461bcd60e51b815260206004820152602960248201527f506f7274696679526f757465723a20494e53554646494349454e545f4f55545060448201527f55545f414d4f554e540000000000000000000000000000000000000000000000606482015260840161049e565b6040517f2e1a7d4d000000000000000000000000000000000000000000000000000000008152600481018290527f00000000000000000000000000000000000000000000000000000000000000006001600160a01b031690632e1a7d4d90602401600060405180830381600087803b1580156119cc57600080fd5b505af11580156119e0573d6000803e3d6000fd5b50505050610b818482612f34565b60608142811015611a415760405162461bcd60e51b815260206004820152601660248201527f506f7274696679526f757465723a204558504952454400000000000000000000604482015260640161049e565b7f00000000000000000000000000000000000000000000000000000000000000006001600160a01b031686866000818110611a7e57611a7e614023565b9050602002016020810190611a9391906136fe565b6001600160a01b031614611ae95760405162461bcd60e51b815260206004820152601b60248201527f506f7274696679526f757465723a20494e56414c49445f504154480000000000604482015260640161049e565b60018881548110611afc57611afc614023565b60009182526020909120600491820201546040517fd06ca61f0000000000000000000000000000000000000000000000000000000081526001600160a01b039091169163d06ca61f91611b559134918b918b9101613d5f565b60006040518083038186803b158015611b6d57600080fd5b505afa158015611b81573d6000803e3d6000fd5b505050506040513d6000823e601f3d908101601f19168201604052611ba9919081019061373f565b9150868260018451611bbb9190613ec6565b81518110611bcb57611bcb614023565b60200260200101511015611c475760405162461bcd60e51b815260206004820152602960248201527f506f7274696679526f757465723a20494e53554646494349454e545f4f55545060448201527f55545f414d4f554e540000000000000000000000000000000000000000000000606482015260840161049e565b7f00000000000000000000000000000000000000000000000000000000000000006001600160a01b031663d0e30db083600081518110611c8957611c89614023565b60200260200101516040518263ffffffff1660e01b81526004016000604051808303818588803b158015611cbc57600080fd5b505af1158015611cd0573d6000803e3d6000fd5b50505050507f00000000000000000000000000000000000000000000000000000000000000006001600160a01b031663a9059cbb611d1b8a8989600081811061090557610905614023565b84600081518110611d2e57611d2e614023565b60200260200101516040518363ffffffff1660e01b8152600401611d679291906001600160a01b03929092168252602082015260400190565b602060405180830381600087803b158015611d8157600080fd5b505af1158015611d95573d6000803e3d6000fd5b505050506040513d601f19601f82011682018060405250810190611db991906137d0565b611dc557611dc5613f96565b611e0588838888808060200260200160405190810160405280939291908181526020018383602002808284376000920191909152508a9250612d6b915050565b509695505050505050565b606060018481548110611e2557611e25614023565b60009182526020909120600491820201546040517fd06ca61f0000000000000000000000000000000000000000000000000000000081526001600160a01b039091169163d06ca61f91611e7c918791879101613dab565b60006040518083038186803b158015611e9457600080fd5b505afa158015611ea8573d6000803e3d6000fd5b505050506040513d6000823e601f3d908101601f19168201604052611ed0919081019061373f565b949350505050565b60608142811015611f2b5760405162461bcd60e51b815260206004820152601660248201527f506f7274696679526f757465723a204558504952454400000000000000000000604482015260640161049e565b6001600160a01b037f0000000000000000000000000000000000000000000000000000000000000000168686611f62600182613ec6565b818110611f7157611f71614023565b9050602002016020810190611f8691906136fe565b6001600160a01b031614611fdc5760405162461bcd60e51b815260206004820152601b60248201527f506f7274696679526f757465723a20494e56414c49445f504154480000000000604482015260640161049e565b60018981548110611fef57611fef614023565b60009182526020909120600491820201546040517fd06ca61f0000000000000000000000000000000000000000000000000000000081526001600160a01b039091169163d06ca61f91612048918c918b918b9101613d5f565b60006040518083038186803b15801561206057600080fd5b505afa158015612074573d6000803e3d6000fd5b505050506040513d6000823e601f3d908101601f1916820160405261209c919081019061373f565b91508682600184516120ae9190613ec6565b815181106120be576120be614023565b602002602001015110156106aa5760405162461bcd60e51b815260206004820152602960248201527f506f7274696679526f757465723a20494e53554646494349454e545f4f55545060448201527f55545f414d4f554e540000000000000000000000000000000000000000000000606482015260840161049e565b6060814281101561218d5760405162461bcd60e51b815260206004820152601660248201527f506f7274696679526f757465723a204558504952454400000000000000000000604482015260640161049e565b600189815481106121a0576121a0614023565b60009182526020909120600491820201546040517f1f00ca740000000000000000000000000000000000000000000000000000000081526001600160a01b0390911691631f00ca74916121f9918c918b918b9101613d5f565b60006040518083038186803b15801561221157600080fd5b505afa158015612225573d6000803e3d6000fd5b505050506040513d6000823e601f3d908101601f1916820160405261224d919081019061373f565b9150868260008151811061226357612263614023565b602002602001015111156122df5760405162461bcd60e51b815260206004820152602560248201527f506f7274696679526f757465723a204558434553534956455f494e5055545f4160448201527f4d4f554e54000000000000000000000000000000000000000000000000000000606482015260840161049e565b6122f5868660008181106106c0576106c0614023565b61086589838888808060200260200160405190810160405280939291908181526020018383602002808284376000920191909152508a9250612d6b915050565b336123486000546001600160a01b031690565b6001600160a01b03161461239e5760405162461bcd60e51b815260206004820181905260248201527f4f776e61626c653a2063616c6c6572206973206e6f7420746865206f776e6572604482015260640161049e565b6001600160a01b03811661241a5760405162461bcd60e51b815260206004820152602660248201527f4f776e61626c653a206e6577206f776e657220697320746865207a65726f206160448201527f6464726573730000000000000000000000000000000000000000000000000000606482015260840161049e565b612423816133d0565b50565b606081428110156124795760405162461bcd60e51b815260206004820152601660248201527f506f7274696679526f757465723a204558504952454400000000000000000000604482015260640161049e565b6001898154811061248c5761248c614023565b60009182526020909120600491820201546040517fd06ca61f0000000000000000000000000000000000000000000000000000000081526001600160a01b039091169163d06ca61f916124e5918c918b918b9101613d5f565b60006040518083038186803b1580156124fd57600080fd5b505afa158015612511573d6000803e3d6000fd5b505050506040513d6000823e601f3d908101601f19168201604052612539919081019061373f565b915086826001845161254b9190613ec6565b8151811061255b5761255b614023565b602002602001015110156122df5760405162461bcd60e51b815260206004820152602960248201527f506f7274696679526f757465723a20494e53554646494349454e545f4f55545060448201527f55545f414d4f554e540000000000000000000000000000000000000000000000606482015260840161049e565b6060600184815481106125ec576125ec614023565b60009182526020909120600491820201546040517f1f00ca740000000000000000000000000000000000000000000000000000000081526001600160a01b0390911691631f00ca7491611e7c918791879101613dab565b606081428110156126965760405162461bcd60e51b815260206004820152601660248201527f506f7274696679526f757465723a204558504952454400000000000000000000604482015260640161049e565b7f00000000000000000000000000000000000000000000000000000000000000006001600160a01b0316868660008181106126d3576126d3614023565b90506020020160208101906126e891906136fe565b6001600160a01b03161461273e5760405162461bcd60e51b815260206004820152601b60248201527f506f7274696679526f757465723a20494e56414c49445f504154480000000000604482015260640161049e565b6001888154811061275157612751614023565b60009182526020909120600491820201546040517f1f00ca740000000000000000000000000000000000000000000000000000000081526001600160a01b0390911691631f00ca74916127aa918b918b918b9101613d5f565b60006040518083038186803b1580156127c257600080fd5b505afa1580156127d6573d6000803e3d6000fd5b505050506040513d6000823e601f3d908101601f191682016040526127fe919081019061373f565b9150348260008151811061281457612814614023565b602002602001015111156128905760405162461bcd60e51b815260206004820152602560248201527f506f7274696679526f757465723a204558434553534956455f494e5055545f4160448201527f4d4f554e54000000000000000000000000000000000000000000000000000000606482015260840161049e565b7f00000000000000000000000000000000000000000000000000000000000000006001600160a01b031663d0e30db0836000815181106128d2576128d2614023565b60200260200101516040518263ffffffff1660e01b81526004016000604051808303818588803b15801561290557600080fd5b505af1158015612919573d6000803e3d6000fd5b50505050507f00000000000000000000000000000000000000000000000000000000000000006001600160a01b031663a9059cbb6129648a8989600081811061090557610905614023565b8460008151811061297757612977614023565b60200260200101516040518363ffffffff1660e01b81526004016129b09291906001600160a01b03929092168252602082015260400190565b602060405180830381600087803b1580156129ca57600080fd5b505af11580156129de573d6000803e3d6000fd5b505050506040513d601f19601f82011682018060405250810190612a0291906137d0565b612a0e57612a0e613f96565b612a4e88838888808060200260200160405190810160405280939291908181526020018383602002808284376000920191909152508a9250612d6b915050565b81600081518110612a6157612a61614023565b6020026020010151341115611e0557611e053383600081518110612a8757612a87614023565b602002602001015134612a9a9190613ec6565b612f34565b6000806000612aae8585613438565b9150915060018681548110612ac557612ac5614023565b600091825260209182902060049190910201600101546040517fffffffffffffffffffffffffffffffffffffffff000000000000000000000000606086811b8216948301949094529284901b90921660348301526001600160a01b0316906048016040516020818303038152906040528051906020012060018881548110612b4f57612b4f614023565b906000526020600020906004020160020154604051602001612bd1939291907fff00000000000000000000000000000000000000000000000000000000000000815260609390931b7fffffffffffffffffffffffffffffffffffffffff0000000000000000000000001660018401526015830191909152603582015260550190565b60408051601f1981840301815291905280516020909101209695505050505050565b604080516001600160a01b0385811660248301528481166044830152606480830185905283518084039091018152608490920183526020820180517bffffffffffffffffffffffffffffffffffffffffffffffffffffffff167f23b872dd000000000000000000000000000000000000000000000000000000001790529151600092839290881691612c859190613b6a565b6000604051808303816000865af19150503d8060008114612cc2576040519150601f19603f3d011682016040523d82523d6000602084013e612cc7565b606091505b5091509150818015612cf1575080511580612cf1575080806020019051810190612cf191906137d0565b612d635760405162461bcd60e51b815260206004820152603160248201527f5472616e7366657248656c7065723a3a7472616e7366657246726f6d3a20747260448201527f616e7366657246726f6d206661696c6564000000000000000000000000000000606482015260840161049e565b505050505050565b60005b60018351612d7c9190613ec6565b811015612f2d57600080848381518110612d9857612d98614023565b602002602001015185846001612dae9190613eae565b81518110612dbe57612dbe614023565b6020026020010151915091506000612dd68383613438565b509050600087612de7866001613eae565b81518110612df757612df7614023565b60200260200101519050600080836001600160a01b0316866001600160a01b031614612e2557826000612e29565b6000835b91509150600060028a51612e3d9190613ec6565b8810612e495788612e77565b612e778c878c612e5a8c6002613eae565b81518110612e6a57612e6a614023565b6020026020010151612a9f565b9050612e848c8888612a9f565b6001600160a01b031663022c0d9f84848460006040519080825280601f01601f191660200182016040528015612ec1576020820181803683370190505b506040518563ffffffff1660e01b8152600401612ee19493929190613e02565b600060405180830381600087803b158015612efb57600080fd5b505af1158015612f0f573d6000803e3d6000fd5b50505050505050505050508080612f2590613f5d565b915050612d6e565b5050505050565b604080516000808252602082019092526001600160a01b038416908390604051612f5e9190613b6a565b60006040518083038185875af1925050503d8060008114612f9b576040519150601f19603f3d011682016040523d82523d6000602084013e612fa0565b606091505b50509050806130175760405162461bcd60e51b815260206004820152603460248201527f5472616e7366657248656c7065723a3a736166655472616e736665724554483a60448201527f20455448207472616e73666572206661696c6564000000000000000000000000606482015260840161049e565b505050565b60005b6001835161302d9190613ec6565b8110156133ca5760008084838151811061304957613049614023565b60200260200101518584600161305f9190613eae565b8151811061306f5761306f614023565b60200260200101519150915060006130878383613438565b5090506000613097888585612a9f565b9050600080600080846001600160a01b0316630902f1ac6040518163ffffffff1660e01b815260040160606040518083038186803b1580156130d857600080fd5b505afa1580156130ec573d6000803e3d6000fd5b505050506040513d601f19601f8201168201806040525081019061311091906138fc565b506dffffffffffffffffffffffffffff1691506dffffffffffffffffffffffffffff169150600080876001600160a01b03168a6001600160a01b03161461315857828461315b565b83835b6040517f70a082310000000000000000000000000000000000000000000000000000000081526001600160a01b038a8116600483015292945090925083918c16906370a082319060240160206040518083038186803b1580156131bd57600080fd5b505afa1580156131d1573d6000803e3d6000fd5b505050506040513d601f19601f820116820180604052508101906131f591906137f2565b6131ff9190613ec6565b955060018e8154811061321457613214614023565b60009182526020909120600491820201546040517f054d50d400000000000000000000000000000000000000000000000000000000815291820188905260248201849052604482018390526001600160a01b03169063054d50d49060640160206040518083038186803b15801561328a57600080fd5b505afa15801561329e573d6000803e3d6000fd5b505050506040513d601f19601f820116820180604052508101906132c291906137f2565b945050505050600080856001600160a01b0316886001600160a01b0316146132ec578260006132f0565b6000835b91509150600060028c516133049190613ec6565b8a10613310578a613321565b6133218d898e612e5a8e6002613eae565b604080516000815260208101918290527f022c0d9f000000000000000000000000000000000000000000000000000000009091529091506001600160a01b0387169063022c0d9f9061337c9086908690869060248101613e02565b600060405180830381600087803b15801561339657600080fd5b505af11580156133aa573d6000803e3d6000fd5b5050505050505050505050505080806133c290613f5d565b91505061301f565b50505050565b600080546001600160a01b038381167fffffffffffffffffffffffff0000000000000000000000000000000000000000831681178455604051919092169283917f8be0079c531659141344cd1fd0a4f28419497f9722a3daafe3b4186f6b6457e09190a35050565b600080826001600160a01b0316846001600160a01b031614156134c35760405162461bcd60e51b815260206004820152602360248201527f506f72746966794c6962726172793a204944454e544943414c5f41444452455360448201527f5345530000000000000000000000000000000000000000000000000000000000606482015260840161049e565b826001600160a01b0316846001600160a01b0316106134e35782846134e6565b83835b90925090506001600160a01b0382166135415760405162461bcd60e51b815260206004820152601c60248201527f506f72746966794c6962726172793a205a45524f5f4144445245535300000000604482015260640161049e565b9250929050565b82805461355490613f09565b90600052602060002090601f01602090048101928261357657600085556135c3565b82601f1061358757805485556135c3565b828001600101855582156135c357600052602060002091601f016020900482015b828111156135c35782548255916001019190600101906135a8565b506135cf929150613681565b5090565b5080546135df90613f09565b6000825580601f106135ef575050565b601f0160209004906000526020600020908101906124239190613681565b82805461361990613f09565b90600052602060002090601f01602090048101928261363b57600085556135c3565b82601f1061365457805160ff19168380011785556135c3565b828001600101855582156135c3579182015b828111156135c3578251825591602001919060010190613666565b5b808211156135cf5760008155600101613682565b60008083601f8401126136a857600080fd5b50813567ffffffffffffffff8111156136c057600080fd5b6020830191508360208260051b850101111561354157600080fd5b80516dffffffffffffffffffffffffffff811681146136f957600080fd5b919050565b60006020828403121561371057600080fd5b813561371b81614081565b9392505050565b60006020828403121561373457600080fd5b815161371b81614081565b6000602080838503121561375257600080fd5b825167ffffffffffffffff81111561376957600080fd5b8301601f8101851361377a57600080fd5b805161378d61378882613e8a565b613e59565b80828252848201915084840188868560051b87010111156137ad57600080fd5b600094505b838510156108655780518352600194909401939185019185016137b2565b6000602082840312156137e257600080fd5b8151801515811461371b57600080fd5b60006020828403121561380457600080fd5b5051919050565b6000602080838503121561381e57600080fd5b823567ffffffffffffffff8082111561383657600080fd5b908401906080828703121561384a57600080fd5b613852613e30565b823561385d81614081565b81528284013561386c81614081565b818501526040838101359082015260608301358281111561388c57600080fd5b80840193505086601f8401126138a157600080fd5b8235828111156138b3576138b3614052565b6138c585601f19601f84011601613e59565b925080835287858286010111156138db57600080fd5b80858501868501376000908301909401939093526060830152509392505050565b60008060006060848603121561391157600080fd5b61391a846136db565b9250613928602085016136db565b9150604084015163ffffffff8116811461394157600080fd5b809150509250925092565b60006020828403121561395e57600080fd5b5035919050565b60008060008060008060a0878903121561397e57600080fd5b8635955060208701359450604087013567ffffffffffffffff8111156139a357600080fd5b6139af89828a01613696565b90955093505060608701356139c381614081565b80925050608087013590509295509295509295565b6000806000606084860312156139ed57600080fd5b833592506020808501359250604085013567ffffffffffffffff811115613a1357600080fd5b8501601f81018713613a2457600080fd5b8035613a3261378882613e8a565b8082825284820191508484018a868560051b8701011115613a5257600080fd5b600094505b83851015613a7e578035613a6a81614081565b835260019490940193918501918501613a57565b5080955050505050509250925092565b600080600080600080600060c0888a031215613aa957600080fd5b873596506020880135955060408801359450606088013567ffffffffffffffff811115613ad557600080fd5b613ae18a828b01613696565b9095509350506080880135613af581614081565b8092505060a0880135905092959891949750929550565b60008060008060808587031215613b2257600080fd5b5050823594602084013594506040840135936060013592509050565b60008151808452613b56816020860160208601613edd565b601f01601f19169290920160200192915050565b60008251613b7c818460208701613edd565b9190910192915050565b6020808252825182820181905260009190848201906040850190845b81811015613bbe57835183529284019291840191600101613ba2565b50909695505050505050565b60006001600160a01b03808716835280861660208401525083604083015260806060830152613bfc6080830184613b3e565b9695505050505050565b6020815260006001600160a01b0380845116602084015280602085015116604084015250604083015160608301526060830151608080840152611ed060a0840182613b3e565b600060208083526001600160a01b0380855416828501526001818187015416604086015260028601546060860152600386019150608080860152600082548181841c905083821680613c9f57607f821691505b868210811415613cd6577f4e487b710000000000000000000000000000000000000000000000000000000084526022600452602484fd5b60a0890182905260c08901818015613cf55760018114613d2457613d4f565b7fffffffffffffffffffffffffffffffffffffffffffffffffffffffffffffff00851682528882019550613d4f565b60008881526020902060005b85811015613d4957815484820152908801908a01613d30565b83019650505b50939a9950505050505050505050565b83815260406020808301829052908201839052600090849060608401835b86811015610865578335613d9081614081565b6001600160a01b031682529282019290820190600101613d7d565b6000604082018483526020604081850152818551808452606086019150828701935060005b81811015613df55784516001600160a01b031683529383019391830191600101613dd0565b5090979650505050505050565b8481528360208201526001600160a01b0383166040820152608060608201526000613bfc6080830184613b3e565b6040516080810167ffffffffffffffff81118282101715613e5357613e53614052565b60405290565b604051601f8201601f1916810167ffffffffffffffff81118282101715613e8257613e82614052565b604052919050565b600067ffffffffffffffff821115613ea457613ea4614052565b5060051b60200190565b60008219821115613ec157613ec1613fc5565b500190565b600082821015613ed857613ed8613fc5565b500390565b60005b83811015613ef8578181015183820152602001613ee0565b838111156133ca5750506000910152565b600181811c90821680613f1d57607f821691505b60208210811415613f57577f4e487b7100000000000000000000000000000000000000000000000000000000600052602260045260246000fd5b50919050565b60007fffffffffffffffffffffffffffffffffffffffffffffffffffffffffffffffff821415613f8f57613f8f613fc5565b5060010190565b7f4e487b7100000000000000000000000000000000000000000000000000000000600052600160045260246000fd5b7f4e487b7100000000000000000000000000000000000000000000000000000000600052601160045260246000fd5b7f4e487b7100000000000000000000000000000000000000000000000000000000600052603160045260246000fd5b7f4e487b7100000000000000000000000000000000000000000000000000000000600052603260045260246000fd5b7f4e487b7100000000000000000000000000000000000000000000000000000000600052604160045260246000fd5b6001600160a01b038116811461242357600080fdfea2646970667358221220f11ad283d293baee53c13408cd74c7d391b7a704ab6e9be958805bdee9a53cfd64736f6c63430008070033",
          "opcodes": "PUSH1 0xA0 PUSH1 0x40 MSTORE CALLVALUE DUP1 ISZERO PUSH3 0x11 JUMPI PUSH1 0x0 DUP1 REVERT JUMPDEST POP PUSH1 0x40 MLOAD PUSH3 0x4869 CODESIZE SUB DUP1 PUSH3 0x4869 DUP4 CODECOPY DUP2 ADD PUSH1 0x40 DUP2 SWAP1 MSTORE PUSH3 0x34 SWAP2 PUSH3 0x409 JUMP JUMPDEST PUSH3 0x3F CALLER PUSH3 0x2DA JUMP JUMPDEST PUSH1 0x1 PUSH1 0x1 PUSH1 0x60 SHL SUB NOT PUSH1 0x60 DUP3 SWAP1 SHL AND PUSH1 0x80 MSTORE PUSH1 0x0 JUMPDEST PUSH1 0x1 SLOAD DUP2 LT ISZERO PUSH3 0x2D1 JUMPI PUSH1 0x1 DUP4 DUP3 DUP2 MLOAD DUP2 LT PUSH3 0x76 JUMPI PUSH3 0x76 PUSH3 0x6C9 JUMP JUMPDEST PUSH1 0x20 SWAP1 DUP2 MUL SWAP2 SWAP1 SWAP2 ADD DUP2 ADD MLOAD DUP3 SLOAD PUSH1 0x1 DUP2 DUP2 ADD DUP6 SSTORE PUSH1 0x0 SWAP5 DUP6 MSTORE SWAP4 DUP4 SWAP1 KECCAK256 DUP3 MLOAD PUSH1 0x4 SWAP1 SWAP3 MUL ADD DUP1 SLOAD PUSH1 0x1 PUSH1 0x1 PUSH1 0xA0 SHL SUB SWAP3 DUP4 AND PUSH1 0x1 PUSH1 0x1 PUSH1 0xA0 SHL SUB NOT SWAP2 DUP3 AND OR DUP3 SSTORE DUP4 DUP6 ADD MLOAD SWAP6 DUP3 ADD DUP1 SLOAD SWAP7 SWAP1 SWAP4 AND SWAP6 AND SWAP5 SWAP1 SWAP5 OR SWAP1 SSTORE PUSH1 0x40 DUP2 ADD MLOAD PUSH1 0x2 DUP5 ADD SSTORE PUSH1 0x60 DUP2 ADD MLOAD DUP1 MLOAD SWAP2 SWAP4 SWAP3 PUSH3 0xF5 SWAP3 PUSH1 0x3 DUP6 ADD SWAP3 SWAP1 SWAP2 ADD SWAP1 PUSH3 0x32A JUMP JUMPDEST POP POP POP PUSH1 0x1 DUP2 DUP2 SLOAD DUP2 LT PUSH3 0x10E JUMPI PUSH3 0x10E PUSH3 0x6C9 JUMP JUMPDEST PUSH1 0x0 SWAP2 DUP3 MSTORE PUSH1 0x20 SWAP2 DUP3 SWAP1 KECCAK256 PUSH1 0x4 SWAP2 DUP3 MUL ADD SLOAD PUSH1 0x40 DUP1 MLOAD PUSH4 0xC45A0155 PUSH1 0xE0 SHL DUP2 MSTORE SWAP1 MLOAD PUSH1 0x1 PUSH1 0x1 PUSH1 0xA0 SHL SUB SWAP1 SWAP3 AND SWAP4 PUSH4 0xC45A0155 SWAP4 DUP3 DUP2 ADD SWAP4 SWAP2 SWAP3 DUP3 SWAP1 SUB ADD DUP2 DUP7 DUP1 EXTCODESIZE ISZERO DUP1 ISZERO PUSH3 0x15D JUMPI PUSH1 0x0 DUP1 REVERT JUMPDEST POP GAS STATICCALL ISZERO DUP1 ISZERO PUSH3 0x172 JUMPI RETURNDATASIZE PUSH1 0x0 DUP1 RETURNDATACOPY RETURNDATASIZE PUSH1 0x0 REVERT JUMPDEST POP POP POP POP PUSH1 0x40 MLOAD RETURNDATASIZE PUSH1 0x1F NOT PUSH1 0x1F DUP3 ADD AND DUP3 ADD DUP1 PUSH1 0x40 MSTORE POP DUP2 ADD SWAP1 PUSH3 0x198 SWAP2 SWAP1 PUSH3 0x3E2 JUMP JUMPDEST PUSH1 0x1 DUP3 DUP2 SLOAD DUP2 LT PUSH3 0x1AE JUMPI PUSH3 0x1AE PUSH3 0x6C9 JUMP JUMPDEST SWAP1 PUSH1 0x0 MSTORE PUSH1 0x20 PUSH1 0x0 KECCAK256 SWAP1 PUSH1 0x4 MUL ADD PUSH1 0x1 ADD PUSH1 0x0 PUSH2 0x100 EXP DUP2 SLOAD DUP2 PUSH1 0x1 PUSH1 0x1 PUSH1 0xA0 SHL SUB MUL NOT AND SWAP1 DUP4 PUSH1 0x1 PUSH1 0x1 PUSH1 0xA0 SHL SUB AND MUL OR SWAP1 SSTORE POP PUSH1 0x1 DUP2 DUP2 SLOAD DUP2 LT PUSH3 0x1F9 JUMPI PUSH3 0x1F9 PUSH3 0x6C9 JUMP JUMPDEST SWAP1 PUSH1 0x0 MSTORE PUSH1 0x20 PUSH1 0x0 KECCAK256 SWAP1 PUSH1 0x4 MUL ADD PUSH1 0x1 ADD PUSH1 0x0 SWAP1 SLOAD SWAP1 PUSH2 0x100 EXP SWAP1 DIV PUSH1 0x1 PUSH1 0x1 PUSH1 0xA0 SHL SUB AND PUSH1 0x1 PUSH1 0x1 PUSH1 0xA0 SHL SUB AND PUSH4 0x5855A25A PUSH1 0x40 MLOAD DUP2 PUSH4 0xFFFFFFFF AND PUSH1 0xE0 SHL DUP2 MSTORE PUSH1 0x4 ADD PUSH1 0x20 PUSH1 0x40 MLOAD DUP1 DUP4 SUB DUP2 DUP7 DUP1 EXTCODESIZE ISZERO DUP1 ISZERO PUSH3 0x257 JUMPI PUSH1 0x0 DUP1 REVERT JUMPDEST POP GAS STATICCALL ISZERO DUP1 ISZERO PUSH3 0x26C JUMPI RETURNDATASIZE PUSH1 0x0 DUP1 RETURNDATACOPY RETURNDATASIZE PUSH1 0x0 REVERT JUMPDEST POP POP POP POP PUSH1 0x40 MLOAD RETURNDATASIZE PUSH1 0x1F NOT PUSH1 0x1F DUP3 ADD AND DUP3 ADD DUP1 PUSH1 0x40 MSTORE POP DUP2 ADD SWAP1 PUSH3 0x292 SWAP2 SWAP1 PUSH3 0x5EA JUMP JUMPDEST PUSH1 0x1 DUP3 DUP2 SLOAD DUP2 LT PUSH3 0x2A8 JUMPI PUSH3 0x2A8 PUSH3 0x6C9 JUMP JUMPDEST PUSH1 0x0 SWAP2 DUP3 MSTORE PUSH1 0x20 SWAP1 SWAP2 KECCAK256 PUSH1 0x2 PUSH1 0x4 SWAP1 SWAP3 MUL ADD ADD SSTORE DUP1 PUSH3 0x2C8 DUP2 PUSH3 0x69F JUMP JUMPDEST SWAP2 POP POP PUSH3 0x54 JUMP JUMPDEST POP POP POP PUSH3 0x70E JUMP JUMPDEST PUSH1 0x0 DUP1 SLOAD PUSH1 0x1 PUSH1 0x1 PUSH1 0xA0 SHL SUB DUP4 DUP2 AND PUSH1 0x1 PUSH1 0x1 PUSH1 0xA0 SHL SUB NOT DUP4 AND DUP2 OR DUP5 SSTORE PUSH1 0x40 MLOAD SWAP2 SWAP1 SWAP3 AND SWAP3 DUP4 SWAP2 PUSH32 0x8BE0079C531659141344CD1FD0A4F28419497F9722A3DAAFE3B4186F6B6457E0 SWAP2 SWAP1 LOG3 POP POP JUMP JUMPDEST DUP3 DUP1 SLOAD PUSH3 0x338 SWAP1 PUSH3 0x662 JUMP JUMPDEST SWAP1 PUSH1 0x0 MSTORE PUSH1 0x20 PUSH1 0x0 KECCAK256 SWAP1 PUSH1 0x1F ADD PUSH1 0x20 SWAP1 DIV DUP2 ADD SWAP3 DUP3 PUSH3 0x35C JUMPI PUSH1 0x0 DUP6 SSTORE PUSH3 0x3A7 JUMP JUMPDEST DUP3 PUSH1 0x1F LT PUSH3 0x377 JUMPI DUP1 MLOAD PUSH1 0xFF NOT AND DUP4 DUP1 ADD OR DUP6 SSTORE PUSH3 0x3A7 JUMP JUMPDEST DUP3 DUP1 ADD PUSH1 0x1 ADD DUP6 SSTORE DUP3 ISZERO PUSH3 0x3A7 JUMPI SWAP2 DUP3 ADD JUMPDEST DUP3 DUP2 GT ISZERO PUSH3 0x3A7 JUMPI DUP3 MLOAD DUP3 SSTORE SWAP2 PUSH1 0x20 ADD SWAP2 SWAP1 PUSH1 0x1 ADD SWAP1 PUSH3 0x38A JUMP JUMPDEST POP PUSH3 0x3B5 SWAP3 SWAP2 POP PUSH3 0x3B9 JUMP JUMPDEST POP SWAP1 JUMP JUMPDEST JUMPDEST DUP1 DUP3 GT ISZERO PUSH3 0x3B5 JUMPI PUSH1 0x0 DUP2 SSTORE PUSH1 0x1 ADD PUSH3 0x3BA JUMP JUMPDEST DUP1 MLOAD PUSH3 0x3DD DUP2 PUSH3 0x6F5 JUMP JUMPDEST SWAP2 SWAP1 POP JUMP JUMPDEST PUSH1 0x0 PUSH1 0x20 DUP3 DUP5 SUB SLT ISZERO PUSH3 0x3F5 JUMPI PUSH1 0x0 DUP1 REVERT JUMPDEST DUP2 MLOAD PUSH3 0x402 DUP2 PUSH3 0x6F5 JUMP JUMPDEST SWAP4 SWAP3 POP POP POP JUMP JUMPDEST PUSH1 0x0 DUP1 PUSH1 0x40 DUP4 DUP6 SUB SLT ISZERO PUSH3 0x41D JUMPI PUSH1 0x0 DUP1 REVERT JUMPDEST DUP3 MLOAD PUSH1 0x1 PUSH1 0x1 PUSH1 0x40 SHL SUB DUP1 DUP3 GT ISZERO PUSH3 0x435 JUMPI PUSH1 0x0 DUP1 REVERT JUMPDEST DUP2 DUP6 ADD SWAP2 POP DUP6 PUSH1 0x1F DUP4 ADD SLT PUSH3 0x44A JUMPI PUSH1 0x0 DUP1 REVERT JUMPDEST DUP2 MLOAD DUP2 DUP2 GT ISZERO PUSH3 0x45F JUMPI PUSH3 0x45F PUSH3 0x6DF JUMP JUMPDEST PUSH3 0x470 PUSH1 0x20 DUP3 PUSH1 0x5 SHL ADD PUSH3 0x62F JUMP JUMPDEST DUP1 DUP3 DUP3 MSTORE PUSH1 0x20 DUP3 ADD SWAP2 POP PUSH1 0x20 DUP6 ADD DUP10 PUSH1 0x20 DUP6 PUSH1 0x5 SHL DUP9 ADD ADD GT ISZERO PUSH3 0x494 JUMPI PUSH1 0x0 DUP1 REVERT JUMPDEST PUSH1 0x0 JUMPDEST DUP5 DUP2 LT ISZERO PUSH3 0x5C9 JUMPI DUP2 MLOAD DUP7 DUP2 GT ISZERO PUSH3 0x4B0 JUMPI PUSH1 0x0 DUP1 REVERT JUMPDEST DUP8 ADD PUSH1 0x1F NOT PUSH1 0x80 DUP3 DUP15 SUB DUP3 ADD SLT ISZERO PUSH3 0x4C8 JUMPI PUSH1 0x0 DUP1 REVERT JUMPDEST PUSH3 0x4D2 PUSH3 0x604 JUMP JUMPDEST PUSH1 0x20 DUP4 ADD MLOAD PUSH3 0x4E2 DUP2 PUSH3 0x6F5 JUMP JUMPDEST DUP2 MSTORE PUSH1 0x40 DUP4 ADD MLOAD PUSH3 0x4F4 DUP2 PUSH3 0x6F5 JUMP JUMPDEST PUSH1 0x20 DUP3 ADD MSTORE PUSH1 0x60 DUP4 ADD MLOAD PUSH1 0x40 DUP3 ADD MSTORE PUSH1 0x80 DUP4 ADD MLOAD DUP10 DUP2 GT ISZERO PUSH3 0x516 JUMPI PUSH1 0x0 DUP1 REVERT JUMPDEST DUP1 DUP5 ADD SWAP4 POP POP DUP14 PUSH1 0x3F DUP5 ADD SLT PUSH3 0x52C JUMPI PUSH1 0x0 DUP1 REVERT JUMPDEST PUSH1 0x20 DUP4 ADD MLOAD DUP10 DUP2 GT ISZERO PUSH3 0x544 JUMPI PUSH3 0x544 PUSH3 0x6DF JUMP JUMPDEST PUSH3 0x557 PUSH1 0x20 DUP5 PUSH1 0x1F DUP5 ADD AND ADD PUSH3 0x62F JUMP JUMPDEST SWAP3 POP DUP1 DUP4 MSTORE DUP15 PUSH1 0x40 DUP3 DUP7 ADD ADD GT ISZERO PUSH3 0x56F JUMPI PUSH1 0x0 DUP1 REVERT JUMPDEST PUSH1 0x0 JUMPDEST DUP2 DUP2 LT ISZERO PUSH3 0x595 JUMPI PUSH1 0x40 DUP2 DUP7 ADD ADD MLOAD PUSH1 0x20 DUP3 DUP7 ADD ADD MSTORE PUSH1 0x20 DUP2 ADD SWAP1 POP PUSH3 0x572 JUMP JUMPDEST DUP2 DUP2 GT ISZERO PUSH3 0x5A8 JUMPI PUSH1 0x0 PUSH1 0x20 DUP4 DUP7 ADD ADD MSTORE JUMPDEST POP POP PUSH1 0x60 DUP2 ADD SWAP2 SWAP1 SWAP2 MSTORE DUP6 MSTORE POP PUSH1 0x20 SWAP4 DUP5 ADD SWAP4 SWAP2 SWAP1 SWAP2 ADD SWAP1 PUSH1 0x1 ADD PUSH3 0x497 JUMP JUMPDEST POP POP DUP1 SWAP7 POP POP POP POP POP POP PUSH3 0x5E1 PUSH1 0x20 DUP5 ADD PUSH3 0x3D0 JUMP JUMPDEST SWAP1 POP SWAP3 POP SWAP3 SWAP1 POP JUMP JUMPDEST PUSH1 0x0 PUSH1 0x20 DUP3 DUP5 SUB SLT ISZERO PUSH3 0x5FD JUMPI PUSH1 0x0 DUP1 REVERT JUMPDEST POP MLOAD SWAP2 SWAP1 POP JUMP JUMPDEST PUSH1 0x40 MLOAD PUSH1 0x80 DUP2 ADD PUSH1 0x1 PUSH1 0x1 PUSH1 0x40 SHL SUB DUP2 GT DUP3 DUP3 LT OR ISZERO PUSH3 0x629 JUMPI PUSH3 0x629 PUSH3 0x6DF JUMP JUMPDEST PUSH1 0x40 MSTORE SWAP1 JUMP JUMPDEST PUSH1 0x40 MLOAD PUSH1 0x1F DUP3 ADD PUSH1 0x1F NOT AND DUP2 ADD PUSH1 0x1 PUSH1 0x1 PUSH1 0x40 SHL SUB DUP2 GT DUP3 DUP3 LT OR ISZERO PUSH3 0x65A JUMPI PUSH3 0x65A PUSH3 0x6DF JUMP JUMPDEST PUSH1 0x40 MSTORE SWAP2 SWAP1 POP JUMP JUMPDEST PUSH1 0x1 DUP2 DUP2 SHR SWAP1 DUP3 AND DUP1 PUSH3 0x677 JUMPI PUSH1 0x7F DUP3 AND SWAP2 POP JUMPDEST PUSH1 0x20 DUP3 LT DUP2 EQ ISZERO PUSH3 0x699 JUMPI PUSH4 0x4E487B71 PUSH1 0xE0 SHL PUSH1 0x0 MSTORE PUSH1 0x22 PUSH1 0x4 MSTORE PUSH1 0x24 PUSH1 0x0 REVERT JUMPDEST POP SWAP2 SWAP1 POP JUMP JUMPDEST PUSH1 0x0 PUSH1 0x0 NOT DUP3 EQ ISZERO PUSH3 0x6C2 JUMPI PUSH4 0x4E487B71 PUSH1 0xE0 SHL PUSH1 0x0 MSTORE PUSH1 0x11 PUSH1 0x4 MSTORE PUSH1 0x24 PUSH1 0x0 REVERT JUMPDEST POP PUSH1 0x1 ADD SWAP1 JUMP JUMPDEST PUSH4 0x4E487B71 PUSH1 0xE0 SHL PUSH1 0x0 MSTORE PUSH1 0x32 PUSH1 0x4 MSTORE PUSH1 0x24 PUSH1 0x0 REVERT JUMPDEST PUSH4 0x4E487B71 PUSH1 0xE0 SHL PUSH1 0x0 MSTORE PUSH1 0x41 PUSH1 0x4 MSTORE PUSH1 0x24 PUSH1 0x0 REVERT JUMPDEST PUSH1 0x1 PUSH1 0x1 PUSH1 0xA0 SHL SUB DUP2 AND DUP2 EQ PUSH3 0x70B JUMPI PUSH1 0x0 DUP1 REVERT JUMPDEST POP JUMP JUMPDEST PUSH1 0x80 MLOAD PUSH1 0x60 SHR PUSH2 0x40CC PUSH3 0x79D PUSH1 0x0 CODECOPY PUSH1 0x0 DUP2 DUP2 PUSH2 0x173 ADD MSTORE DUP2 DUP2 PUSH2 0x35A ADD MSTORE DUP2 DUP2 PUSH2 0x4B1 ADD MSTORE DUP2 DUP2 PUSH2 0x791 ADD MSTORE DUP2 DUP2 PUSH2 0x1342 ADD MSTORE DUP2 DUP2 PUSH2 0x13EF ADD MSTORE DUP2 DUP2 PUSH2 0x1463 ADD MSTORE DUP2 DUP2 PUSH2 0x172A ADD MSTORE DUP2 DUP2 PUSH2 0x1857 ADD MSTORE DUP2 DUP2 PUSH2 0x1980 ADD MSTORE DUP2 DUP2 PUSH2 0x1A43 ADD MSTORE DUP2 DUP2 PUSH2 0x1C49 ADD MSTORE DUP2 DUP2 PUSH2 0x1CD7 ADD MSTORE DUP2 DUP2 PUSH2 0x1F35 ADD MSTORE DUP2 DUP2 PUSH2 0x2698 ADD MSTORE DUP2 DUP2 PUSH2 0x2892 ADD MSTORE PUSH2 0x2920 ADD MSTORE PUSH2 0x40CC PUSH1 0x0 RETURN INVALID PUSH1 0x80 PUSH1 0x40 MSTORE PUSH1 0x4 CALLDATASIZE LT PUSH2 0x163 JUMPI PUSH1 0x0 CALLDATALOAD PUSH1 0xE0 SHR DUP1 PUSH4 0x903AB0BB GT PUSH2 0xC0 JUMPI DUP1 PUSH4 0xCD5FCD35 GT PUSH2 0x74 JUMPI DUP1 PUSH4 0xF6173D61 GT PUSH2 0x59 JUMPI DUP1 PUSH4 0xF6173D61 EQ PUSH2 0x3FC JUMPI DUP1 PUSH4 0xF7D13AF9 EQ PUSH2 0x41C JUMPI DUP1 PUSH4 0xFC374157 EQ PUSH2 0x43C JUMPI PUSH1 0x0 DUP1 REVERT JUMPDEST DUP1 PUSH4 0xCD5FCD35 EQ PUSH2 0x3BC JUMPI DUP1 PUSH4 0xF2FDE38B EQ PUSH2 0x3DC JUMPI PUSH1 0x0 DUP1 REVERT JUMPDEST DUP1 PUSH4 0xAD5C4648 GT PUSH2 0xA5 JUMPI DUP1 PUSH4 0xAD5C4648 EQ PUSH2 0x348 JUMPI DUP1 PUSH4 0xB67B1220 EQ PUSH2 0x37C JUMPI DUP1 PUSH4 0xC510B356 EQ PUSH2 0x39C JUMPI PUSH1 0x0 DUP1 REVERT JUMPDEST DUP1 PUSH4 0x903AB0BB EQ PUSH2 0x315 JUMPI DUP1 PUSH4 0xA5BE382E EQ PUSH2 0x335 JUMPI PUSH1 0x0 DUP1 REVERT JUMPDEST DUP1 PUSH4 0x571FD012 GT PUSH2 0x117 JUMPI DUP1 PUSH4 0x715018A6 GT PUSH2 0xFC JUMPI DUP1 PUSH4 0x715018A6 EQ PUSH2 0x2BB JUMPI DUP1 PUSH4 0x73E45444 EQ PUSH2 0x2D0 JUMPI DUP1 PUSH4 0x8DA5CB5B EQ PUSH2 0x2E3 JUMPI PUSH1 0x0 DUP1 REVERT JUMPDEST DUP1 PUSH4 0x571FD012 EQ PUSH2 0x27B JUMPI DUP1 PUSH4 0x67E9803C EQ PUSH2 0x29B JUMPI PUSH1 0x0 DUP1 REVERT JUMPDEST DUP1 PUSH4 0x3746AF08 GT PUSH2 0x148 JUMPI DUP1 PUSH4 0x3746AF08 EQ PUSH2 0x1FD JUMPI DUP1 PUSH4 0x41C6A58B EQ PUSH2 0x21D JUMPI DUP1 PUSH4 0x52707D8C EQ PUSH2 0x24D JUMPI PUSH1 0x0 DUP1 REVERT JUMPDEST DUP1 PUSH4 0x2B5F221D EQ PUSH2 0x1A7 JUMPI DUP1 PUSH4 0x34CDB1E9 EQ PUSH2 0x1DD JUMPI PUSH1 0x0 DUP1 REVERT JUMPDEST CALLDATASIZE PUSH2 0x1A2 JUMPI CALLER PUSH1 0x1 PUSH1 0x1 PUSH1 0xA0 SHL SUB PUSH32 0x0 AND EQ PUSH2 0x1A0 JUMPI PUSH2 0x1A0 PUSH2 0x3F96 JUMP JUMPDEST STOP JUMPDEST PUSH1 0x0 DUP1 REVERT JUMPDEST CALLVALUE DUP1 ISZERO PUSH2 0x1B3 JUMPI PUSH1 0x0 DUP1 REVERT JUMPDEST POP PUSH2 0x1C7 PUSH2 0x1C2 CALLDATASIZE PUSH1 0x4 PUSH2 0x3A8E JUMP JUMPDEST PUSH2 0x44F JUMP JUMPDEST PUSH1 0x40 MLOAD PUSH2 0x1D4 SWAP2 SWAP1 PUSH2 0x3B86 JUMP JUMPDEST PUSH1 0x40 MLOAD DUP1 SWAP2 SUB SWAP1 RETURN JUMPDEST CALLVALUE DUP1 ISZERO PUSH2 0x1E9 JUMPI PUSH1 0x0 DUP1 REVERT JUMPDEST POP PUSH2 0x1A0 PUSH2 0x1F8 CALLDATASIZE PUSH1 0x4 PUSH2 0x3A8E JUMP JUMPDEST PUSH2 0x871 JUMP JUMPDEST CALLVALUE DUP1 ISZERO PUSH2 0x209 JUMPI PUSH1 0x0 DUP1 REVERT JUMPDEST POP PUSH2 0x1A0 PUSH2 0x218 CALLDATASIZE PUSH1 0x4 PUSH2 0x394C JUMP JUMPDEST PUSH2 0xB8C JUMP JUMPDEST CALLVALUE DUP1 ISZERO PUSH2 0x229 JUMPI PUSH1 0x0 DUP1 REVERT JUMPDEST POP PUSH2 0x23D PUSH2 0x238 CALLDATASIZE PUSH1 0x4 PUSH2 0x394C JUMP JUMPDEST PUSH2 0xDA7 JUMP JUMPDEST PUSH1 0x40 MLOAD PUSH2 0x1D4 SWAP5 SWAP4 SWAP3 SWAP2 SWAP1 PUSH2 0x3BCA JUMP JUMPDEST CALLVALUE DUP1 ISZERO PUSH2 0x259 JUMPI PUSH1 0x0 DUP1 REVERT JUMPDEST POP PUSH2 0x26D PUSH2 0x268 CALLDATASIZE PUSH1 0x4 PUSH2 0x3B0C JUMP JUMPDEST PUSH2 0xE7B JUMP JUMPDEST PUSH1 0x40 MLOAD SWAP1 DUP2 MSTORE PUSH1 0x20 ADD PUSH2 0x1D4 JUMP JUMPDEST CALLVALUE DUP1 ISZERO PUSH2 0x287 JUMPI PUSH1 0x0 DUP1 REVERT JUMPDEST POP PUSH2 0x26D PUSH2 0x296 CALLDATASIZE PUSH1 0x4 PUSH2 0x3B0C JUMP JUMPDEST PUSH2 0xF48 JUMP JUMPDEST CALLVALUE DUP1 ISZERO PUSH2 0x2A7 JUMPI PUSH1 0x0 DUP1 REVERT JUMPDEST POP PUSH2 0x1A0 PUSH2 0x2B6 CALLDATASIZE PUSH1 0x4 PUSH2 0x380B JUMP JUMPDEST PUSH2 0xFC0 JUMP JUMPDEST CALLVALUE DUP1 ISZERO PUSH2 0x2C7 JUMPI PUSH1 0x0 DUP1 REVERT JUMPDEST POP PUSH2 0x1A0 PUSH2 0x127A JUMP JUMPDEST PUSH2 0x1A0 PUSH2 0x2DE CALLDATASIZE PUSH1 0x4 PUSH2 0x3965 JUMP JUMPDEST PUSH2 0x12EF JUMP JUMPDEST CALLVALUE DUP1 ISZERO PUSH2 0x2EF JUMPI PUSH1 0x0 DUP1 REVERT JUMPDEST POP PUSH1 0x0 SLOAD PUSH1 0x1 PUSH1 0x1 PUSH1 0xA0 SHL SUB AND JUMPDEST PUSH1 0x40 MLOAD PUSH1 0x1 PUSH1 0x1 PUSH1 0xA0 SHL SUB SWAP1 SWAP2 AND DUP2 MSTORE PUSH1 0x20 ADD PUSH2 0x1D4 JUMP JUMPDEST CALLVALUE DUP1 ISZERO PUSH2 0x321 JUMPI PUSH1 0x0 DUP1 REVERT JUMPDEST POP PUSH2 0x1A0 PUSH2 0x330 CALLDATASIZE PUSH1 0x4 PUSH2 0x3A8E JUMP JUMPDEST PUSH2 0x16CF JUMP JUMPDEST PUSH2 0x1C7 PUSH2 0x343 CALLDATASIZE PUSH1 0x4 PUSH2 0x3965 JUMP JUMPDEST PUSH2 0x19EE JUMP JUMPDEST CALLVALUE DUP1 ISZERO PUSH2 0x354 JUMPI PUSH1 0x0 DUP1 REVERT JUMPDEST POP PUSH2 0x2FD PUSH32 0x0 DUP2 JUMP JUMPDEST CALLVALUE DUP1 ISZERO PUSH2 0x388 JUMPI PUSH1 0x0 DUP1 REVERT JUMPDEST POP PUSH2 0x1C7 PUSH2 0x397 CALLDATASIZE PUSH1 0x4 PUSH2 0x39D8 JUMP JUMPDEST PUSH2 0x1E10 JUMP JUMPDEST CALLVALUE DUP1 ISZERO PUSH2 0x3A8 JUMPI PUSH1 0x0 DUP1 REVERT JUMPDEST POP PUSH2 0x1C7 PUSH2 0x3B7 CALLDATASIZE PUSH1 0x4 PUSH2 0x3A8E JUMP JUMPDEST PUSH2 0x1ED8 JUMP JUMPDEST CALLVALUE DUP1 ISZERO PUSH2 0x3C8 JUMPI PUSH1 0x0 DUP1 REVERT JUMPDEST POP PUSH2 0x1C7 PUSH2 0x3D7 CALLDATASIZE PUSH1 0x4 PUSH2 0x3A8E JUMP JUMPDEST PUSH2 0x213A JUMP JUMPDEST CALLVALUE DUP1 ISZERO PUSH2 0x3E8 JUMPI PUSH1 0x0 DUP1 REVERT JUMPDEST POP PUSH2 0x1A0 PUSH2 0x3F7 CALLDATASIZE PUSH1 0x4 PUSH2 0x36FE JUMP JUMPDEST PUSH2 0x2335 JUMP JUMPDEST CALLVALUE DUP1 ISZERO PUSH2 0x408 JUMPI PUSH1 0x0 DUP1 REVERT JUMPDEST POP PUSH2 0x1C7 PUSH2 0x417 CALLDATASIZE PUSH1 0x4 PUSH2 0x3A8E JUMP JUMPDEST PUSH2 0x2426 JUMP JUMPDEST CALLVALUE DUP1 ISZERO PUSH2 0x428 JUMPI PUSH1 0x0 DUP1 REVERT JUMPDEST POP PUSH2 0x1C7 PUSH2 0x437 CALLDATASIZE PUSH1 0x4 PUSH2 0x39D8 JUMP JUMPDEST PUSH2 0x25D7 JUMP JUMPDEST PUSH2 0x1C7 PUSH2 0x44A CALLDATASIZE PUSH1 0x4 PUSH2 0x3965 JUMP JUMPDEST PUSH2 0x2643 JUMP JUMPDEST PUSH1 0x60 DUP2 TIMESTAMP DUP2 LT ISZERO PUSH2 0x4A7 JUMPI PUSH1 0x40 MLOAD PUSH3 0x461BCD PUSH1 0xE5 SHL DUP2 MSTORE PUSH1 0x20 PUSH1 0x4 DUP3 ADD MSTORE PUSH1 0x16 PUSH1 0x24 DUP3 ADD MSTORE PUSH32 0x506F7274696679526F757465723A204558504952454400000000000000000000 PUSH1 0x44 DUP3 ADD MSTORE PUSH1 0x64 ADD JUMPDEST PUSH1 0x40 MLOAD DUP1 SWAP2 SUB SWAP1 REVERT JUMPDEST PUSH1 0x1 PUSH1 0x1 PUSH1 0xA0 SHL SUB PUSH32 0x0 AND DUP7 DUP7 PUSH2 0x4DE PUSH1 0x1 DUP3 PUSH2 0x3EC6 JUMP JUMPDEST DUP2 DUP2 LT PUSH2 0x4ED JUMPI PUSH2 0x4ED PUSH2 0x4023 JUMP JUMPDEST SWAP1 POP PUSH1 0x20 MUL ADD PUSH1 0x20 DUP2 ADD SWAP1 PUSH2 0x502 SWAP2 SWAP1 PUSH2 0x36FE JUMP JUMPDEST PUSH1 0x1 PUSH1 0x1 PUSH1 0xA0 SHL SUB AND EQ PUSH2 0x558 JUMPI PUSH1 0x40 MLOAD PUSH3 0x461BCD PUSH1 0xE5 SHL DUP2 MSTORE PUSH1 0x20 PUSH1 0x4 DUP3 ADD MSTORE PUSH1 0x1B PUSH1 0x24 DUP3 ADD MSTORE PUSH32 0x506F7274696679526F757465723A20494E56414C49445F504154480000000000 PUSH1 0x44 DUP3 ADD MSTORE PUSH1 0x64 ADD PUSH2 0x49E JUMP JUMPDEST PUSH1 0x1 DUP10 DUP2 SLOAD DUP2 LT PUSH2 0x56B JUMPI PUSH2 0x56B PUSH2 0x4023 JUMP JUMPDEST PUSH1 0x0 SWAP2 DUP3 MSTORE PUSH1 0x20 SWAP1 SWAP2 KECCAK256 PUSH1 0x4 SWAP2 DUP3 MUL ADD SLOAD PUSH1 0x40 MLOAD PUSH32 0x1F00CA7400000000000000000000000000000000000000000000000000000000 DUP2 MSTORE PUSH1 0x1 PUSH1 0x1 PUSH1 0xA0 SHL SUB SWAP1 SWAP2 AND SWAP2 PUSH4 0x1F00CA74 SWAP2 PUSH2 0x5C4 SWAP2 DUP13 SWAP2 DUP12 SWAP2 DUP12 SWAP2 ADD PUSH2 0x3D5F JUMP JUMPDEST PUSH1 0x0 PUSH1 0x40 MLOAD DUP1 DUP4 SUB DUP2 DUP7 DUP1 EXTCODESIZE ISZERO DUP1 ISZERO PUSH2 0x5DC JUMPI PUSH1 0x0 DUP1 REVERT JUMPDEST POP GAS STATICCALL ISZERO DUP1 ISZERO PUSH2 0x5F0 JUMPI RETURNDATASIZE PUSH1 0x0 DUP1 RETURNDATACOPY RETURNDATASIZE PUSH1 0x0 REVERT JUMPDEST POP POP POP POP PUSH1 0x40 MLOAD RETURNDATASIZE PUSH1 0x0 DUP3 RETURNDATACOPY PUSH1 0x1F RETURNDATASIZE SWAP1 DUP2 ADD PUSH1 0x1F NOT AND DUP3 ADD PUSH1 0x40 MSTORE PUSH2 0x618 SWAP2 SWAP1 DUP2 ADD SWAP1 PUSH2 0x373F JUMP JUMPDEST SWAP2 POP DUP7 DUP3 PUSH1 0x0 DUP2 MLOAD DUP2 LT PUSH2 0x62E JUMPI PUSH2 0x62E PUSH2 0x4023 JUMP JUMPDEST PUSH1 0x20 MUL PUSH1 0x20 ADD ADD MLOAD GT ISZERO PUSH2 0x6AA JUMPI PUSH1 0x40 MLOAD PUSH3 0x461BCD PUSH1 0xE5 SHL DUP2 MSTORE PUSH1 0x20 PUSH1 0x4 DUP3 ADD MSTORE PUSH1 0x25 PUSH1 0x24 DUP3 ADD MSTORE PUSH32 0x506F7274696679526F757465723A204558434553534956455F494E5055545F41 PUSH1 0x44 DUP3 ADD MSTORE PUSH32 0x4D4F554E54000000000000000000000000000000000000000000000000000000 PUSH1 0x64 DUP3 ADD MSTORE PUSH1 0x84 ADD PUSH2 0x49E JUMP JUMPDEST PUSH2 0x74F DUP7 DUP7 PUSH1 0x0 DUP2 DUP2 LT PUSH2 0x6C0 JUMPI PUSH2 0x6C0 PUSH2 0x4023 JUMP JUMPDEST SWAP1 POP PUSH1 0x20 MUL ADD PUSH1 0x20 DUP2 ADD SWAP1 PUSH2 0x6D5 SWAP2 SWAP1 PUSH2 0x36FE JUMP JUMPDEST CALLER PUSH2 0x72F DUP13 DUP11 DUP11 PUSH1 0x0 DUP2 DUP2 LT PUSH2 0x6ED JUMPI PUSH2 0x6ED PUSH2 0x4023 JUMP JUMPDEST SWAP1 POP PUSH1 0x20 MUL ADD PUSH1 0x20 DUP2 ADD SWAP1 PUSH2 0x702 SWAP2 SWAP1 PUSH2 0x36FE JUMP JUMPDEST DUP12 DUP12 PUSH1 0x1 DUP2 DUP2 LT PUSH2 0x715 JUMPI PUSH2 0x715 PUSH2 0x4023 JUMP JUMPDEST SWAP1 POP PUSH1 0x20 MUL ADD PUSH1 0x20 DUP2 ADD SWAP1 PUSH2 0x72A SWAP2 SWAP1 PUSH2 0x36FE JUMP JUMPDEST PUSH2 0x2A9F JUMP JUMPDEST DUP6 PUSH1 0x0 DUP2 MLOAD DUP2 LT PUSH2 0x742 JUMPI PUSH2 0x742 PUSH2 0x4023 JUMP JUMPDEST PUSH1 0x20 MUL PUSH1 0x20 ADD ADD MLOAD PUSH2 0x2BF3 JUMP JUMPDEST PUSH2 0x78F DUP10 DUP4 DUP9 DUP9 DUP1 DUP1 PUSH1 0x20 MUL PUSH1 0x20 ADD PUSH1 0x40 MLOAD SWAP1 DUP2 ADD PUSH1 0x40 MSTORE DUP1 SWAP4 SWAP3 SWAP2 SWAP1 DUP2 DUP2 MSTORE PUSH1 0x20 ADD DUP4 DUP4 PUSH1 0x20 MUL DUP1 DUP3 DUP5 CALLDATACOPY PUSH1 0x0 SWAP3 ADD SWAP2 SWAP1 SWAP2 MSTORE POP ADDRESS SWAP3 POP PUSH2 0x2D6B SWAP2 POP POP JUMP JUMPDEST PUSH32 0x0 PUSH1 0x1 PUSH1 0x1 PUSH1 0xA0 SHL SUB AND PUSH4 0x2E1A7D4D DUP4 PUSH1 0x1 DUP6 MLOAD PUSH2 0x7CD SWAP2 SWAP1 PUSH2 0x3EC6 JUMP JUMPDEST DUP2 MLOAD DUP2 LT PUSH2 0x7DD JUMPI PUSH2 0x7DD PUSH2 0x4023 JUMP JUMPDEST PUSH1 0x20 MUL PUSH1 0x20 ADD ADD MLOAD PUSH1 0x40 MLOAD DUP3 PUSH4 0xFFFFFFFF AND PUSH1 0xE0 SHL DUP2 MSTORE PUSH1 0x4 ADD PUSH2 0x803 SWAP2 DUP2 MSTORE PUSH1 0x20 ADD SWAP1 JUMP JUMPDEST PUSH1 0x0 PUSH1 0x40 MLOAD DUP1 DUP4 SUB DUP2 PUSH1 0x0 DUP8 DUP1 EXTCODESIZE ISZERO DUP1 ISZERO PUSH2 0x81D JUMPI PUSH1 0x0 DUP1 REVERT JUMPDEST POP GAS CALL ISZERO DUP1 ISZERO PUSH2 0x831 JUMPI RETURNDATASIZE PUSH1 0x0 DUP1 RETURNDATACOPY RETURNDATASIZE PUSH1 0x0 REVERT JUMPDEST POP POP POP POP PUSH2 0x865 DUP5 DUP4 PUSH1 0x1 DUP6 MLOAD PUSH2 0x848 SWAP2 SWAP1 PUSH2 0x3EC6 JUMP JUMPDEST DUP2 MLOAD DUP2 LT PUSH2 0x858 JUMPI PUSH2 0x858 PUSH2 0x4023 JUMP JUMPDEST PUSH1 0x20 MUL PUSH1 0x20 ADD ADD MLOAD PUSH2 0x2F34 JUMP JUMPDEST POP SWAP8 SWAP7 POP POP POP POP POP POP POP JUMP JUMPDEST DUP1 TIMESTAMP DUP2 LT ISZERO PUSH2 0x8C2 JUMPI PUSH1 0x40 MLOAD PUSH3 0x461BCD PUSH1 0xE5 SHL DUP2 MSTORE PUSH1 0x20 PUSH1 0x4 DUP3 ADD MSTORE PUSH1 0x16 PUSH1 0x24 DUP3 ADD MSTORE PUSH32 0x506F7274696679526F757465723A204558504952454400000000000000000000 PUSH1 0x44 DUP3 ADD MSTORE PUSH1 0x64 ADD PUSH2 0x49E JUMP JUMPDEST PUSH2 0x933 DUP6 DUP6 PUSH1 0x0 DUP2 DUP2 LT PUSH2 0x8D8 JUMPI PUSH2 0x8D8 PUSH2 0x4023 JUMP JUMPDEST SWAP1 POP PUSH1 0x20 MUL ADD PUSH1 0x20 DUP2 ADD SWAP1 PUSH2 0x8ED SWAP2 SWAP1 PUSH2 0x36FE JUMP JUMPDEST CALLER PUSH2 0x92D DUP12 DUP10 DUP10 PUSH1 0x0 DUP2 DUP2 LT PUSH2 0x905 JUMPI PUSH2 0x905 PUSH2 0x4023 JUMP JUMPDEST SWAP1 POP PUSH1 0x20 MUL ADD PUSH1 0x20 DUP2 ADD SWAP1 PUSH2 0x91A SWAP2 SWAP1 PUSH2 0x36FE JUMP JUMPDEST DUP11 DUP11 PUSH1 0x1 DUP2 DUP2 LT PUSH2 0x715 JUMPI PUSH2 0x715 PUSH2 0x4023 JUMP JUMPDEST DUP11 PUSH2 0x2BF3 JUMP JUMPDEST PUSH1 0x0 DUP6 DUP6 PUSH2 0x942 PUSH1 0x1 DUP3 PUSH2 0x3EC6 JUMP JUMPDEST DUP2 DUP2 LT PUSH2 0x951 JUMPI PUSH2 0x951 PUSH2 0x4023 JUMP JUMPDEST SWAP1 POP PUSH1 0x20 MUL ADD PUSH1 0x20 DUP2 ADD SWAP1 PUSH2 0x966 SWAP2 SWAP1 PUSH2 0x36FE JUMP JUMPDEST PUSH1 0x40 MLOAD PUSH32 0x70A0823100000000000000000000000000000000000000000000000000000000 DUP2 MSTORE PUSH1 0x1 PUSH1 0x1 PUSH1 0xA0 SHL SUB DUP7 DUP2 AND PUSH1 0x4 DUP4 ADD MSTORE SWAP2 SWAP1 SWAP2 AND SWAP1 PUSH4 0x70A08231 SWAP1 PUSH1 0x24 ADD PUSH1 0x20 PUSH1 0x40 MLOAD DUP1 DUP4 SUB DUP2 DUP7 DUP1 EXTCODESIZE ISZERO DUP1 ISZERO PUSH2 0x9C2 JUMPI PUSH1 0x0 DUP1 REVERT JUMPDEST POP GAS STATICCALL ISZERO DUP1 ISZERO PUSH2 0x9D6 JUMPI RETURNDATASIZE PUSH1 0x0 DUP1 RETURNDATACOPY RETURNDATASIZE PUSH1 0x0 REVERT JUMPDEST POP POP POP POP PUSH1 0x40 MLOAD RETURNDATASIZE PUSH1 0x1F NOT PUSH1 0x1F DUP3 ADD AND DUP3 ADD DUP1 PUSH1 0x40 MSTORE POP DUP2 ADD SWAP1 PUSH2 0x9FA SWAP2 SWAP1 PUSH2 0x37F2 JUMP JUMPDEST SWAP1 POP PUSH2 0xA3B DUP10 DUP8 DUP8 DUP1 DUP1 PUSH1 0x20 MUL PUSH1 0x20 ADD PUSH1 0x40 MLOAD SWAP1 DUP2 ADD PUSH1 0x40 MSTORE DUP1 SWAP4 SWAP3 SWAP2 SWAP1 DUP2 DUP2 MSTORE PUSH1 0x20 ADD DUP4 DUP4 PUSH1 0x20 MUL DUP1 DUP3 DUP5 CALLDATACOPY PUSH1 0x0 SWAP3 ADD SWAP2 SWAP1 SWAP2 MSTORE POP DUP10 SWAP3 POP PUSH2 0x301C SWAP2 POP POP JUMP JUMPDEST DUP7 DUP2 DUP8 DUP8 PUSH2 0xA4A PUSH1 0x1 DUP3 PUSH2 0x3EC6 JUMP JUMPDEST DUP2 DUP2 LT PUSH2 0xA59 JUMPI PUSH2 0xA59 PUSH2 0x4023 JUMP JUMPDEST SWAP1 POP PUSH1 0x20 MUL ADD PUSH1 0x20 DUP2 ADD SWAP1 PUSH2 0xA6E SWAP2 SWAP1 PUSH2 0x36FE JUMP JUMPDEST PUSH1 0x40 MLOAD PUSH32 0x70A0823100000000000000000000000000000000000000000000000000000000 DUP2 MSTORE PUSH1 0x1 PUSH1 0x1 PUSH1 0xA0 SHL SUB DUP9 DUP2 AND PUSH1 0x4 DUP4 ADD MSTORE SWAP2 SWAP1 SWAP2 AND SWAP1 PUSH4 0x70A08231 SWAP1 PUSH1 0x24 ADD JUMPDEST PUSH1 0x20 PUSH1 0x40 MLOAD DUP1 DUP4 SUB DUP2 DUP7 DUP1 EXTCODESIZE ISZERO DUP1 ISZERO PUSH2 0xACB JUMPI PUSH1 0x0 DUP1 REVERT JUMPDEST POP GAS STATICCALL ISZERO DUP1 ISZERO PUSH2 0xADF JUMPI RETURNDATASIZE PUSH1 0x0 DUP1 RETURNDATACOPY RETURNDATASIZE PUSH1 0x0 REVERT JUMPDEST POP POP POP POP PUSH1 0x40 MLOAD RETURNDATASIZE PUSH1 0x1F NOT PUSH1 0x1F DUP3 ADD AND DUP3 ADD DUP1 PUSH1 0x40 MSTORE POP DUP2 ADD SWAP1 PUSH2 0xB03 SWAP2 SWAP1 PUSH2 0x37F2 JUMP JUMPDEST PUSH2 0xB0D SWAP2 SWAP1 PUSH2 0x3EC6 JUMP JUMPDEST LT ISZERO PUSH2 0xB81 JUMPI PUSH1 0x40 MLOAD PUSH3 0x461BCD PUSH1 0xE5 SHL DUP2 MSTORE PUSH1 0x20 PUSH1 0x4 DUP3 ADD MSTORE PUSH1 0x29 PUSH1 0x24 DUP3 ADD MSTORE PUSH32 0x506F7274696679526F757465723A20494E53554646494349454E545F4F555450 PUSH1 0x44 DUP3 ADD MSTORE PUSH32 0x55545F414D4F554E540000000000000000000000000000000000000000000000 PUSH1 0x64 DUP3 ADD MSTORE PUSH1 0x84 ADD PUSH2 0x49E JUMP JUMPDEST POP POP POP POP POP POP POP POP POP JUMP JUMPDEST CALLER PUSH2 0xB9F PUSH1 0x0 SLOAD PUSH1 0x1 PUSH1 0x1 PUSH1 0xA0 SHL SUB AND SWAP1 JUMP JUMPDEST PUSH1 0x1 PUSH1 0x1 PUSH1 0xA0 SHL SUB AND EQ PUSH2 0xBF5 JUMPI PUSH1 0x40 MLOAD PUSH3 0x461BCD PUSH1 0xE5 SHL DUP2 MSTORE PUSH1 0x20 PUSH1 0x4 DUP3 ADD DUP2 SWAP1 MSTORE PUSH1 0x24 DUP3 ADD MSTORE PUSH32 0x4F776E61626C653A2063616C6C6572206973206E6F7420746865206F776E6572 PUSH1 0x44 DUP3 ADD MSTORE PUSH1 0x64 ADD PUSH2 0x49E JUMP JUMPDEST PUSH32 0x6F42797B737F51226BF9946FB22052D33E5AD3D5BDFD88AC38F73C375F35B1A0 PUSH1 0x1 DUP3 DUP2 SLOAD DUP2 LT PUSH2 0xC29 JUMPI PUSH2 0xC29 PUSH2 0x4023 JUMP JUMPDEST SWAP1 PUSH1 0x0 MSTORE PUSH1 0x20 PUSH1 0x0 KECCAK256 SWAP1 PUSH1 0x4 MUL ADD PUSH1 0x40 MLOAD PUSH2 0xC44 SWAP2 SWAP1 PUSH2 0x3C4C JUMP JUMPDEST PUSH1 0x40 MLOAD DUP1 SWAP2 SUB SWAP1 LOG1 PUSH1 0x1 DUP1 SLOAD PUSH2 0xC5B SWAP1 DUP3 SWAP1 PUSH2 0x3EC6 JUMP JUMPDEST DUP2 SLOAD DUP2 LT PUSH2 0xC6B JUMPI PUSH2 0xC6B PUSH2 0x4023 JUMP JUMPDEST SWAP1 PUSH1 0x0 MSTORE PUSH1 0x20 PUSH1 0x0 KECCAK256 SWAP1 PUSH1 0x4 MUL ADD PUSH1 0x1 DUP3 DUP2 SLOAD DUP2 LT PUSH2 0xC8C JUMPI PUSH2 0xC8C PUSH2 0x4023 JUMP JUMPDEST PUSH1 0x0 SWAP2 DUP3 MSTORE PUSH1 0x20 SWAP1 SWAP2 KECCAK256 DUP3 SLOAD PUSH1 0x4 SWAP1 SWAP3 MUL ADD DUP1 SLOAD PUSH1 0x1 PUSH1 0x1 PUSH1 0xA0 SHL SUB SWAP3 DUP4 AND PUSH32 0xFFFFFFFFFFFFFFFFFFFFFFFF0000000000000000000000000000000000000000 SWAP2 DUP3 AND OR DUP3 SSTORE PUSH1 0x1 DUP1 DUP6 ADD SLOAD SWAP1 DUP4 ADD DUP1 SLOAD SWAP2 SWAP1 SWAP5 AND SWAP2 AND OR SWAP1 SWAP2 SSTORE PUSH1 0x2 DUP1 DUP4 ADD SLOAD SWAP1 DUP3 ADD SSTORE PUSH1 0x3 DUP1 DUP4 ADD DUP1 SLOAD SWAP2 DUP4 ADD SWAP2 PUSH2 0xD05 SWAP1 PUSH2 0x3F09 JUMP JUMPDEST PUSH2 0xD10 SWAP3 SWAP2 SWAP1 PUSH2 0x3548 JUMP JUMPDEST POP SWAP1 POP POP PUSH1 0x1 DUP1 SLOAD DUP1 PUSH2 0xD25 JUMPI PUSH2 0xD25 PUSH2 0x3FF4 JUMP JUMPDEST PUSH1 0x0 DUP3 DUP2 MSTORE PUSH1 0x20 DUP2 KECCAK256 PUSH1 0x4 PUSH32 0xFFFFFFFFFFFFFFFFFFFFFFFFFFFFFFFFFFFFFFFFFFFFFFFFFFFFFFFFFFFFFFFF SWAP1 SWAP4 ADD SWAP3 DUP4 MUL ADD DUP1 SLOAD PUSH32 0xFFFFFFFFFFFFFFFFFFFFFFFF0000000000000000000000000000000000000000 SWAP1 DUP2 AND DUP3 SSTORE PUSH1 0x1 DUP3 ADD DUP1 SLOAD SWAP1 SWAP2 AND SWAP1 SSTORE PUSH1 0x2 DUP2 ADD DUP3 SWAP1 SSTORE SWAP1 PUSH2 0xDA0 PUSH1 0x3 DUP4 ADD DUP3 PUSH2 0x35D3 JUMP JUMPDEST POP POP SWAP1 SSTORE POP JUMP JUMPDEST PUSH1 0x1 DUP2 DUP2 SLOAD DUP2 LT PUSH2 0xDB7 JUMPI PUSH1 0x0 DUP1 REVERT JUMPDEST PUSH1 0x0 SWAP2 DUP3 MSTORE PUSH1 0x20 SWAP1 SWAP2 KECCAK256 PUSH1 0x4 SWAP1 SWAP2 MUL ADD DUP1 SLOAD PUSH1 0x1 DUP3 ADD SLOAD PUSH1 0x2 DUP4 ADD SLOAD PUSH1 0x3 DUP5 ADD DUP1 SLOAD PUSH1 0x1 PUSH1 0x1 PUSH1 0xA0 SHL SUB SWAP5 DUP6 AND SWAP7 POP SWAP3 SWAP1 SWAP4 AND SWAP4 SWAP1 SWAP3 SWAP1 SWAP2 PUSH2 0xDF8 SWAP1 PUSH2 0x3F09 JUMP JUMPDEST DUP1 PUSH1 0x1F ADD PUSH1 0x20 DUP1 SWAP2 DIV MUL PUSH1 0x20 ADD PUSH1 0x40 MLOAD SWAP1 DUP2 ADD PUSH1 0x40 MSTORE DUP1 SWAP3 SWAP2 SWAP1 DUP2 DUP2 MSTORE PUSH1 0x20 ADD DUP3 DUP1 SLOAD PUSH2 0xE24 SWAP1 PUSH2 0x3F09 JUMP JUMPDEST DUP1 ISZERO PUSH2 0xE71 JUMPI DUP1 PUSH1 0x1F LT PUSH2 0xE46 JUMPI PUSH2 0x100 DUP1 DUP4 SLOAD DIV MUL DUP4 MSTORE SWAP2 PUSH1 0x20 ADD SWAP2 PUSH2 0xE71 JUMP JUMPDEST DUP3 ADD SWAP2 SWAP1 PUSH1 0x0 MSTORE PUSH1 0x20 PUSH1 0x0 KECCAK256 SWAP1 JUMPDEST DUP2 SLOAD DUP2 MSTORE SWAP1 PUSH1 0x1 ADD SWAP1 PUSH1 0x20 ADD DUP1 DUP4 GT PUSH2 0xE54 JUMPI DUP3 SWAP1 SUB PUSH1 0x1F AND DUP3 ADD SWAP2 JUMPDEST POP POP POP POP POP SWAP1 POP DUP5 JUMP JUMPDEST PUSH1 0x0 PUSH1 0x1 DUP6 DUP2 SLOAD DUP2 LT PUSH2 0xE90 JUMPI PUSH2 0xE90 PUSH2 0x4023 JUMP JUMPDEST PUSH1 0x0 SWAP2 DUP3 MSTORE PUSH1 0x20 SWAP1 SWAP2 KECCAK256 PUSH1 0x4 SWAP2 DUP3 MUL ADD SLOAD PUSH1 0x40 MLOAD PUSH32 0x54D50D400000000000000000000000000000000000000000000000000000000 DUP2 MSTORE SWAP2 DUP3 ADD DUP7 SWAP1 MSTORE PUSH1 0x24 DUP3 ADD DUP6 SWAP1 MSTORE PUSH1 0x44 DUP3 ADD DUP5 SWAP1 MSTORE PUSH1 0x1 PUSH1 0x1 PUSH1 0xA0 SHL SUB AND SWAP1 PUSH4 0x54D50D4 SWAP1 PUSH1 0x64 ADD JUMPDEST PUSH1 0x20 PUSH1 0x40 MLOAD DUP1 DUP4 SUB DUP2 DUP7 DUP1 EXTCODESIZE ISZERO DUP1 ISZERO PUSH2 0xF07 JUMPI PUSH1 0x0 DUP1 REVERT JUMPDEST POP GAS STATICCALL ISZERO DUP1 ISZERO PUSH2 0xF1B JUMPI RETURNDATASIZE PUSH1 0x0 DUP1 RETURNDATACOPY RETURNDATASIZE PUSH1 0x0 REVERT JUMPDEST POP POP POP POP PUSH1 0x40 MLOAD RETURNDATASIZE PUSH1 0x1F NOT PUSH1 0x1F DUP3 ADD AND DUP3 ADD DUP1 PUSH1 0x40 MSTORE POP DUP2 ADD SWAP1 PUSH2 0xF3F SWAP2 SWAP1 PUSH2 0x37F2 JUMP JUMPDEST SWAP6 SWAP5 POP POP POP POP POP JUMP JUMPDEST PUSH1 0x0 PUSH1 0x1 DUP6 DUP2 SLOAD DUP2 LT PUSH2 0xF5D JUMPI PUSH2 0xF5D PUSH2 0x4023 JUMP JUMPDEST PUSH1 0x0 SWAP2 DUP3 MSTORE PUSH1 0x20 SWAP1 SWAP2 KECCAK256 PUSH1 0x4 SWAP2 DUP3 MUL ADD SLOAD PUSH1 0x40 MLOAD PUSH32 0x85F8C25900000000000000000000000000000000000000000000000000000000 DUP2 MSTORE SWAP2 DUP3 ADD DUP7 SWAP1 MSTORE PUSH1 0x24 DUP3 ADD DUP6 SWAP1 MSTORE PUSH1 0x44 DUP3 ADD DUP5 SWAP1 MSTORE PUSH1 0x1 PUSH1 0x1 PUSH1 0xA0 SHL SUB AND SWAP1 PUSH4 0x85F8C259 SWAP1 PUSH1 0x64 ADD PUSH2 0xEEF JUMP JUMPDEST CALLER PUSH2 0xFD3 PUSH1 0x0 SLOAD PUSH1 0x1 PUSH1 0x1 PUSH1 0xA0 SHL SUB AND SWAP1 JUMP JUMPDEST PUSH1 0x1 PUSH1 0x1 PUSH1 0xA0 SHL SUB AND EQ PUSH2 0x1029 JUMPI PUSH1 0x40 MLOAD PUSH3 0x461BCD PUSH1 0xE5 SHL DUP2 MSTORE PUSH1 0x20 PUSH1 0x4 DUP3 ADD DUP2 SWAP1 MSTORE PUSH1 0x24 DUP3 ADD MSTORE PUSH32 0x4F776E61626C653A2063616C6C6572206973206E6F7420746865206F776E6572 PUSH1 0x44 DUP3 ADD MSTORE PUSH1 0x64 ADD PUSH2 0x49E JUMP JUMPDEST DUP1 PUSH1 0x0 ADD MLOAD PUSH1 0x1 PUSH1 0x1 PUSH1 0xA0 SHL SUB AND PUSH4 0xC45A0155 PUSH1 0x40 MLOAD DUP2 PUSH4 0xFFFFFFFF AND PUSH1 0xE0 SHL DUP2 MSTORE PUSH1 0x4 ADD PUSH1 0x20 PUSH1 0x40 MLOAD DUP1 DUP4 SUB DUP2 DUP7 DUP1 EXTCODESIZE ISZERO DUP1 ISZERO PUSH2 0x1066 JUMPI PUSH1 0x0 DUP1 REVERT JUMPDEST POP GAS STATICCALL ISZERO DUP1 ISZERO PUSH2 0x107A JUMPI RETURNDATASIZE PUSH1 0x0 DUP1 RETURNDATACOPY RETURNDATASIZE PUSH1 0x0 REVERT JUMPDEST POP POP POP POP PUSH1 0x40 MLOAD RETURNDATASIZE PUSH1 0x1F NOT PUSH1 0x1F DUP3 ADD AND DUP3 ADD DUP1 PUSH1 0x40 MSTORE POP DUP2 ADD SWAP1 PUSH2 0x109E SWAP2 SWAP1 PUSH2 0x3722 JUMP JUMPDEST PUSH1 0x1 PUSH1 0x1 PUSH1 0xA0 SHL SUB AND PUSH1 0x20 DUP1 DUP4 ADD DUP3 SWAP1 MSTORE PUSH1 0x40 DUP1 MLOAD PUSH32 0x5855A25A00000000000000000000000000000000000000000000000000000000 DUP2 MSTORE SWAP1 MLOAD PUSH4 0x5855A25A SWAP3 PUSH1 0x4 DUP1 DUP5 ADD SWAP4 SWAP2 SWAP3 SWAP2 DUP3 SWAP1 SUB ADD DUP2 DUP7 DUP1 EXTCODESIZE ISZERO DUP1 ISZERO PUSH2 0x10FB JUMPI PUSH1 0x0 DUP1 REVERT JUMPDEST POP GAS STATICCALL ISZERO DUP1 ISZERO PUSH2 0x110F JUMPI RETURNDATASIZE PUSH1 0x0 DUP1 RETURNDATACOPY RETURNDATASIZE PUSH1 0x0 REVERT JUMPDEST POP POP POP POP PUSH1 0x40 MLOAD RETURNDATASIZE PUSH1 0x1F NOT PUSH1 0x1F DUP3 ADD AND DUP3 ADD DUP1 PUSH1 0x40 MSTORE POP DUP2 ADD SWAP1 PUSH2 0x1133 SWAP2 SWAP1 PUSH2 0x37F2 JUMP JUMPDEST PUSH1 0x40 DUP3 ADD SWAP1 DUP2 MSTORE PUSH1 0x1 DUP1 SLOAD DUP1 DUP3 ADD DUP3 SSTORE PUSH1 0x0 SWAP2 SWAP1 SWAP2 MSTORE DUP3 MLOAD PUSH1 0x4 SWAP1 SWAP2 MUL PUSH32 0xB10E2D527612073B26EECDFD717E6A320CF44B4AFAC2B0732D9FCBE2B7FA0CF6 DUP2 ADD DUP1 SLOAD PUSH1 0x1 PUSH1 0x1 PUSH1 0xA0 SHL SUB SWAP4 DUP5 AND PUSH32 0xFFFFFFFFFFFFFFFFFFFFFFFF0000000000000000000000000000000000000000 SWAP2 DUP3 AND OR DUP3 SSTORE PUSH1 0x20 DUP1 DUP8 ADD MLOAD PUSH32 0xB10E2D527612073B26EECDFD717E6A320CF44B4AFAC2B0732D9FCBE2B7FA0CF7 DUP6 ADD DUP1 SLOAD SWAP2 SWAP1 SWAP7 AND SWAP3 AND SWAP2 SWAP1 SWAP2 OR SWAP1 SWAP4 SSTORE SWAP3 MLOAD PUSH32 0xB10E2D527612073B26EECDFD717E6A320CF44B4AFAC2B0732D9FCBE2B7FA0CF8 DUP3 ADD SSTORE PUSH1 0x60 DUP5 ADD MLOAD DUP1 MLOAD DUP6 SWAP5 SWAP4 PUSH2 0x123D SWAP4 PUSH32 0xB10E2D527612073B26EECDFD717E6A320CF44B4AFAC2B0732D9FCBE2B7FA0CF9 ADD SWAP3 ADD SWAP1 PUSH2 0x360D JUMP JUMPDEST POP POP POP PUSH32 0x2FD65A6BB51FD3E365A257D71D5BD076B21801A0198D49B8F93E4B42A9AB344A DUP2 PUSH1 0x40 MLOAD PUSH2 0x126F SWAP2 SWAP1 PUSH2 0x3C06 JUMP JUMPDEST PUSH1 0x40 MLOAD DUP1 SWAP2 SUB SWAP1 LOG1 POP JUMP JUMPDEST CALLER PUSH2 0x128D PUSH1 0x0 SLOAD PUSH1 0x1 PUSH1 0x1 PUSH1 0xA0 SHL SUB AND SWAP1 JUMP JUMPDEST PUSH1 0x1 PUSH1 0x1 PUSH1 0xA0 SHL SUB AND EQ PUSH2 0x12E3 JUMPI PUSH1 0x40 MLOAD PUSH3 0x461BCD PUSH1 0xE5 SHL DUP2 MSTORE PUSH1 0x20 PUSH1 0x4 DUP3 ADD DUP2 SWAP1 MSTORE PUSH1 0x24 DUP3 ADD MSTORE PUSH32 0x4F776E61626C653A2063616C6C6572206973206E6F7420746865206F776E6572 PUSH1 0x44 DUP3 ADD MSTORE PUSH1 0x64 ADD PUSH2 0x49E JUMP JUMPDEST PUSH2 0x12ED PUSH1 0x0 PUSH2 0x33D0 JUMP JUMPDEST JUMP JUMPDEST DUP1 TIMESTAMP DUP2 LT ISZERO PUSH2 0x1340 JUMPI PUSH1 0x40 MLOAD PUSH3 0x461BCD PUSH1 0xE5 SHL DUP2 MSTORE PUSH1 0x20 PUSH1 0x4 DUP3 ADD MSTORE PUSH1 0x16 PUSH1 0x24 DUP3 ADD MSTORE PUSH32 0x506F7274696679526F757465723A204558504952454400000000000000000000 PUSH1 0x44 DUP3 ADD MSTORE PUSH1 0x64 ADD PUSH2 0x49E JUMP JUMPDEST PUSH32 0x0 PUSH1 0x1 PUSH1 0x1 PUSH1 0xA0 SHL SUB AND DUP6 DUP6 PUSH1 0x0 DUP2 DUP2 LT PUSH2 0x137D JUMPI PUSH2 0x137D PUSH2 0x4023 JUMP JUMPDEST SWAP1 POP PUSH1 0x20 MUL ADD PUSH1 0x20 DUP2 ADD SWAP1 PUSH2 0x1392 SWAP2 SWAP1 PUSH2 0x36FE JUMP JUMPDEST PUSH1 0x1 PUSH1 0x1 PUSH1 0xA0 SHL SUB AND EQ PUSH2 0x13E8 JUMPI PUSH1 0x40 MLOAD PUSH3 0x461BCD PUSH1 0xE5 SHL DUP2 MSTORE PUSH1 0x20 PUSH1 0x4 DUP3 ADD MSTORE PUSH1 0x1B PUSH1 0x24 DUP3 ADD MSTORE PUSH32 0x506F7274696679526F757465723A20494E56414C49445F504154480000000000 PUSH1 0x44 DUP3 ADD MSTORE PUSH1 0x64 ADD PUSH2 0x49E JUMP JUMPDEST PUSH1 0x0 CALLVALUE SWAP1 POP PUSH32 0x0 PUSH1 0x1 PUSH1 0x1 PUSH1 0xA0 SHL SUB AND PUSH4 0xD0E30DB0 DUP3 PUSH1 0x40 MLOAD DUP3 PUSH4 0xFFFFFFFF AND PUSH1 0xE0 SHL DUP2 MSTORE PUSH1 0x4 ADD PUSH1 0x0 PUSH1 0x40 MLOAD DUP1 DUP4 SUB DUP2 DUP6 DUP9 DUP1 EXTCODESIZE ISZERO DUP1 ISZERO PUSH2 0x1448 JUMPI PUSH1 0x0 DUP1 REVERT JUMPDEST POP GAS CALL ISZERO DUP1 ISZERO PUSH2 0x145C JUMPI RETURNDATASIZE PUSH1 0x0 DUP1 RETURNDATACOPY RETURNDATASIZE PUSH1 0x0 REVERT JUMPDEST POP POP POP POP POP PUSH32 0x0 PUSH1 0x1 PUSH1 0x1 PUSH1 0xA0 SHL SUB AND PUSH4 0xA9059CBB PUSH2 0x14A7 DUP11 DUP10 DUP10 PUSH1 0x0 DUP2 DUP2 LT PUSH2 0x905 JUMPI PUSH2 0x905 PUSH2 0x4023 JUMP JUMPDEST PUSH1 0x40 MLOAD PUSH32 0xFFFFFFFF00000000000000000000000000000000000000000000000000000000 PUSH1 0xE0 DUP5 SWAP1 SHL AND DUP2 MSTORE PUSH1 0x1 PUSH1 0x1 PUSH1 0xA0 SHL SUB SWAP1 SWAP2 AND PUSH1 0x4 DUP3 ADD MSTORE PUSH1 0x24 DUP2 ADD DUP5 SWAP1 MSTORE PUSH1 0x44 ADD PUSH1 0x20 PUSH1 0x40 MLOAD DUP1 DUP4 SUB DUP2 PUSH1 0x0 DUP8 DUP1 EXTCODESIZE ISZERO DUP1 ISZERO PUSH2 0x1507 JUMPI PUSH1 0x0 DUP1 REVERT JUMPDEST POP GAS CALL ISZERO DUP1 ISZERO PUSH2 0x151B JUMPI RETURNDATASIZE PUSH1 0x0 DUP1 RETURNDATACOPY RETURNDATASIZE PUSH1 0x0 REVERT JUMPDEST POP POP POP POP PUSH1 0x40 MLOAD RETURNDATASIZE PUSH1 0x1F NOT PUSH1 0x1F DUP3 ADD AND DUP3 ADD DUP1 PUSH1 0x40 MSTORE POP DUP2 ADD SWAP1 PUSH2 0x153F SWAP2 SWAP1 PUSH2 0x37D0 JUMP JUMPDEST PUSH2 0x154B JUMPI PUSH2 0x154B PUSH2 0x3F96 JUMP JUMPDEST PUSH1 0x0 DUP7 DUP7 PUSH2 0x155A PUSH1 0x1 DUP3 PUSH2 0x3EC6 JUMP JUMPDEST DUP2 DUP2 LT PUSH2 0x1569 JUMPI PUSH2 0x1569 PUSH2 0x4023 JUMP JUMPDEST SWAP1 POP PUSH1 0x20 MUL ADD PUSH1 0x20 DUP2 ADD SWAP1 PUSH2 0x157E SWAP2 SWAP1 PUSH2 0x36FE JUMP JUMPDEST PUSH1 0x40 MLOAD PUSH32 0x70A0823100000000000000000000000000000000000000000000000000000000 DUP2 MSTORE PUSH1 0x1 PUSH1 0x1 PUSH1 0xA0 SHL SUB DUP8 DUP2 AND PUSH1 0x4 DUP4 ADD MSTORE SWAP2 SWAP1 SWAP2 AND SWAP1 PUSH4 0x70A08231 SWAP1 PUSH1 0x24 ADD PUSH1 0x20 PUSH1 0x40 MLOAD DUP1 DUP4 SUB DUP2 DUP7 DUP1 EXTCODESIZE ISZERO DUP1 ISZERO PUSH2 0x15DA JUMPI PUSH1 0x0 DUP1 REVERT JUMPDEST POP GAS STATICCALL ISZERO DUP1 ISZERO PUSH2 0x15EE JUMPI RETURNDATASIZE PUSH1 0x0 DUP1 RETURNDATACOPY RETURNDATASIZE PUSH1 0x0 REVERT JUMPDEST POP POP POP POP PUSH1 0x40 MLOAD RETURNDATASIZE PUSH1 0x1F NOT PUSH1 0x1F DUP3 ADD AND DUP3 ADD DUP1 PUSH1 0x40 MSTORE POP DUP2 ADD SWAP1 PUSH2 0x1612 SWAP2 SWAP1 PUSH2 0x37F2 JUMP JUMPDEST SWAP1 POP PUSH2 0x1653 DUP10 DUP9 DUP9 DUP1 DUP1 PUSH1 0x20 MUL PUSH1 0x20 ADD PUSH1 0x40 MLOAD SWAP1 DUP2 ADD PUSH1 0x40 MSTORE DUP1 SWAP4 SWAP3 SWAP2 SWAP1 DUP2 DUP2 MSTORE PUSH1 0x20 ADD DUP4 DUP4 PUSH1 0x20 MUL DUP1 DUP3 DUP5 CALLDATACOPY PUSH1 0x0 SWAP3 ADD SWAP2 SWAP1 SWAP2 MSTORE POP DUP11 SWAP3 POP PUSH2 0x301C SWAP2 POP POP JUMP JUMPDEST DUP8 DUP2 DUP9 DUP9 PUSH2 0x1662 PUSH1 0x1 DUP3 PUSH2 0x3EC6 JUMP JUMPDEST DUP2 DUP2 LT PUSH2 0x1671 JUMPI PUSH2 0x1671 PUSH2 0x4023 JUMP JUMPDEST SWAP1 POP PUSH1 0x20 MUL ADD PUSH1 0x20 DUP2 ADD SWAP1 PUSH2 0x1686 SWAP2 SWAP1 PUSH2 0x36FE JUMP JUMPDEST PUSH1 0x40 MLOAD PUSH32 0x70A0823100000000000000000000000000000000000000000000000000000000 DUP2 MSTORE PUSH1 0x1 PUSH1 0x1 PUSH1 0xA0 SHL SUB DUP10 DUP2 AND PUSH1 0x4 DUP4 ADD MSTORE SWAP2 SWAP1 SWAP2 AND SWAP1 PUSH4 0x70A08231 SWAP1 PUSH1 0x24 ADD PUSH2 0xAB3 JUMP JUMPDEST DUP1 TIMESTAMP DUP2 LT ISZERO PUSH2 0x1720 JUMPI PUSH1 0x40 MLOAD PUSH3 0x461BCD PUSH1 0xE5 SHL DUP2 MSTORE PUSH1 0x20 PUSH1 0x4 DUP3 ADD MSTORE PUSH1 0x16 PUSH1 0x24 DUP3 ADD MSTORE PUSH32 0x506F7274696679526F757465723A204558504952454400000000000000000000 PUSH1 0x44 DUP3 ADD MSTORE PUSH1 0x64 ADD PUSH2 0x49E JUMP JUMPDEST PUSH1 0x1 PUSH1 0x1 PUSH1 0xA0 SHL SUB PUSH32 0x0 AND DUP6 DUP6 PUSH2 0x1757 PUSH1 0x1 DUP3 PUSH2 0x3EC6 JUMP JUMPDEST DUP2 DUP2 LT PUSH2 0x1766 JUMPI PUSH2 0x1766 PUSH2 0x4023 JUMP JUMPDEST SWAP1 POP PUSH1 0x20 MUL ADD PUSH1 0x20 DUP2 ADD SWAP1 PUSH2 0x177B SWAP2 SWAP1 PUSH2 0x36FE JUMP JUMPDEST PUSH1 0x1 PUSH1 0x1 PUSH1 0xA0 SHL SUB AND EQ PUSH2 0x17D1 JUMPI PUSH1 0x40 MLOAD PUSH3 0x461BCD PUSH1 0xE5 SHL DUP2 MSTORE PUSH1 0x20 PUSH1 0x4 DUP3 ADD MSTORE PUSH1 0x1B PUSH1 0x24 DUP3 ADD MSTORE PUSH32 0x506F7274696679526F757465723A20494E56414C49445F504154480000000000 PUSH1 0x44 DUP3 ADD MSTORE PUSH1 0x64 ADD PUSH2 0x49E JUMP JUMPDEST PUSH2 0x17E7 DUP6 DUP6 PUSH1 0x0 DUP2 DUP2 LT PUSH2 0x8D8 JUMPI PUSH2 0x8D8 PUSH2 0x4023 JUMP JUMPDEST PUSH2 0x1826 DUP9 DUP7 DUP7 DUP1 DUP1 PUSH1 0x20 MUL PUSH1 0x20 ADD PUSH1 0x40 MLOAD SWAP1 DUP2 ADD PUSH1 0x40 MSTORE DUP1 SWAP4 SWAP3 SWAP2 SWAP1 DUP2 DUP2 MSTORE PUSH1 0x20 ADD DUP4 DUP4 PUSH1 0x20 MUL DUP1 DUP3 DUP5 CALLDATACOPY PUSH1 0x0 SWAP3 ADD SWAP2 SWAP1 SWAP2 MSTORE POP ADDRESS SWAP3 POP PUSH2 0x301C SWAP2 POP POP JUMP JUMPDEST PUSH1 0x40 MLOAD PUSH32 0x70A0823100000000000000000000000000000000000000000000000000000000 DUP2 MSTORE ADDRESS PUSH1 0x4 DUP3 ADD MSTORE PUSH1 0x0 SWAP1 PUSH32 0x0 PUSH1 0x1 PUSH1 0x1 PUSH1 0xA0 SHL SUB AND SWAP1 PUSH4 0x70A08231 SWAP1 PUSH1 0x24 ADD PUSH1 0x20 PUSH1 0x40 MLOAD DUP1 DUP4 SUB DUP2 DUP7 DUP1 EXTCODESIZE ISZERO DUP1 ISZERO PUSH2 0x18A1 JUMPI PUSH1 0x0 DUP1 REVERT JUMPDEST POP GAS STATICCALL ISZERO DUP1 ISZERO PUSH2 0x18B5 JUMPI RETURNDATASIZE PUSH1 0x0 DUP1 RETURNDATACOPY RETURNDATASIZE PUSH1 0x0 REVERT JUMPDEST POP POP POP POP PUSH1 0x40 MLOAD RETURNDATASIZE PUSH1 0x1F NOT PUSH1 0x1F DUP3 ADD AND DUP3 ADD DUP1 PUSH1 0x40 MSTORE POP DUP2 ADD SWAP1 PUSH2 0x18D9 SWAP2 SWAP1 PUSH2 0x37F2 JUMP JUMPDEST SWAP1 POP DUP7 DUP2 LT ISZERO PUSH2 0x1951 JUMPI PUSH1 0x40 MLOAD PUSH3 0x461BCD PUSH1 0xE5 SHL DUP2 MSTORE PUSH1 0x20 PUSH1 0x4 DUP3 ADD MSTORE PUSH1 0x29 PUSH1 0x24 DUP3 ADD MSTORE PUSH32 0x506F7274696679526F757465723A20494E53554646494349454E545F4F555450 PUSH1 0x44 DUP3 ADD MSTORE PUSH32 0x55545F414D4F554E540000000000000000000000000000000000000000000000 PUSH1 0x64 DUP3 ADD MSTORE PUSH1 0x84 ADD PUSH2 0x49E JUMP JUMPDEST PUSH1 0x40 MLOAD PUSH32 0x2E1A7D4D00000000000000000000000000000000000000000000000000000000 DUP2 MSTORE PUSH1 0x4 DUP2 ADD DUP3 SWAP1 MSTORE PUSH32 0x0 PUSH1 0x1 PUSH1 0x1 PUSH1 0xA0 SHL SUB AND SWAP1 PUSH4 0x2E1A7D4D SWAP1 PUSH1 0x24 ADD PUSH1 0x0 PUSH1 0x40 MLOAD DUP1 DUP4 SUB DUP2 PUSH1 0x0 DUP8 DUP1 EXTCODESIZE ISZERO DUP1 ISZERO PUSH2 0x19CC JUMPI PUSH1 0x0 DUP1 REVERT JUMPDEST POP GAS CALL ISZERO DUP1 ISZERO PUSH2 0x19E0 JUMPI RETURNDATASIZE PUSH1 0x0 DUP1 RETURNDATACOPY RETURNDATASIZE PUSH1 0x0 REVERT JUMPDEST POP POP POP POP PUSH2 0xB81 DUP5 DUP3 PUSH2 0x2F34 JUMP JUMPDEST PUSH1 0x60 DUP2 TIMESTAMP DUP2 LT ISZERO PUSH2 0x1A41 JUMPI PUSH1 0x40 MLOAD PUSH3 0x461BCD PUSH1 0xE5 SHL DUP2 MSTORE PUSH1 0x20 PUSH1 0x4 DUP3 ADD MSTORE PUSH1 0x16 PUSH1 0x24 DUP3 ADD MSTORE PUSH32 0x506F7274696679526F757465723A204558504952454400000000000000000000 PUSH1 0x44 DUP3 ADD MSTORE PUSH1 0x64 ADD PUSH2 0x49E JUMP JUMPDEST PUSH32 0x0 PUSH1 0x1 PUSH1 0x1 PUSH1 0xA0 SHL SUB AND DUP7 DUP7 PUSH1 0x0 DUP2 DUP2 LT PUSH2 0x1A7E JUMPI PUSH2 0x1A7E PUSH2 0x4023 JUMP JUMPDEST SWAP1 POP PUSH1 0x20 MUL ADD PUSH1 0x20 DUP2 ADD SWAP1 PUSH2 0x1A93 SWAP2 SWAP1 PUSH2 0x36FE JUMP JUMPDEST PUSH1 0x1 PUSH1 0x1 PUSH1 0xA0 SHL SUB AND EQ PUSH2 0x1AE9 JUMPI PUSH1 0x40 MLOAD PUSH3 0x461BCD PUSH1 0xE5 SHL DUP2 MSTORE PUSH1 0x20 PUSH1 0x4 DUP3 ADD MSTORE PUSH1 0x1B PUSH1 0x24 DUP3 ADD MSTORE PUSH32 0x506F7274696679526F757465723A20494E56414C49445F504154480000000000 PUSH1 0x44 DUP3 ADD MSTORE PUSH1 0x64 ADD PUSH2 0x49E JUMP JUMPDEST PUSH1 0x1 DUP9 DUP2 SLOAD DUP2 LT PUSH2 0x1AFC JUMPI PUSH2 0x1AFC PUSH2 0x4023 JUMP JUMPDEST PUSH1 0x0 SWAP2 DUP3 MSTORE PUSH1 0x20 SWAP1 SWAP2 KECCAK256 PUSH1 0x4 SWAP2 DUP3 MUL ADD SLOAD PUSH1 0x40 MLOAD PUSH32 0xD06CA61F00000000000000000000000000000000000000000000000000000000 DUP2 MSTORE PUSH1 0x1 PUSH1 0x1 PUSH1 0xA0 SHL SUB SWAP1 SWAP2 AND SWAP2 PUSH4 0xD06CA61F SWAP2 PUSH2 0x1B55 SWAP2 CALLVALUE SWAP2 DUP12 SWAP2 DUP12 SWAP2 ADD PUSH2 0x3D5F JUMP JUMPDEST PUSH1 0x0 PUSH1 0x40 MLOAD DUP1 DUP4 SUB DUP2 DUP7 DUP1 EXTCODESIZE ISZERO DUP1 ISZERO PUSH2 0x1B6D JUMPI PUSH1 0x0 DUP1 REVERT JUMPDEST POP GAS STATICCALL ISZERO DUP1 ISZERO PUSH2 0x1B81 JUMPI RETURNDATASIZE PUSH1 0x0 DUP1 RETURNDATACOPY RETURNDATASIZE PUSH1 0x0 REVERT JUMPDEST POP POP POP POP PUSH1 0x40 MLOAD RETURNDATASIZE PUSH1 0x0 DUP3 RETURNDATACOPY PUSH1 0x1F RETURNDATASIZE SWAP1 DUP2 ADD PUSH1 0x1F NOT AND DUP3 ADD PUSH1 0x40 MSTORE PUSH2 0x1BA9 SWAP2 SWAP1 DUP2 ADD SWAP1 PUSH2 0x373F JUMP JUMPDEST SWAP2 POP DUP7 DUP3 PUSH1 0x1 DUP5 MLOAD PUSH2 0x1BBB SWAP2 SWAP1 PUSH2 0x3EC6 JUMP JUMPDEST DUP2 MLOAD DUP2 LT PUSH2 0x1BCB JUMPI PUSH2 0x1BCB PUSH2 0x4023 JUMP JUMPDEST PUSH1 0x20 MUL PUSH1 0x20 ADD ADD MLOAD LT ISZERO PUSH2 0x1C47 JUMPI PUSH1 0x40 MLOAD PUSH3 0x461BCD PUSH1 0xE5 SHL DUP2 MSTORE PUSH1 0x20 PUSH1 0x4 DUP3 ADD MSTORE PUSH1 0x29 PUSH1 0x24 DUP3 ADD MSTORE PUSH32 0x506F7274696679526F757465723A20494E53554646494349454E545F4F555450 PUSH1 0x44 DUP3 ADD MSTORE PUSH32 0x55545F414D4F554E540000000000000000000000000000000000000000000000 PUSH1 0x64 DUP3 ADD MSTORE PUSH1 0x84 ADD PUSH2 0x49E JUMP JUMPDEST PUSH32 0x0 PUSH1 0x1 PUSH1 0x1 PUSH1 0xA0 SHL SUB AND PUSH4 0xD0E30DB0 DUP4 PUSH1 0x0 DUP2 MLOAD DUP2 LT PUSH2 0x1C89 JUMPI PUSH2 0x1C89 PUSH2 0x4023 JUMP JUMPDEST PUSH1 0x20 MUL PUSH1 0x20 ADD ADD MLOAD PUSH1 0x40 MLOAD DUP3 PUSH4 0xFFFFFFFF AND PUSH1 0xE0 SHL DUP2 MSTORE PUSH1 0x4 ADD PUSH1 0x0 PUSH1 0x40 MLOAD DUP1 DUP4 SUB DUP2 DUP6 DUP9 DUP1 EXTCODESIZE ISZERO DUP1 ISZERO PUSH2 0x1CBC JUMPI PUSH1 0x0 DUP1 REVERT JUMPDEST POP GAS CALL ISZERO DUP1 ISZERO PUSH2 0x1CD0 JUMPI RETURNDATASIZE PUSH1 0x0 DUP1 RETURNDATACOPY RETURNDATASIZE PUSH1 0x0 REVERT JUMPDEST POP POP POP POP POP PUSH32 0x0 PUSH1 0x1 PUSH1 0x1 PUSH1 0xA0 SHL SUB AND PUSH4 0xA9059CBB PUSH2 0x1D1B DUP11 DUP10 DUP10 PUSH1 0x0 DUP2 DUP2 LT PUSH2 0x905 JUMPI PUSH2 0x905 PUSH2 0x4023 JUMP JUMPDEST DUP5 PUSH1 0x0 DUP2 MLOAD DUP2 LT PUSH2 0x1D2E JUMPI PUSH2 0x1D2E PUSH2 0x4023 JUMP JUMPDEST PUSH1 0x20 MUL PUSH1 0x20 ADD ADD MLOAD PUSH1 0x40 MLOAD DUP4 PUSH4 0xFFFFFFFF AND PUSH1 0xE0 SHL DUP2 MSTORE PUSH1 0x4 ADD PUSH2 0x1D67 SWAP3 SWAP2 SWAP1 PUSH1 0x1 PUSH1 0x1 PUSH1 0xA0 SHL SUB SWAP3 SWAP1 SWAP3 AND DUP3 MSTORE PUSH1 0x20 DUP3 ADD MSTORE PUSH1 0x40 ADD SWAP1 JUMP JUMPDEST PUSH1 0x20 PUSH1 0x40 MLOAD DUP1 DUP4 SUB DUP2 PUSH1 0x0 DUP8 DUP1 EXTCODESIZE ISZERO DUP1 ISZERO PUSH2 0x1D81 JUMPI PUSH1 0x0 DUP1 REVERT JUMPDEST POP GAS CALL ISZERO DUP1 ISZERO PUSH2 0x1D95 JUMPI RETURNDATASIZE PUSH1 0x0 DUP1 RETURNDATACOPY RETURNDATASIZE PUSH1 0x0 REVERT JUMPDEST POP POP POP POP PUSH1 0x40 MLOAD RETURNDATASIZE PUSH1 0x1F NOT PUSH1 0x1F DUP3 ADD AND DUP3 ADD DUP1 PUSH1 0x40 MSTORE POP DUP2 ADD SWAP1 PUSH2 0x1DB9 SWAP2 SWAP1 PUSH2 0x37D0 JUMP JUMPDEST PUSH2 0x1DC5 JUMPI PUSH2 0x1DC5 PUSH2 0x3F96 JUMP JUMPDEST PUSH2 0x1E05 DUP9 DUP4 DUP9 DUP9 DUP1 DUP1 PUSH1 0x20 MUL PUSH1 0x20 ADD PUSH1 0x40 MLOAD SWAP1 DUP2 ADD PUSH1 0x40 MSTORE DUP1 SWAP4 SWAP3 SWAP2 SWAP1 DUP2 DUP2 MSTORE PUSH1 0x20 ADD DUP4 DUP4 PUSH1 0x20 MUL DUP1 DUP3 DUP5 CALLDATACOPY PUSH1 0x0 SWAP3 ADD SWAP2 SWAP1 SWAP2 MSTORE POP DUP11 SWAP3 POP PUSH2 0x2D6B SWAP2 POP POP JUMP JUMPDEST POP SWAP7 SWAP6 POP POP POP POP POP POP JUMP JUMPDEST PUSH1 0x60 PUSH1 0x1 DUP5 DUP2 SLOAD DUP2 LT PUSH2 0x1E25 JUMPI PUSH2 0x1E25 PUSH2 0x4023 JUMP JUMPDEST PUSH1 0x0 SWAP2 DUP3 MSTORE PUSH1 0x20 SWAP1 SWAP2 KECCAK256 PUSH1 0x4 SWAP2 DUP3 MUL ADD SLOAD PUSH1 0x40 MLOAD PUSH32 0xD06CA61F00000000000000000000000000000000000000000000000000000000 DUP2 MSTORE PUSH1 0x1 PUSH1 0x1 PUSH1 0xA0 SHL SUB SWAP1 SWAP2 AND SWAP2 PUSH4 0xD06CA61F SWAP2 PUSH2 0x1E7C SWAP2 DUP8 SWAP2 DUP8 SWAP2 ADD PUSH2 0x3DAB JUMP JUMPDEST PUSH1 0x0 PUSH1 0x40 MLOAD DUP1 DUP4 SUB DUP2 DUP7 DUP1 EXTCODESIZE ISZERO DUP1 ISZERO PUSH2 0x1E94 JUMPI PUSH1 0x0 DUP1 REVERT JUMPDEST POP GAS STATICCALL ISZERO DUP1 ISZERO PUSH2 0x1EA8 JUMPI RETURNDATASIZE PUSH1 0x0 DUP1 RETURNDATACOPY RETURNDATASIZE PUSH1 0x0 REVERT JUMPDEST POP POP POP POP PUSH1 0x40 MLOAD RETURNDATASIZE PUSH1 0x0 DUP3 RETURNDATACOPY PUSH1 0x1F RETURNDATASIZE SWAP1 DUP2 ADD PUSH1 0x1F NOT AND DUP3 ADD PUSH1 0x40 MSTORE PUSH2 0x1ED0 SWAP2 SWAP1 DUP2 ADD SWAP1 PUSH2 0x373F JUMP JUMPDEST SWAP5 SWAP4 POP POP POP POP JUMP JUMPDEST PUSH1 0x60 DUP2 TIMESTAMP DUP2 LT ISZERO PUSH2 0x1F2B JUMPI PUSH1 0x40 MLOAD PUSH3 0x461BCD PUSH1 0xE5 SHL DUP2 MSTORE PUSH1 0x20 PUSH1 0x4 DUP3 ADD MSTORE PUSH1 0x16 PUSH1 0x24 DUP3 ADD MSTORE PUSH32 0x506F7274696679526F757465723A204558504952454400000000000000000000 PUSH1 0x44 DUP3 ADD MSTORE PUSH1 0x64 ADD PUSH2 0x49E JUMP JUMPDEST PUSH1 0x1 PUSH1 0x1 PUSH1 0xA0 SHL SUB PUSH32 0x0 AND DUP7 DUP7 PUSH2 0x1F62 PUSH1 0x1 DUP3 PUSH2 0x3EC6 JUMP JUMPDEST DUP2 DUP2 LT PUSH2 0x1F71 JUMPI PUSH2 0x1F71 PUSH2 0x4023 JUMP JUMPDEST SWAP1 POP PUSH1 0x20 MUL ADD PUSH1 0x20 DUP2 ADD SWAP1 PUSH2 0x1F86 SWAP2 SWAP1 PUSH2 0x36FE JUMP JUMPDEST PUSH1 0x1 PUSH1 0x1 PUSH1 0xA0 SHL SUB AND EQ PUSH2 0x1FDC JUMPI PUSH1 0x40 MLOAD PUSH3 0x461BCD PUSH1 0xE5 SHL DUP2 MSTORE PUSH1 0x20 PUSH1 0x4 DUP3 ADD MSTORE PUSH1 0x1B PUSH1 0x24 DUP3 ADD MSTORE PUSH32 0x506F7274696679526F757465723A20494E56414C49445F504154480000000000 PUSH1 0x44 DUP3 ADD MSTORE PUSH1 0x64 ADD PUSH2 0x49E JUMP JUMPDEST PUSH1 0x1 DUP10 DUP2 SLOAD DUP2 LT PUSH2 0x1FEF JUMPI PUSH2 0x1FEF PUSH2 0x4023 JUMP JUMPDEST PUSH1 0x0 SWAP2 DUP3 MSTORE PUSH1 0x20 SWAP1 SWAP2 KECCAK256 PUSH1 0x4 SWAP2 DUP3 MUL ADD SLOAD PUSH1 0x40 MLOAD PUSH32 0xD06CA61F00000000000000000000000000000000000000000000000000000000 DUP2 MSTORE PUSH1 0x1 PUSH1 0x1 PUSH1 0xA0 SHL SUB SWAP1 SWAP2 AND SWAP2 PUSH4 0xD06CA61F SWAP2 PUSH2 0x2048 SWAP2 DUP13 SWAP2 DUP12 SWAP2 DUP12 SWAP2 ADD PUSH2 0x3D5F JUMP JUMPDEST PUSH1 0x0 PUSH1 0x40 MLOAD DUP1 DUP4 SUB DUP2 DUP7 DUP1 EXTCODESIZE ISZERO DUP1 ISZERO PUSH2 0x2060 JUMPI PUSH1 0x0 DUP1 REVERT JUMPDEST POP GAS STATICCALL ISZERO DUP1 ISZERO PUSH2 0x2074 JUMPI RETURNDATASIZE PUSH1 0x0 DUP1 RETURNDATACOPY RETURNDATASIZE PUSH1 0x0 REVERT JUMPDEST POP POP POP POP PUSH1 0x40 MLOAD RETURNDATASIZE PUSH1 0x0 DUP3 RETURNDATACOPY PUSH1 0x1F RETURNDATASIZE SWAP1 DUP2 ADD PUSH1 0x1F NOT AND DUP3 ADD PUSH1 0x40 MSTORE PUSH2 0x209C SWAP2 SWAP1 DUP2 ADD SWAP1 PUSH2 0x373F JUMP JUMPDEST SWAP2 POP DUP7 DUP3 PUSH1 0x1 DUP5 MLOAD PUSH2 0x20AE SWAP2 SWAP1 PUSH2 0x3EC6 JUMP JUMPDEST DUP2 MLOAD DUP2 LT PUSH2 0x20BE JUMPI PUSH2 0x20BE PUSH2 0x4023 JUMP JUMPDEST PUSH1 0x20 MUL PUSH1 0x20 ADD ADD MLOAD LT ISZERO PUSH2 0x6AA JUMPI PUSH1 0x40 MLOAD PUSH3 0x461BCD PUSH1 0xE5 SHL DUP2 MSTORE PUSH1 0x20 PUSH1 0x4 DUP3 ADD MSTORE PUSH1 0x29 PUSH1 0x24 DUP3 ADD MSTORE PUSH32 0x506F7274696679526F757465723A20494E53554646494349454E545F4F555450 PUSH1 0x44 DUP3 ADD MSTORE PUSH32 0x55545F414D4F554E540000000000000000000000000000000000000000000000 PUSH1 0x64 DUP3 ADD MSTORE PUSH1 0x84 ADD PUSH2 0x49E JUMP JUMPDEST PUSH1 0x60 DUP2 TIMESTAMP DUP2 LT ISZERO PUSH2 0x218D JUMPI PUSH1 0x40 MLOAD PUSH3 0x461BCD PUSH1 0xE5 SHL DUP2 MSTORE PUSH1 0x20 PUSH1 0x4 DUP3 ADD MSTORE PUSH1 0x16 PUSH1 0x24 DUP3 ADD MSTORE PUSH32 0x506F7274696679526F757465723A204558504952454400000000000000000000 PUSH1 0x44 DUP3 ADD MSTORE PUSH1 0x64 ADD PUSH2 0x49E JUMP JUMPDEST PUSH1 0x1 DUP10 DUP2 SLOAD DUP2 LT PUSH2 0x21A0 JUMPI PUSH2 0x21A0 PUSH2 0x4023 JUMP JUMPDEST PUSH1 0x0 SWAP2 DUP3 MSTORE PUSH1 0x20 SWAP1 SWAP2 KECCAK256 PUSH1 0x4 SWAP2 DUP3 MUL ADD SLOAD PUSH1 0x40 MLOAD PUSH32 0x1F00CA7400000000000000000000000000000000000000000000000000000000 DUP2 MSTORE PUSH1 0x1 PUSH1 0x1 PUSH1 0xA0 SHL SUB SWAP1 SWAP2 AND SWAP2 PUSH4 0x1F00CA74 SWAP2 PUSH2 0x21F9 SWAP2 DUP13 SWAP2 DUP12 SWAP2 DUP12 SWAP2 ADD PUSH2 0x3D5F JUMP JUMPDEST PUSH1 0x0 PUSH1 0x40 MLOAD DUP1 DUP4 SUB DUP2 DUP7 DUP1 EXTCODESIZE ISZERO DUP1 ISZERO PUSH2 0x2211 JUMPI PUSH1 0x0 DUP1 REVERT JUMPDEST POP GAS STATICCALL ISZERO DUP1 ISZERO PUSH2 0x2225 JUMPI RETURNDATASIZE PUSH1 0x0 DUP1 RETURNDATACOPY RETURNDATASIZE PUSH1 0x0 REVERT JUMPDEST POP POP POP POP PUSH1 0x40 MLOAD RETURNDATASIZE PUSH1 0x0 DUP3 RETURNDATACOPY PUSH1 0x1F RETURNDATASIZE SWAP1 DUP2 ADD PUSH1 0x1F NOT AND DUP3 ADD PUSH1 0x40 MSTORE PUSH2 0x224D SWAP2 SWAP1 DUP2 ADD SWAP1 PUSH2 0x373F JUMP JUMPDEST SWAP2 POP DUP7 DUP3 PUSH1 0x0 DUP2 MLOAD DUP2 LT PUSH2 0x2263 JUMPI PUSH2 0x2263 PUSH2 0x4023 JUMP JUMPDEST PUSH1 0x20 MUL PUSH1 0x20 ADD ADD MLOAD GT ISZERO PUSH2 0x22DF JUMPI PUSH1 0x40 MLOAD PUSH3 0x461BCD PUSH1 0xE5 SHL DUP2 MSTORE PUSH1 0x20 PUSH1 0x4 DUP3 ADD MSTORE PUSH1 0x25 PUSH1 0x24 DUP3 ADD MSTORE PUSH32 0x506F7274696679526F757465723A204558434553534956455F494E5055545F41 PUSH1 0x44 DUP3 ADD MSTORE PUSH32 0x4D4F554E54000000000000000000000000000000000000000000000000000000 PUSH1 0x64 DUP3 ADD MSTORE PUSH1 0x84 ADD PUSH2 0x49E JUMP JUMPDEST PUSH2 0x22F5 DUP7 DUP7 PUSH1 0x0 DUP2 DUP2 LT PUSH2 0x6C0 JUMPI PUSH2 0x6C0 PUSH2 0x4023 JUMP JUMPDEST PUSH2 0x865 DUP10 DUP4 DUP9 DUP9 DUP1 DUP1 PUSH1 0x20 MUL PUSH1 0x20 ADD PUSH1 0x40 MLOAD SWAP1 DUP2 ADD PUSH1 0x40 MSTORE DUP1 SWAP4 SWAP3 SWAP2 SWAP1 DUP2 DUP2 MSTORE PUSH1 0x20 ADD DUP4 DUP4 PUSH1 0x20 MUL DUP1 DUP3 DUP5 CALLDATACOPY PUSH1 0x0 SWAP3 ADD SWAP2 SWAP1 SWAP2 MSTORE POP DUP11 SWAP3 POP PUSH2 0x2D6B SWAP2 POP POP JUMP JUMPDEST CALLER PUSH2 0x2348 PUSH1 0x0 SLOAD PUSH1 0x1 PUSH1 0x1 PUSH1 0xA0 SHL SUB AND SWAP1 JUMP JUMPDEST PUSH1 0x1 PUSH1 0x1 PUSH1 0xA0 SHL SUB AND EQ PUSH2 0x239E JUMPI PUSH1 0x40 MLOAD PUSH3 0x461BCD PUSH1 0xE5 SHL DUP2 MSTORE PUSH1 0x20 PUSH1 0x4 DUP3 ADD DUP2 SWAP1 MSTORE PUSH1 0x24 DUP3 ADD MSTORE PUSH32 0x4F776E61626C653A2063616C6C6572206973206E6F7420746865206F776E6572 PUSH1 0x44 DUP3 ADD MSTORE PUSH1 0x64 ADD PUSH2 0x49E JUMP JUMPDEST PUSH1 0x1 PUSH1 0x1 PUSH1 0xA0 SHL SUB DUP2 AND PUSH2 0x241A JUMPI PUSH1 0x40 MLOAD PUSH3 0x461BCD PUSH1 0xE5 SHL DUP2 MSTORE PUSH1 0x20 PUSH1 0x4 DUP3 ADD MSTORE PUSH1 0x26 PUSH1 0x24 DUP3 ADD MSTORE PUSH32 0x4F776E61626C653A206E6577206F776E657220697320746865207A65726F2061 PUSH1 0x44 DUP3 ADD MSTORE PUSH32 0x6464726573730000000000000000000000000000000000000000000000000000 PUSH1 0x64 DUP3 ADD MSTORE PUSH1 0x84 ADD PUSH2 0x49E JUMP JUMPDEST PUSH2 0x2423 DUP2 PUSH2 0x33D0 JUMP JUMPDEST POP JUMP JUMPDEST PUSH1 0x60 DUP2 TIMESTAMP DUP2 LT ISZERO PUSH2 0x2479 JUMPI PUSH1 0x40 MLOAD PUSH3 0x461BCD PUSH1 0xE5 SHL DUP2 MSTORE PUSH1 0x20 PUSH1 0x4 DUP3 ADD MSTORE PUSH1 0x16 PUSH1 0x24 DUP3 ADD MSTORE PUSH32 0x506F7274696679526F757465723A204558504952454400000000000000000000 PUSH1 0x44 DUP3 ADD MSTORE PUSH1 0x64 ADD PUSH2 0x49E JUMP JUMPDEST PUSH1 0x1 DUP10 DUP2 SLOAD DUP2 LT PUSH2 0x248C JUMPI PUSH2 0x248C PUSH2 0x4023 JUMP JUMPDEST PUSH1 0x0 SWAP2 DUP3 MSTORE PUSH1 0x20 SWAP1 SWAP2 KECCAK256 PUSH1 0x4 SWAP2 DUP3 MUL ADD SLOAD PUSH1 0x40 MLOAD PUSH32 0xD06CA61F00000000000000000000000000000000000000000000000000000000 DUP2 MSTORE PUSH1 0x1 PUSH1 0x1 PUSH1 0xA0 SHL SUB SWAP1 SWAP2 AND SWAP2 PUSH4 0xD06CA61F SWAP2 PUSH2 0x24E5 SWAP2 DUP13 SWAP2 DUP12 SWAP2 DUP12 SWAP2 ADD PUSH2 0x3D5F JUMP JUMPDEST PUSH1 0x0 PUSH1 0x40 MLOAD DUP1 DUP4 SUB DUP2 DUP7 DUP1 EXTCODESIZE ISZERO DUP1 ISZERO PUSH2 0x24FD JUMPI PUSH1 0x0 DUP1 REVERT JUMPDEST POP GAS STATICCALL ISZERO DUP1 ISZERO PUSH2 0x2511 JUMPI RETURNDATASIZE PUSH1 0x0 DUP1 RETURNDATACOPY RETURNDATASIZE PUSH1 0x0 REVERT JUMPDEST POP POP POP POP PUSH1 0x40 MLOAD RETURNDATASIZE PUSH1 0x0 DUP3 RETURNDATACOPY PUSH1 0x1F RETURNDATASIZE SWAP1 DUP2 ADD PUSH1 0x1F NOT AND DUP3 ADD PUSH1 0x40 MSTORE PUSH2 0x2539 SWAP2 SWAP1 DUP2 ADD SWAP1 PUSH2 0x373F JUMP JUMPDEST SWAP2 POP DUP7 DUP3 PUSH1 0x1 DUP5 MLOAD PUSH2 0x254B SWAP2 SWAP1 PUSH2 0x3EC6 JUMP JUMPDEST DUP2 MLOAD DUP2 LT PUSH2 0x255B JUMPI PUSH2 0x255B PUSH2 0x4023 JUMP JUMPDEST PUSH1 0x20 MUL PUSH1 0x20 ADD ADD MLOAD LT ISZERO PUSH2 0x22DF JUMPI PUSH1 0x40 MLOAD PUSH3 0x461BCD PUSH1 0xE5 SHL DUP2 MSTORE PUSH1 0x20 PUSH1 0x4 DUP3 ADD MSTORE PUSH1 0x29 PUSH1 0x24 DUP3 ADD MSTORE PUSH32 0x506F7274696679526F757465723A20494E53554646494349454E545F4F555450 PUSH1 0x44 DUP3 ADD MSTORE PUSH32 0x55545F414D4F554E540000000000000000000000000000000000000000000000 PUSH1 0x64 DUP3 ADD MSTORE PUSH1 0x84 ADD PUSH2 0x49E JUMP JUMPDEST PUSH1 0x60 PUSH1 0x1 DUP5 DUP2 SLOAD DUP2 LT PUSH2 0x25EC JUMPI PUSH2 0x25EC PUSH2 0x4023 JUMP JUMPDEST PUSH1 0x0 SWAP2 DUP3 MSTORE PUSH1 0x20 SWAP1 SWAP2 KECCAK256 PUSH1 0x4 SWAP2 DUP3 MUL ADD SLOAD PUSH1 0x40 MLOAD PUSH32 0x1F00CA7400000000000000000000000000000000000000000000000000000000 DUP2 MSTORE PUSH1 0x1 PUSH1 0x1 PUSH1 0xA0 SHL SUB SWAP1 SWAP2 AND SWAP2 PUSH4 0x1F00CA74 SWAP2 PUSH2 0x1E7C SWAP2 DUP8 SWAP2 DUP8 SWAP2 ADD PUSH2 0x3DAB JUMP JUMPDEST PUSH1 0x60 DUP2 TIMESTAMP DUP2 LT ISZERO PUSH2 0x2696 JUMPI PUSH1 0x40 MLOAD PUSH3 0x461BCD PUSH1 0xE5 SHL DUP2 MSTORE PUSH1 0x20 PUSH1 0x4 DUP3 ADD MSTORE PUSH1 0x16 PUSH1 0x24 DUP3 ADD MSTORE PUSH32 0x506F7274696679526F757465723A204558504952454400000000000000000000 PUSH1 0x44 DUP3 ADD MSTORE PUSH1 0x64 ADD PUSH2 0x49E JUMP JUMPDEST PUSH32 0x0 PUSH1 0x1 PUSH1 0x1 PUSH1 0xA0 SHL SUB AND DUP7 DUP7 PUSH1 0x0 DUP2 DUP2 LT PUSH2 0x26D3 JUMPI PUSH2 0x26D3 PUSH2 0x4023 JUMP JUMPDEST SWAP1 POP PUSH1 0x20 MUL ADD PUSH1 0x20 DUP2 ADD SWAP1 PUSH2 0x26E8 SWAP2 SWAP1 PUSH2 0x36FE JUMP JUMPDEST PUSH1 0x1 PUSH1 0x1 PUSH1 0xA0 SHL SUB AND EQ PUSH2 0x273E JUMPI PUSH1 0x40 MLOAD PUSH3 0x461BCD PUSH1 0xE5 SHL DUP2 MSTORE PUSH1 0x20 PUSH1 0x4 DUP3 ADD MSTORE PUSH1 0x1B PUSH1 0x24 DUP3 ADD MSTORE PUSH32 0x506F7274696679526F757465723A20494E56414C49445F504154480000000000 PUSH1 0x44 DUP3 ADD MSTORE PUSH1 0x64 ADD PUSH2 0x49E JUMP JUMPDEST PUSH1 0x1 DUP9 DUP2 SLOAD DUP2 LT PUSH2 0x2751 JUMPI PUSH2 0x2751 PUSH2 0x4023 JUMP JUMPDEST PUSH1 0x0 SWAP2 DUP3 MSTORE PUSH1 0x20 SWAP1 SWAP2 KECCAK256 PUSH1 0x4 SWAP2 DUP3 MUL ADD SLOAD PUSH1 0x40 MLOAD PUSH32 0x1F00CA7400000000000000000000000000000000000000000000000000000000 DUP2 MSTORE PUSH1 0x1 PUSH1 0x1 PUSH1 0xA0 SHL SUB SWAP1 SWAP2 AND SWAP2 PUSH4 0x1F00CA74 SWAP2 PUSH2 0x27AA SWAP2 DUP12 SWAP2 DUP12 SWAP2 DUP12 SWAP2 ADD PUSH2 0x3D5F JUMP JUMPDEST PUSH1 0x0 PUSH1 0x40 MLOAD DUP1 DUP4 SUB DUP2 DUP7 DUP1 EXTCODESIZE ISZERO DUP1 ISZERO PUSH2 0x27C2 JUMPI PUSH1 0x0 DUP1 REVERT JUMPDEST POP GAS STATICCALL ISZERO DUP1 ISZERO PUSH2 0x27D6 JUMPI RETURNDATASIZE PUSH1 0x0 DUP1 RETURNDATACOPY RETURNDATASIZE PUSH1 0x0 REVERT JUMPDEST POP POP POP POP PUSH1 0x40 MLOAD RETURNDATASIZE PUSH1 0x0 DUP3 RETURNDATACOPY PUSH1 0x1F RETURNDATASIZE SWAP1 DUP2 ADD PUSH1 0x1F NOT AND DUP3 ADD PUSH1 0x40 MSTORE PUSH2 0x27FE SWAP2 SWAP1 DUP2 ADD SWAP1 PUSH2 0x373F JUMP JUMPDEST SWAP2 POP CALLVALUE DUP3 PUSH1 0x0 DUP2 MLOAD DUP2 LT PUSH2 0x2814 JUMPI PUSH2 0x2814 PUSH2 0x4023 JUMP JUMPDEST PUSH1 0x20 MUL PUSH1 0x20 ADD ADD MLOAD GT ISZERO PUSH2 0x2890 JUMPI PUSH1 0x40 MLOAD PUSH3 0x461BCD PUSH1 0xE5 SHL DUP2 MSTORE PUSH1 0x20 PUSH1 0x4 DUP3 ADD MSTORE PUSH1 0x25 PUSH1 0x24 DUP3 ADD MSTORE PUSH32 0x506F7274696679526F757465723A204558434553534956455F494E5055545F41 PUSH1 0x44 DUP3 ADD MSTORE PUSH32 0x4D4F554E54000000000000000000000000000000000000000000000000000000 PUSH1 0x64 DUP3 ADD MSTORE PUSH1 0x84 ADD PUSH2 0x49E JUMP JUMPDEST PUSH32 0x0 PUSH1 0x1 PUSH1 0x1 PUSH1 0xA0 SHL SUB AND PUSH4 0xD0E30DB0 DUP4 PUSH1 0x0 DUP2 MLOAD DUP2 LT PUSH2 0x28D2 JUMPI PUSH2 0x28D2 PUSH2 0x4023 JUMP JUMPDEST PUSH1 0x20 MUL PUSH1 0x20 ADD ADD MLOAD PUSH1 0x40 MLOAD DUP3 PUSH4 0xFFFFFFFF AND PUSH1 0xE0 SHL DUP2 MSTORE PUSH1 0x4 ADD PUSH1 0x0 PUSH1 0x40 MLOAD DUP1 DUP4 SUB DUP2 DUP6 DUP9 DUP1 EXTCODESIZE ISZERO DUP1 ISZERO PUSH2 0x2905 JUMPI PUSH1 0x0 DUP1 REVERT JUMPDEST POP GAS CALL ISZERO DUP1 ISZERO PUSH2 0x2919 JUMPI RETURNDATASIZE PUSH1 0x0 DUP1 RETURNDATACOPY RETURNDATASIZE PUSH1 0x0 REVERT JUMPDEST POP POP POP POP POP PUSH32 0x0 PUSH1 0x1 PUSH1 0x1 PUSH1 0xA0 SHL SUB AND PUSH4 0xA9059CBB PUSH2 0x2964 DUP11 DUP10 DUP10 PUSH1 0x0 DUP2 DUP2 LT PUSH2 0x905 JUMPI PUSH2 0x905 PUSH2 0x4023 JUMP JUMPDEST DUP5 PUSH1 0x0 DUP2 MLOAD DUP2 LT PUSH2 0x2977 JUMPI PUSH2 0x2977 PUSH2 0x4023 JUMP JUMPDEST PUSH1 0x20 MUL PUSH1 0x20 ADD ADD MLOAD PUSH1 0x40 MLOAD DUP4 PUSH4 0xFFFFFFFF AND PUSH1 0xE0 SHL DUP2 MSTORE PUSH1 0x4 ADD PUSH2 0x29B0 SWAP3 SWAP2 SWAP1 PUSH1 0x1 PUSH1 0x1 PUSH1 0xA0 SHL SUB SWAP3 SWAP1 SWAP3 AND DUP3 MSTORE PUSH1 0x20 DUP3 ADD MSTORE PUSH1 0x40 ADD SWAP1 JUMP JUMPDEST PUSH1 0x20 PUSH1 0x40 MLOAD DUP1 DUP4 SUB DUP2 PUSH1 0x0 DUP8 DUP1 EXTCODESIZE ISZERO DUP1 ISZERO PUSH2 0x29CA JUMPI PUSH1 0x0 DUP1 REVERT JUMPDEST POP GAS CALL ISZERO DUP1 ISZERO PUSH2 0x29DE JUMPI RETURNDATASIZE PUSH1 0x0 DUP1 RETURNDATACOPY RETURNDATASIZE PUSH1 0x0 REVERT JUMPDEST POP POP POP POP PUSH1 0x40 MLOAD RETURNDATASIZE PUSH1 0x1F NOT PUSH1 0x1F DUP3 ADD AND DUP3 ADD DUP1 PUSH1 0x40 MSTORE POP DUP2 ADD SWAP1 PUSH2 0x2A02 SWAP2 SWAP1 PUSH2 0x37D0 JUMP JUMPDEST PUSH2 0x2A0E JUMPI PUSH2 0x2A0E PUSH2 0x3F96 JUMP JUMPDEST PUSH2 0x2A4E DUP9 DUP4 DUP9 DUP9 DUP1 DUP1 PUSH1 0x20 MUL PUSH1 0x20 ADD PUSH1 0x40 MLOAD SWAP1 DUP2 ADD PUSH1 0x40 MSTORE DUP1 SWAP4 SWAP3 SWAP2 SWAP1 DUP2 DUP2 MSTORE PUSH1 0x20 ADD DUP4 DUP4 PUSH1 0x20 MUL DUP1 DUP3 DUP5 CALLDATACOPY PUSH1 0x0 SWAP3 ADD SWAP2 SWAP1 SWAP2 MSTORE POP DUP11 SWAP3 POP PUSH2 0x2D6B SWAP2 POP POP JUMP JUMPDEST DUP2 PUSH1 0x0 DUP2 MLOAD DUP2 LT PUSH2 0x2A61 JUMPI PUSH2 0x2A61 PUSH2 0x4023 JUMP JUMPDEST PUSH1 0x20 MUL PUSH1 0x20 ADD ADD MLOAD CALLVALUE GT ISZERO PUSH2 0x1E05 JUMPI PUSH2 0x1E05 CALLER DUP4 PUSH1 0x0 DUP2 MLOAD DUP2 LT PUSH2 0x2A87 JUMPI PUSH2 0x2A87 PUSH2 0x4023 JUMP JUMPDEST PUSH1 0x20 MUL PUSH1 0x20 ADD ADD MLOAD CALLVALUE PUSH2 0x2A9A SWAP2 SWAP1 PUSH2 0x3EC6 JUMP JUMPDEST PUSH2 0x2F34 JUMP JUMPDEST PUSH1 0x0 DUP1 PUSH1 0x0 PUSH2 0x2AAE DUP6 DUP6 PUSH2 0x3438 JUMP JUMPDEST SWAP2 POP SWAP2 POP PUSH1 0x1 DUP7 DUP2 SLOAD DUP2 LT PUSH2 0x2AC5 JUMPI PUSH2 0x2AC5 PUSH2 0x4023 JUMP JUMPDEST PUSH1 0x0 SWAP2 DUP3 MSTORE PUSH1 0x20 SWAP2 DUP3 SWAP1 KECCAK256 PUSH1 0x4 SWAP2 SWAP1 SWAP2 MUL ADD PUSH1 0x1 ADD SLOAD PUSH1 0x40 MLOAD PUSH32 0xFFFFFFFFFFFFFFFFFFFFFFFFFFFFFFFFFFFFFFFF000000000000000000000000 PUSH1 0x60 DUP7 DUP2 SHL DUP3 AND SWAP5 DUP4 ADD SWAP5 SWAP1 SWAP5 MSTORE SWAP3 DUP5 SWAP1 SHL SWAP1 SWAP3 AND PUSH1 0x34 DUP4 ADD MSTORE PUSH1 0x1 PUSH1 0x1 PUSH1 0xA0 SHL SUB AND SWAP1 PUSH1 0x48 ADD PUSH1 0x40 MLOAD PUSH1 0x20 DUP2 DUP4 SUB SUB DUP2 MSTORE SWAP1 PUSH1 0x40 MSTORE DUP1 MLOAD SWAP1 PUSH1 0x20 ADD KECCAK256 PUSH1 0x1 DUP9 DUP2 SLOAD DUP2 LT PUSH2 0x2B4F JUMPI PUSH2 0x2B4F PUSH2 0x4023 JUMP JUMPDEST SWAP1 PUSH1 0x0 MSTORE PUSH1 0x20 PUSH1 0x0 KECCAK256 SWAP1 PUSH1 0x4 MUL ADD PUSH1 0x2 ADD SLOAD PUSH1 0x40 MLOAD PUSH1 0x20 ADD PUSH2 0x2BD1 SWAP4 SWAP3 SWAP2 SWAP1 PUSH32 0xFF00000000000000000000000000000000000000000000000000000000000000 DUP2 MSTORE PUSH1 0x60 SWAP4 SWAP1 SWAP4 SHL PUSH32 0xFFFFFFFFFFFFFFFFFFFFFFFFFFFFFFFFFFFFFFFF000000000000000000000000 AND PUSH1 0x1 DUP5 ADD MSTORE PUSH1 0x15 DUP4 ADD SWAP2 SWAP1 SWAP2 MSTORE PUSH1 0x35 DUP3 ADD MSTORE PUSH1 0x55 ADD SWAP1 JUMP JUMPDEST PUSH1 0x40 DUP1 MLOAD PUSH1 0x1F NOT DUP2 DUP5 SUB ADD DUP2 MSTORE SWAP2 SWAP1 MSTORE DUP1 MLOAD PUSH1 0x20 SWAP1 SWAP2 ADD KECCAK256 SWAP7 SWAP6 POP POP POP POP POP POP JUMP JUMPDEST PUSH1 0x40 DUP1 MLOAD PUSH1 0x1 PUSH1 0x1 PUSH1 0xA0 SHL SUB DUP6 DUP2 AND PUSH1 0x24 DUP4 ADD MSTORE DUP5 DUP2 AND PUSH1 0x44 DUP4 ADD MSTORE PUSH1 0x64 DUP1 DUP4 ADD DUP6 SWAP1 MSTORE DUP4 MLOAD DUP1 DUP5 SUB SWAP1 SWAP2 ADD DUP2 MSTORE PUSH1 0x84 SWAP1 SWAP3 ADD DUP4 MSTORE PUSH1 0x20 DUP3 ADD DUP1 MLOAD PUSH28 0xFFFFFFFFFFFFFFFFFFFFFFFFFFFFFFFFFFFFFFFFFFFFFFFFFFFFFFFF AND PUSH32 0x23B872DD00000000000000000000000000000000000000000000000000000000 OR SWAP1 MSTORE SWAP2 MLOAD PUSH1 0x0 SWAP3 DUP4 SWAP3 SWAP1 DUP9 AND SWAP2 PUSH2 0x2C85 SWAP2 SWAP1 PUSH2 0x3B6A JUMP JUMPDEST PUSH1 0x0 PUSH1 0x40 MLOAD DUP1 DUP4 SUB DUP2 PUSH1 0x0 DUP7 GAS CALL SWAP2 POP POP RETURNDATASIZE DUP1 PUSH1 0x0 DUP2 EQ PUSH2 0x2CC2 JUMPI PUSH1 0x40 MLOAD SWAP2 POP PUSH1 0x1F NOT PUSH1 0x3F RETURNDATASIZE ADD AND DUP3 ADD PUSH1 0x40 MSTORE RETURNDATASIZE DUP3 MSTORE RETURNDATASIZE PUSH1 0x0 PUSH1 0x20 DUP5 ADD RETURNDATACOPY PUSH2 0x2CC7 JUMP JUMPDEST PUSH1 0x60 SWAP2 POP JUMPDEST POP SWAP2 POP SWAP2 POP DUP2 DUP1 ISZERO PUSH2 0x2CF1 JUMPI POP DUP1 MLOAD ISZERO DUP1 PUSH2 0x2CF1 JUMPI POP DUP1 DUP1 PUSH1 0x20 ADD SWAP1 MLOAD DUP2 ADD SWAP1 PUSH2 0x2CF1 SWAP2 SWAP1 PUSH2 0x37D0 JUMP JUMPDEST PUSH2 0x2D63 JUMPI PUSH1 0x40 MLOAD PUSH3 0x461BCD PUSH1 0xE5 SHL DUP2 MSTORE PUSH1 0x20 PUSH1 0x4 DUP3 ADD MSTORE PUSH1 0x31 PUSH1 0x24 DUP3 ADD MSTORE PUSH32 0x5472616E7366657248656C7065723A3A7472616E7366657246726F6D3A207472 PUSH1 0x44 DUP3 ADD MSTORE PUSH32 0x616E7366657246726F6D206661696C6564000000000000000000000000000000 PUSH1 0x64 DUP3 ADD MSTORE PUSH1 0x84 ADD PUSH2 0x49E JUMP JUMPDEST POP POP POP POP POP POP JUMP JUMPDEST PUSH1 0x0 JUMPDEST PUSH1 0x1 DUP4 MLOAD PUSH2 0x2D7C SWAP2 SWAP1 PUSH2 0x3EC6 JUMP JUMPDEST DUP2 LT ISZERO PUSH2 0x2F2D JUMPI PUSH1 0x0 DUP1 DUP5 DUP4 DUP2 MLOAD DUP2 LT PUSH2 0x2D98 JUMPI PUSH2 0x2D98 PUSH2 0x4023 JUMP JUMPDEST PUSH1 0x20 MUL PUSH1 0x20 ADD ADD MLOAD DUP6 DUP5 PUSH1 0x1 PUSH2 0x2DAE SWAP2 SWAP1 PUSH2 0x3EAE JUMP JUMPDEST DUP2 MLOAD DUP2 LT PUSH2 0x2DBE JUMPI PUSH2 0x2DBE PUSH2 0x4023 JUMP JUMPDEST PUSH1 0x20 MUL PUSH1 0x20 ADD ADD MLOAD SWAP2 POP SWAP2 POP PUSH1 0x0 PUSH2 0x2DD6 DUP4 DUP4 PUSH2 0x3438 JUMP JUMPDEST POP SWAP1 POP PUSH1 0x0 DUP8 PUSH2 0x2DE7 DUP7 PUSH1 0x1 PUSH2 0x3EAE JUMP JUMPDEST DUP2 MLOAD DUP2 LT PUSH2 0x2DF7 JUMPI PUSH2 0x2DF7 PUSH2 0x4023 JUMP JUMPDEST PUSH1 0x20 MUL PUSH1 0x20 ADD ADD MLOAD SWAP1 POP PUSH1 0x0 DUP1 DUP4 PUSH1 0x1 PUSH1 0x1 PUSH1 0xA0 SHL SUB AND DUP7 PUSH1 0x1 PUSH1 0x1 PUSH1 0xA0 SHL SUB AND EQ PUSH2 0x2E25 JUMPI DUP3 PUSH1 0x0 PUSH2 0x2E29 JUMP JUMPDEST PUSH1 0x0 DUP4 JUMPDEST SWAP2 POP SWAP2 POP PUSH1 0x0 PUSH1 0x2 DUP11 MLOAD PUSH2 0x2E3D SWAP2 SWAP1 PUSH2 0x3EC6 JUMP JUMPDEST DUP9 LT PUSH2 0x2E49 JUMPI DUP9 PUSH2 0x2E77 JUMP JUMPDEST PUSH2 0x2E77 DUP13 DUP8 DUP13 PUSH2 0x2E5A DUP13 PUSH1 0x2 PUSH2 0x3EAE JUMP JUMPDEST DUP2 MLOAD DUP2 LT PUSH2 0x2E6A JUMPI PUSH2 0x2E6A PUSH2 0x4023 JUMP JUMPDEST PUSH1 0x20 MUL PUSH1 0x20 ADD ADD MLOAD PUSH2 0x2A9F JUMP JUMPDEST SWAP1 POP PUSH2 0x2E84 DUP13 DUP9 DUP9 PUSH2 0x2A9F JUMP JUMPDEST PUSH1 0x1 PUSH1 0x1 PUSH1 0xA0 SHL SUB AND PUSH4 0x22C0D9F DUP5 DUP5 DUP5 PUSH1 0x0 PUSH1 0x40 MLOAD SWAP1 DUP1 DUP3 MSTORE DUP1 PUSH1 0x1F ADD PUSH1 0x1F NOT AND PUSH1 0x20 ADD DUP3 ADD PUSH1 0x40 MSTORE DUP1 ISZERO PUSH2 0x2EC1 JUMPI PUSH1 0x20 DUP3 ADD DUP2 DUP1 CALLDATASIZE DUP4 CALLDATACOPY ADD SWAP1 POP JUMPDEST POP PUSH1 0x40 MLOAD DUP6 PUSH4 0xFFFFFFFF AND PUSH1 0xE0 SHL DUP2 MSTORE PUSH1 0x4 ADD PUSH2 0x2EE1 SWAP5 SWAP4 SWAP3 SWAP2 SWAP1 PUSH2 0x3E02 JUMP JUMPDEST PUSH1 0x0 PUSH1 0x40 MLOAD DUP1 DUP4 SUB DUP2 PUSH1 0x0 DUP8 DUP1 EXTCODESIZE ISZERO DUP1 ISZERO PUSH2 0x2EFB JUMPI PUSH1 0x0 DUP1 REVERT JUMPDEST POP GAS CALL ISZERO DUP1 ISZERO PUSH2 0x2F0F JUMPI RETURNDATASIZE PUSH1 0x0 DUP1 RETURNDATACOPY RETURNDATASIZE PUSH1 0x0 REVERT JUMPDEST POP POP POP POP POP POP POP POP POP POP POP DUP1 DUP1 PUSH2 0x2F25 SWAP1 PUSH2 0x3F5D JUMP JUMPDEST SWAP2 POP POP PUSH2 0x2D6E JUMP JUMPDEST POP POP POP POP POP JUMP JUMPDEST PUSH1 0x40 DUP1 MLOAD PUSH1 0x0 DUP1 DUP3 MSTORE PUSH1 0x20 DUP3 ADD SWAP1 SWAP3 MSTORE PUSH1 0x1 PUSH1 0x1 PUSH1 0xA0 SHL SUB DUP5 AND SWAP1 DUP4 SWAP1 PUSH1 0x40 MLOAD PUSH2 0x2F5E SWAP2 SWAP1 PUSH2 0x3B6A JUMP JUMPDEST PUSH1 0x0 PUSH1 0x40 MLOAD DUP1 DUP4 SUB DUP2 DUP6 DUP8 GAS CALL SWAP3 POP POP POP RETURNDATASIZE DUP1 PUSH1 0x0 DUP2 EQ PUSH2 0x2F9B JUMPI PUSH1 0x40 MLOAD SWAP2 POP PUSH1 0x1F NOT PUSH1 0x3F RETURNDATASIZE ADD AND DUP3 ADD PUSH1 0x40 MSTORE RETURNDATASIZE DUP3 MSTORE RETURNDATASIZE PUSH1 0x0 PUSH1 0x20 DUP5 ADD RETURNDATACOPY PUSH2 0x2FA0 JUMP JUMPDEST PUSH1 0x60 SWAP2 POP JUMPDEST POP POP SWAP1 POP DUP1 PUSH2 0x3017 JUMPI PUSH1 0x40 MLOAD PUSH3 0x461BCD PUSH1 0xE5 SHL DUP2 MSTORE PUSH1 0x20 PUSH1 0x4 DUP3 ADD MSTORE PUSH1 0x34 PUSH1 0x24 DUP3 ADD MSTORE PUSH32 0x5472616E7366657248656C7065723A3A736166655472616E736665724554483A PUSH1 0x44 DUP3 ADD MSTORE PUSH32 0x20455448207472616E73666572206661696C6564000000000000000000000000 PUSH1 0x64 DUP3 ADD MSTORE PUSH1 0x84 ADD PUSH2 0x49E JUMP JUMPDEST POP POP POP JUMP JUMPDEST PUSH1 0x0 JUMPDEST PUSH1 0x1 DUP4 MLOAD PUSH2 0x302D SWAP2 SWAP1 PUSH2 0x3EC6 JUMP JUMPDEST DUP2 LT ISZERO PUSH2 0x33CA JUMPI PUSH1 0x0 DUP1 DUP5 DUP4 DUP2 MLOAD DUP2 LT PUSH2 0x3049 JUMPI PUSH2 0x3049 PUSH2 0x4023 JUMP JUMPDEST PUSH1 0x20 MUL PUSH1 0x20 ADD ADD MLOAD DUP6 DUP5 PUSH1 0x1 PUSH2 0x305F SWAP2 SWAP1 PUSH2 0x3EAE JUMP JUMPDEST DUP2 MLOAD DUP2 LT PUSH2 0x306F JUMPI PUSH2 0x306F PUSH2 0x4023 JUMP JUMPDEST PUSH1 0x20 MUL PUSH1 0x20 ADD ADD MLOAD SWAP2 POP SWAP2 POP PUSH1 0x0 PUSH2 0x3087 DUP4 DUP4 PUSH2 0x3438 JUMP JUMPDEST POP SWAP1 POP PUSH1 0x0 PUSH2 0x3097 DUP9 DUP6 DUP6 PUSH2 0x2A9F JUMP JUMPDEST SWAP1 POP PUSH1 0x0 DUP1 PUSH1 0x0 DUP1 DUP5 PUSH1 0x1 PUSH1 0x1 PUSH1 0xA0 SHL SUB AND PUSH4 0x902F1AC PUSH1 0x40 MLOAD DUP2 PUSH4 0xFFFFFFFF AND PUSH1 0xE0 SHL DUP2 MSTORE PUSH1 0x4 ADD PUSH1 0x60 PUSH1 0x40 MLOAD DUP1 DUP4 SUB DUP2 DUP7 DUP1 EXTCODESIZE ISZERO DUP1 ISZERO PUSH2 0x30D8 JUMPI PUSH1 0x0 DUP1 REVERT JUMPDEST POP GAS STATICCALL ISZERO DUP1 ISZERO PUSH2 0x30EC JUMPI RETURNDATASIZE PUSH1 0x0 DUP1 RETURNDATACOPY RETURNDATASIZE PUSH1 0x0 REVERT JUMPDEST POP POP POP POP PUSH1 0x40 MLOAD RETURNDATASIZE PUSH1 0x1F NOT PUSH1 0x1F DUP3 ADD AND DUP3 ADD DUP1 PUSH1 0x40 MSTORE POP DUP2 ADD SWAP1 PUSH2 0x3110 SWAP2 SWAP1 PUSH2 0x38FC JUMP JUMPDEST POP PUSH14 0xFFFFFFFFFFFFFFFFFFFFFFFFFFFF AND SWAP2 POP PUSH14 0xFFFFFFFFFFFFFFFFFFFFFFFFFFFF AND SWAP2 POP PUSH1 0x0 DUP1 DUP8 PUSH1 0x1 PUSH1 0x1 PUSH1 0xA0 SHL SUB AND DUP11 PUSH1 0x1 PUSH1 0x1 PUSH1 0xA0 SHL SUB AND EQ PUSH2 0x3158 JUMPI DUP3 DUP5 PUSH2 0x315B JUMP JUMPDEST DUP4 DUP4 JUMPDEST PUSH1 0x40 MLOAD PUSH32 0x70A0823100000000000000000000000000000000000000000000000000000000 DUP2 MSTORE PUSH1 0x1 PUSH1 0x1 PUSH1 0xA0 SHL SUB DUP11 DUP2 AND PUSH1 0x4 DUP4 ADD MSTORE SWAP3 SWAP5 POP SWAP1 SWAP3 POP DUP4 SWAP2 DUP13 AND SWAP1 PUSH4 0x70A08231 SWAP1 PUSH1 0x24 ADD PUSH1 0x20 PUSH1 0x40 MLOAD DUP1 DUP4 SUB DUP2 DUP7 DUP1 EXTCODESIZE ISZERO DUP1 ISZERO PUSH2 0x31BD JUMPI PUSH1 0x0 DUP1 REVERT JUMPDEST POP GAS STATICCALL ISZERO DUP1 ISZERO PUSH2 0x31D1 JUMPI RETURNDATASIZE PUSH1 0x0 DUP1 RETURNDATACOPY RETURNDATASIZE PUSH1 0x0 REVERT JUMPDEST POP POP POP POP PUSH1 0x40 MLOAD RETURNDATASIZE PUSH1 0x1F NOT PUSH1 0x1F DUP3 ADD AND DUP3 ADD DUP1 PUSH1 0x40 MSTORE POP DUP2 ADD SWAP1 PUSH2 0x31F5 SWAP2 SWAP1 PUSH2 0x37F2 JUMP JUMPDEST PUSH2 0x31FF SWAP2 SWAP1 PUSH2 0x3EC6 JUMP JUMPDEST SWAP6 POP PUSH1 0x1 DUP15 DUP2 SLOAD DUP2 LT PUSH2 0x3214 JUMPI PUSH2 0x3214 PUSH2 0x4023 JUMP JUMPDEST PUSH1 0x0 SWAP2 DUP3 MSTORE PUSH1 0x20 SWAP1 SWAP2 KECCAK256 PUSH1 0x4 SWAP2 DUP3 MUL ADD SLOAD PUSH1 0x40 MLOAD PUSH32 0x54D50D400000000000000000000000000000000000000000000000000000000 DUP2 MSTORE SWAP2 DUP3 ADD DUP9 SWAP1 MSTORE PUSH1 0x24 DUP3 ADD DUP5 SWAP1 MSTORE PUSH1 0x44 DUP3 ADD DUP4 SWAP1 MSTORE PUSH1 0x1 PUSH1 0x1 PUSH1 0xA0 SHL SUB AND SWAP1 PUSH4 0x54D50D4 SWAP1 PUSH1 0x64 ADD PUSH1 0x20 PUSH1 0x40 MLOAD DUP1 DUP4 SUB DUP2 DUP7 DUP1 EXTCODESIZE ISZERO DUP1 ISZERO PUSH2 0x328A JUMPI PUSH1 0x0 DUP1 REVERT JUMPDEST POP GAS STATICCALL ISZERO DUP1 ISZERO PUSH2 0x329E JUMPI RETURNDATASIZE PUSH1 0x0 DUP1 RETURNDATACOPY RETURNDATASIZE PUSH1 0x0 REVERT JUMPDEST POP POP POP POP PUSH1 0x40 MLOAD RETURNDATASIZE PUSH1 0x1F NOT PUSH1 0x1F DUP3 ADD AND DUP3 ADD DUP1 PUSH1 0x40 MSTORE POP DUP2 ADD SWAP1 PUSH2 0x32C2 SWAP2 SWAP1 PUSH2 0x37F2 JUMP JUMPDEST SWAP5 POP POP POP POP POP PUSH1 0x0 DUP1 DUP6 PUSH1 0x1 PUSH1 0x1 PUSH1 0xA0 SHL SUB AND DUP9 PUSH1 0x1 PUSH1 0x1 PUSH1 0xA0 SHL SUB AND EQ PUSH2 0x32EC JUMPI DUP3 PUSH1 0x0 PUSH2 0x32F0 JUMP JUMPDEST PUSH1 0x0 DUP4 JUMPDEST SWAP2 POP SWAP2 POP PUSH1 0x0 PUSH1 0x2 DUP13 MLOAD PUSH2 0x3304 SWAP2 SWAP1 PUSH2 0x3EC6 JUMP JUMPDEST DUP11 LT PUSH2 0x3310 JUMPI DUP11 PUSH2 0x3321 JUMP JUMPDEST PUSH2 0x3321 DUP14 DUP10 DUP15 PUSH2 0x2E5A DUP15 PUSH1 0x2 PUSH2 0x3EAE JUMP JUMPDEST PUSH1 0x40 DUP1 MLOAD PUSH1 0x0 DUP2 MSTORE PUSH1 0x20 DUP2 ADD SWAP2 DUP3 SWAP1 MSTORE PUSH32 0x22C0D9F00000000000000000000000000000000000000000000000000000000 SWAP1 SWAP2 MSTORE SWAP1 SWAP2 POP PUSH1 0x1 PUSH1 0x1 PUSH1 0xA0 SHL SUB DUP8 AND SWAP1 PUSH4 0x22C0D9F SWAP1 PUSH2 0x337C SWAP1 DUP7 SWAP1 DUP7 SWAP1 DUP7 SWAP1 PUSH1 0x24 DUP2 ADD PUSH2 0x3E02 JUMP JUMPDEST PUSH1 0x0 PUSH1 0x40 MLOAD DUP1 DUP4 SUB DUP2 PUSH1 0x0 DUP8 DUP1 EXTCODESIZE ISZERO DUP1 ISZERO PUSH2 0x3396 JUMPI PUSH1 0x0 DUP1 REVERT JUMPDEST POP GAS CALL ISZERO DUP1 ISZERO PUSH2 0x33AA JUMPI RETURNDATASIZE PUSH1 0x0 DUP1 RETURNDATACOPY RETURNDATASIZE PUSH1 0x0 REVERT JUMPDEST POP POP POP POP POP POP POP POP POP POP POP POP POP DUP1 DUP1 PUSH2 0x33C2 SWAP1 PUSH2 0x3F5D JUMP JUMPDEST SWAP2 POP POP PUSH2 0x301F JUMP JUMPDEST POP POP POP POP JUMP JUMPDEST PUSH1 0x0 DUP1 SLOAD PUSH1 0x1 PUSH1 0x1 PUSH1 0xA0 SHL SUB DUP4 DUP2 AND PUSH32 0xFFFFFFFFFFFFFFFFFFFFFFFF0000000000000000000000000000000000000000 DUP4 AND DUP2 OR DUP5 SSTORE PUSH1 0x40 MLOAD SWAP2 SWAP1 SWAP3 AND SWAP3 DUP4 SWAP2 PUSH32 0x8BE0079C531659141344CD1FD0A4F28419497F9722A3DAAFE3B4186F6B6457E0 SWAP2 SWAP1 LOG3 POP POP JUMP JUMPDEST PUSH1 0x0 DUP1 DUP3 PUSH1 0x1 PUSH1 0x1 PUSH1 0xA0 SHL SUB AND DUP5 PUSH1 0x1 PUSH1 0x1 PUSH1 0xA0 SHL SUB AND EQ ISZERO PUSH2 0x34C3 JUMPI PUSH1 0x40 MLOAD PUSH3 0x461BCD PUSH1 0xE5 SHL DUP2 MSTORE PUSH1 0x20 PUSH1 0x4 DUP3 ADD MSTORE PUSH1 0x23 PUSH1 0x24 DUP3 ADD MSTORE PUSH32 0x506F72746966794C6962726172793A204944454E544943414C5F414444524553 PUSH1 0x44 DUP3 ADD MSTORE PUSH32 0x5345530000000000000000000000000000000000000000000000000000000000 PUSH1 0x64 DUP3 ADD MSTORE PUSH1 0x84 ADD PUSH2 0x49E JUMP JUMPDEST DUP3 PUSH1 0x1 PUSH1 0x1 PUSH1 0xA0 SHL SUB AND DUP5 PUSH1 0x1 PUSH1 0x1 PUSH1 0xA0 SHL SUB AND LT PUSH2 0x34E3 JUMPI DUP3 DUP5 PUSH2 0x34E6 JUMP JUMPDEST DUP4 DUP4 JUMPDEST SWAP1 SWAP3 POP SWAP1 POP PUSH1 0x1 PUSH1 0x1 PUSH1 0xA0 SHL SUB DUP3 AND PUSH2 0x3541 JUMPI PUSH1 0x40 MLOAD PUSH3 0x461BCD PUSH1 0xE5 SHL DUP2 MSTORE PUSH1 0x20 PUSH1 0x4 DUP3 ADD MSTORE PUSH1 0x1C PUSH1 0x24 DUP3 ADD MSTORE PUSH32 0x506F72746966794C6962726172793A205A45524F5F4144445245535300000000 PUSH1 0x44 DUP3 ADD MSTORE PUSH1 0x64 ADD PUSH2 0x49E JUMP JUMPDEST SWAP3 POP SWAP3 SWAP1 POP JUMP JUMPDEST DUP3 DUP1 SLOAD PUSH2 0x3554 SWAP1 PUSH2 0x3F09 JUMP JUMPDEST SWAP1 PUSH1 0x0 MSTORE PUSH1 0x20 PUSH1 0x0 KECCAK256 SWAP1 PUSH1 0x1F ADD PUSH1 0x20 SWAP1 DIV DUP2 ADD SWAP3 DUP3 PUSH2 0x3576 JUMPI PUSH1 0x0 DUP6 SSTORE PUSH2 0x35C3 JUMP JUMPDEST DUP3 PUSH1 0x1F LT PUSH2 0x3587 JUMPI DUP1 SLOAD DUP6 SSTORE PUSH2 0x35C3 JUMP JUMPDEST DUP3 DUP1 ADD PUSH1 0x1 ADD DUP6 SSTORE DUP3 ISZERO PUSH2 0x35C3 JUMPI PUSH1 0x0 MSTORE PUSH1 0x20 PUSH1 0x0 KECCAK256 SWAP2 PUSH1 0x1F ADD PUSH1 0x20 SWAP1 DIV DUP3 ADD JUMPDEST DUP3 DUP2 GT ISZERO PUSH2 0x35C3 JUMPI DUP3 SLOAD DUP3 SSTORE SWAP2 PUSH1 0x1 ADD SWAP2 SWAP1 PUSH1 0x1 ADD SWAP1 PUSH2 0x35A8 JUMP JUMPDEST POP PUSH2 0x35CF SWAP3 SWAP2 POP PUSH2 0x3681 JUMP JUMPDEST POP SWAP1 JUMP JUMPDEST POP DUP1 SLOAD PUSH2 0x35DF SWAP1 PUSH2 0x3F09 JUMP JUMPDEST PUSH1 0x0 DUP3 SSTORE DUP1 PUSH1 0x1F LT PUSH2 0x35EF JUMPI POP POP JUMP JUMPDEST PUSH1 0x1F ADD PUSH1 0x20 SWAP1 DIV SWAP1 PUSH1 0x0 MSTORE PUSH1 0x20 PUSH1 0x0 KECCAK256 SWAP1 DUP2 ADD SWAP1 PUSH2 0x2423 SWAP2 SWAP1 PUSH2 0x3681 JUMP JUMPDEST DUP3 DUP1 SLOAD PUSH2 0x3619 SWAP1 PUSH2 0x3F09 JUMP JUMPDEST SWAP1 PUSH1 0x0 MSTORE PUSH1 0x20 PUSH1 0x0 KECCAK256 SWAP1 PUSH1 0x1F ADD PUSH1 0x20 SWAP1 DIV DUP2 ADD SWAP3 DUP3 PUSH2 0x363B JUMPI PUSH1 0x0 DUP6 SSTORE PUSH2 0x35C3 JUMP JUMPDEST DUP3 PUSH1 0x1F LT PUSH2 0x3654 JUMPI DUP1 MLOAD PUSH1 0xFF NOT AND DUP4 DUP1 ADD OR DUP6 SSTORE PUSH2 0x35C3 JUMP JUMPDEST DUP3 DUP1 ADD PUSH1 0x1 ADD DUP6 SSTORE DUP3 ISZERO PUSH2 0x35C3 JUMPI SWAP2 DUP3 ADD JUMPDEST DUP3 DUP2 GT ISZERO PUSH2 0x35C3 JUMPI DUP3 MLOAD DUP3 SSTORE SWAP2 PUSH1 0x20 ADD SWAP2 SWAP1 PUSH1 0x1 ADD SWAP1 PUSH2 0x3666 JUMP JUMPDEST JUMPDEST DUP1 DUP3 GT ISZERO PUSH2 0x35CF JUMPI PUSH1 0x0 DUP2 SSTORE PUSH1 0x1 ADD PUSH2 0x3682 JUMP JUMPDEST PUSH1 0x0 DUP1 DUP4 PUSH1 0x1F DUP5 ADD SLT PUSH2 0x36A8 JUMPI PUSH1 0x0 DUP1 REVERT JUMPDEST POP DUP2 CALLDATALOAD PUSH8 0xFFFFFFFFFFFFFFFF DUP2 GT ISZERO PUSH2 0x36C0 JUMPI PUSH1 0x0 DUP1 REVERT JUMPDEST PUSH1 0x20 DUP4 ADD SWAP2 POP DUP4 PUSH1 0x20 DUP3 PUSH1 0x5 SHL DUP6 ADD ADD GT ISZERO PUSH2 0x3541 JUMPI PUSH1 0x0 DUP1 REVERT JUMPDEST DUP1 MLOAD PUSH14 0xFFFFFFFFFFFFFFFFFFFFFFFFFFFF DUP2 AND DUP2 EQ PUSH2 0x36F9 JUMPI PUSH1 0x0 DUP1 REVERT JUMPDEST SWAP2 SWAP1 POP JUMP JUMPDEST PUSH1 0x0 PUSH1 0x20 DUP3 DUP5 SUB SLT ISZERO PUSH2 0x3710 JUMPI PUSH1 0x0 DUP1 REVERT JUMPDEST DUP2 CALLDATALOAD PUSH2 0x371B DUP2 PUSH2 0x4081 JUMP JUMPDEST SWAP4 SWAP3 POP POP POP JUMP JUMPDEST PUSH1 0x0 PUSH1 0x20 DUP3 DUP5 SUB SLT ISZERO PUSH2 0x3734 JUMPI PUSH1 0x0 DUP1 REVERT JUMPDEST DUP2 MLOAD PUSH2 0x371B DUP2 PUSH2 0x4081 JUMP JUMPDEST PUSH1 0x0 PUSH1 0x20 DUP1 DUP4 DUP6 SUB SLT ISZERO PUSH2 0x3752 JUMPI PUSH1 0x0 DUP1 REVERT JUMPDEST DUP3 MLOAD PUSH8 0xFFFFFFFFFFFFFFFF DUP2 GT ISZERO PUSH2 0x3769 JUMPI PUSH1 0x0 DUP1 REVERT JUMPDEST DUP4 ADD PUSH1 0x1F DUP2 ADD DUP6 SGT PUSH2 0x377A JUMPI PUSH1 0x0 DUP1 REVERT JUMPDEST DUP1 MLOAD PUSH2 0x378D PUSH2 0x3788 DUP3 PUSH2 0x3E8A JUMP JUMPDEST PUSH2 0x3E59 JUMP JUMPDEST DUP1 DUP3 DUP3 MSTORE DUP5 DUP3 ADD SWAP2 POP DUP5 DUP5 ADD DUP9 DUP7 DUP6 PUSH1 0x5 SHL DUP8 ADD ADD GT ISZERO PUSH2 0x37AD JUMPI PUSH1 0x0 DUP1 REVERT JUMPDEST PUSH1 0x0 SWAP5 POP JUMPDEST DUP4 DUP6 LT ISZERO PUSH2 0x865 JUMPI DUP1 MLOAD DUP4 MSTORE PUSH1 0x1 SWAP5 SWAP1 SWAP5 ADD SWAP4 SWAP2 DUP6 ADD SWAP2 DUP6 ADD PUSH2 0x37B2 JUMP JUMPDEST PUSH1 0x0 PUSH1 0x20 DUP3 DUP5 SUB SLT ISZERO PUSH2 0x37E2 JUMPI PUSH1 0x0 DUP1 REVERT JUMPDEST DUP2 MLOAD DUP1 ISZERO ISZERO DUP2 EQ PUSH2 0x371B JUMPI PUSH1 0x0 DUP1 REVERT JUMPDEST PUSH1 0x0 PUSH1 0x20 DUP3 DUP5 SUB SLT ISZERO PUSH2 0x3804 JUMPI PUSH1 0x0 DUP1 REVERT JUMPDEST POP MLOAD SWAP2 SWAP1 POP JUMP JUMPDEST PUSH1 0x0 PUSH1 0x20 DUP1 DUP4 DUP6 SUB SLT ISZERO PUSH2 0x381E JUMPI PUSH1 0x0 DUP1 REVERT JUMPDEST DUP3 CALLDATALOAD PUSH8 0xFFFFFFFFFFFFFFFF DUP1 DUP3 GT ISZERO PUSH2 0x3836 JUMPI PUSH1 0x0 DUP1 REVERT JUMPDEST SWAP1 DUP5 ADD SWAP1 PUSH1 0x80 DUP3 DUP8 SUB SLT ISZERO PUSH2 0x384A JUMPI PUSH1 0x0 DUP1 REVERT JUMPDEST PUSH2 0x3852 PUSH2 0x3E30 JUMP JUMPDEST DUP3 CALLDATALOAD PUSH2 0x385D DUP2 PUSH2 0x4081 JUMP JUMPDEST DUP2 MSTORE DUP3 DUP5 ADD CALLDATALOAD PUSH2 0x386C DUP2 PUSH2 0x4081 JUMP JUMPDEST DUP2 DUP6 ADD MSTORE PUSH1 0x40 DUP4 DUP2 ADD CALLDATALOAD SWAP1 DUP3 ADD MSTORE PUSH1 0x60 DUP4 ADD CALLDATALOAD DUP3 DUP2 GT ISZERO PUSH2 0x388C JUMPI PUSH1 0x0 DUP1 REVERT JUMPDEST DUP1 DUP5 ADD SWAP4 POP POP DUP7 PUSH1 0x1F DUP5 ADD SLT PUSH2 0x38A1 JUMPI PUSH1 0x0 DUP1 REVERT JUMPDEST DUP3 CALLDATALOAD DUP3 DUP2 GT ISZERO PUSH2 0x38B3 JUMPI PUSH2 0x38B3 PUSH2 0x4052 JUMP JUMPDEST PUSH2 0x38C5 DUP6 PUSH1 0x1F NOT PUSH1 0x1F DUP5 ADD AND ADD PUSH2 0x3E59 JUMP JUMPDEST SWAP3 POP DUP1 DUP4 MSTORE DUP8 DUP6 DUP3 DUP7 ADD ADD GT ISZERO PUSH2 0x38DB JUMPI PUSH1 0x0 DUP1 REVERT JUMPDEST DUP1 DUP6 DUP6 ADD DUP7 DUP6 ADD CALLDATACOPY PUSH1 0x0 SWAP1 DUP4 ADD SWAP1 SWAP5 ADD SWAP4 SWAP1 SWAP4 MSTORE PUSH1 0x60 DUP4 ADD MSTORE POP SWAP4 SWAP3 POP POP POP JUMP JUMPDEST PUSH1 0x0 DUP1 PUSH1 0x0 PUSH1 0x60 DUP5 DUP7 SUB SLT ISZERO PUSH2 0x3911 JUMPI PUSH1 0x0 DUP1 REVERT JUMPDEST PUSH2 0x391A DUP5 PUSH2 0x36DB JUMP JUMPDEST SWAP3 POP PUSH2 0x3928 PUSH1 0x20 DUP6 ADD PUSH2 0x36DB JUMP JUMPDEST SWAP2 POP PUSH1 0x40 DUP5 ADD MLOAD PUSH4 0xFFFFFFFF DUP2 AND DUP2 EQ PUSH2 0x3941 JUMPI PUSH1 0x0 DUP1 REVERT JUMPDEST DUP1 SWAP2 POP POP SWAP3 POP SWAP3 POP SWAP3 JUMP JUMPDEST PUSH1 0x0 PUSH1 0x20 DUP3 DUP5 SUB SLT ISZERO PUSH2 0x395E JUMPI PUSH1 0x0 DUP1 REVERT JUMPDEST POP CALLDATALOAD SWAP2 SWAP1 POP JUMP JUMPDEST PUSH1 0x0 DUP1 PUSH1 0x0 DUP1 PUSH1 0x0 DUP1 PUSH1 0xA0 DUP8 DUP10 SUB SLT ISZERO PUSH2 0x397E JUMPI PUSH1 0x0 DUP1 REVERT JUMPDEST DUP7 CALLDATALOAD SWAP6 POP PUSH1 0x20 DUP8 ADD CALLDATALOAD SWAP5 POP PUSH1 0x40 DUP8 ADD CALLDATALOAD PUSH8 0xFFFFFFFFFFFFFFFF DUP2 GT ISZERO PUSH2 0x39A3 JUMPI PUSH1 0x0 DUP1 REVERT JUMPDEST PUSH2 0x39AF DUP10 DUP3 DUP11 ADD PUSH2 0x3696 JUMP JUMPDEST SWAP1 SWAP6 POP SWAP4 POP POP PUSH1 0x60 DUP8 ADD CALLDATALOAD PUSH2 0x39C3 DUP2 PUSH2 0x4081 JUMP JUMPDEST DUP1 SWAP3 POP POP PUSH1 0x80 DUP8 ADD CALLDATALOAD SWAP1 POP SWAP3 SWAP6 POP SWAP3 SWAP6 POP SWAP3 SWAP6 JUMP JUMPDEST PUSH1 0x0 DUP1 PUSH1 0x0 PUSH1 0x60 DUP5 DUP7 SUB SLT ISZERO PUSH2 0x39ED JUMPI PUSH1 0x0 DUP1 REVERT JUMPDEST DUP4 CALLDATALOAD SWAP3 POP PUSH1 0x20 DUP1 DUP6 ADD CALLDATALOAD SWAP3 POP PUSH1 0x40 DUP6 ADD CALLDATALOAD PUSH8 0xFFFFFFFFFFFFFFFF DUP2 GT ISZERO PUSH2 0x3A13 JUMPI PUSH1 0x0 DUP1 REVERT JUMPDEST DUP6 ADD PUSH1 0x1F DUP2 ADD DUP8 SGT PUSH2 0x3A24 JUMPI PUSH1 0x0 DUP1 REVERT JUMPDEST DUP1 CALLDATALOAD PUSH2 0x3A32 PUSH2 0x3788 DUP3 PUSH2 0x3E8A JUMP JUMPDEST DUP1 DUP3 DUP3 MSTORE DUP5 DUP3 ADD SWAP2 POP DUP5 DUP5 ADD DUP11 DUP7 DUP6 PUSH1 0x5 SHL DUP8 ADD ADD GT ISZERO PUSH2 0x3A52 JUMPI PUSH1 0x0 DUP1 REVERT JUMPDEST PUSH1 0x0 SWAP5 POP JUMPDEST DUP4 DUP6 LT ISZERO PUSH2 0x3A7E JUMPI DUP1 CALLDATALOAD PUSH2 0x3A6A DUP2 PUSH2 0x4081 JUMP JUMPDEST DUP4 MSTORE PUSH1 0x1 SWAP5 SWAP1 SWAP5 ADD SWAP4 SWAP2 DUP6 ADD SWAP2 DUP6 ADD PUSH2 0x3A57 JUMP JUMPDEST POP DUP1 SWAP6 POP POP POP POP POP POP SWAP3 POP SWAP3 POP SWAP3 JUMP JUMPDEST PUSH1 0x0 DUP1 PUSH1 0x0 DUP1 PUSH1 0x0 DUP1 PUSH1 0x0 PUSH1 0xC0 DUP9 DUP11 SUB SLT ISZERO PUSH2 0x3AA9 JUMPI PUSH1 0x0 DUP1 REVERT JUMPDEST DUP8 CALLDATALOAD SWAP7 POP PUSH1 0x20 DUP9 ADD CALLDATALOAD SWAP6 POP PUSH1 0x40 DUP9 ADD CALLDATALOAD SWAP5 POP PUSH1 0x60 DUP9 ADD CALLDATALOAD PUSH8 0xFFFFFFFFFFFFFFFF DUP2 GT ISZERO PUSH2 0x3AD5 JUMPI PUSH1 0x0 DUP1 REVERT JUMPDEST PUSH2 0x3AE1 DUP11 DUP3 DUP12 ADD PUSH2 0x3696 JUMP JUMPDEST SWAP1 SWAP6 POP SWAP4 POP POP PUSH1 0x80 DUP9 ADD CALLDATALOAD PUSH2 0x3AF5 DUP2 PUSH2 0x4081 JUMP JUMPDEST DUP1 SWAP3 POP POP PUSH1 0xA0 DUP9 ADD CALLDATALOAD SWAP1 POP SWAP3 SWAP6 SWAP9 SWAP2 SWAP5 SWAP8 POP SWAP3 SWAP6 POP JUMP JUMPDEST PUSH1 0x0 DUP1 PUSH1 0x0 DUP1 PUSH1 0x80 DUP6 DUP8 SUB SLT ISZERO PUSH2 0x3B22 JUMPI PUSH1 0x0 DUP1 REVERT JUMPDEST POP POP DUP3 CALLDATALOAD SWAP5 PUSH1 0x20 DUP5 ADD CALLDATALOAD SWAP5 POP PUSH1 0x40 DUP5 ADD CALLDATALOAD SWAP4 PUSH1 0x60 ADD CALLDATALOAD SWAP3 POP SWAP1 POP JUMP JUMPDEST PUSH1 0x0 DUP2 MLOAD DUP1 DUP5 MSTORE PUSH2 0x3B56 DUP2 PUSH1 0x20 DUP7 ADD PUSH1 0x20 DUP7 ADD PUSH2 0x3EDD JUMP JUMPDEST PUSH1 0x1F ADD PUSH1 0x1F NOT AND SWAP3 SWAP1 SWAP3 ADD PUSH1 0x20 ADD SWAP3 SWAP2 POP POP JUMP JUMPDEST PUSH1 0x0 DUP3 MLOAD PUSH2 0x3B7C DUP2 DUP5 PUSH1 0x20 DUP8 ADD PUSH2 0x3EDD JUMP JUMPDEST SWAP2 SWAP1 SWAP2 ADD SWAP3 SWAP2 POP POP JUMP JUMPDEST PUSH1 0x20 DUP1 DUP3 MSTORE DUP3 MLOAD DUP3 DUP3 ADD DUP2 SWAP1 MSTORE PUSH1 0x0 SWAP2 SWAP1 DUP5 DUP3 ADD SWAP1 PUSH1 0x40 DUP6 ADD SWAP1 DUP5 JUMPDEST DUP2 DUP2 LT ISZERO PUSH2 0x3BBE JUMPI DUP4 MLOAD DUP4 MSTORE SWAP3 DUP5 ADD SWAP3 SWAP2 DUP5 ADD SWAP2 PUSH1 0x1 ADD PUSH2 0x3BA2 JUMP JUMPDEST POP SWAP1 SWAP7 SWAP6 POP POP POP POP POP POP JUMP JUMPDEST PUSH1 0x0 PUSH1 0x1 PUSH1 0x1 PUSH1 0xA0 SHL SUB DUP1 DUP8 AND DUP4 MSTORE DUP1 DUP7 AND PUSH1 0x20 DUP5 ADD MSTORE POP DUP4 PUSH1 0x40 DUP4 ADD MSTORE PUSH1 0x80 PUSH1 0x60 DUP4 ADD MSTORE PUSH2 0x3BFC PUSH1 0x80 DUP4 ADD DUP5 PUSH2 0x3B3E JUMP JUMPDEST SWAP7 SWAP6 POP POP POP POP POP POP JUMP JUMPDEST PUSH1 0x20 DUP2 MSTORE PUSH1 0x0 PUSH1 0x1 PUSH1 0x1 PUSH1 0xA0 SHL SUB DUP1 DUP5 MLOAD AND PUSH1 0x20 DUP5 ADD MSTORE DUP1 PUSH1 0x20 DUP6 ADD MLOAD AND PUSH1 0x40 DUP5 ADD MSTORE POP PUSH1 0x40 DUP4 ADD MLOAD PUSH1 0x60 DUP4 ADD MSTORE PUSH1 0x60 DUP4 ADD MLOAD PUSH1 0x80 DUP1 DUP5 ADD MSTORE PUSH2 0x1ED0 PUSH1 0xA0 DUP5 ADD DUP3 PUSH2 0x3B3E JUMP JUMPDEST PUSH1 0x0 PUSH1 0x20 DUP1 DUP4 MSTORE PUSH1 0x1 PUSH1 0x1 PUSH1 0xA0 SHL SUB DUP1 DUP6 SLOAD AND DUP3 DUP6 ADD MSTORE PUSH1 0x1 DUP2 DUP2 DUP8 ADD SLOAD AND PUSH1 0x40 DUP7 ADD MSTORE PUSH1 0x2 DUP7 ADD SLOAD PUSH1 0x60 DUP7 ADD MSTORE PUSH1 0x3 DUP7 ADD SWAP2 POP PUSH1 0x80 DUP1 DUP7 ADD MSTORE PUSH1 0x0 DUP3 SLOAD DUP2 DUP2 DUP5 SHR SWAP1 POP DUP4 DUP3 AND DUP1 PUSH2 0x3C9F JUMPI PUSH1 0x7F DUP3 AND SWAP2 POP JUMPDEST DUP7 DUP3 LT DUP2 EQ ISZERO PUSH2 0x3CD6 JUMPI PUSH32 0x4E487B7100000000000000000000000000000000000000000000000000000000 DUP5 MSTORE PUSH1 0x22 PUSH1 0x4 MSTORE PUSH1 0x24 DUP5 REVERT JUMPDEST PUSH1 0xA0 DUP10 ADD DUP3 SWAP1 MSTORE PUSH1 0xC0 DUP10 ADD DUP2 DUP1 ISZERO PUSH2 0x3CF5 JUMPI PUSH1 0x1 DUP2 EQ PUSH2 0x3D24 JUMPI PUSH2 0x3D4F JUMP JUMPDEST PUSH32 0xFFFFFFFFFFFFFFFFFFFFFFFFFFFFFFFFFFFFFFFFFFFFFFFFFFFFFFFFFFFFFF00 DUP6 AND DUP3 MSTORE DUP9 DUP3 ADD SWAP6 POP PUSH2 0x3D4F JUMP JUMPDEST PUSH1 0x0 DUP9 DUP2 MSTORE PUSH1 0x20 SWAP1 KECCAK256 PUSH1 0x0 JUMPDEST DUP6 DUP2 LT ISZERO PUSH2 0x3D49 JUMPI DUP2 SLOAD DUP5 DUP3 ADD MSTORE SWAP1 DUP9 ADD SWAP1 DUP11 ADD PUSH2 0x3D30 JUMP JUMPDEST DUP4 ADD SWAP7 POP POP JUMPDEST POP SWAP4 SWAP11 SWAP10 POP POP POP POP POP POP POP POP POP POP JUMP JUMPDEST DUP4 DUP2 MSTORE PUSH1 0x40 PUSH1 0x20 DUP1 DUP4 ADD DUP3 SWAP1 MSTORE SWAP1 DUP3 ADD DUP4 SWAP1 MSTORE PUSH1 0x0 SWAP1 DUP5 SWAP1 PUSH1 0x60 DUP5 ADD DUP4 JUMPDEST DUP7 DUP2 LT ISZERO PUSH2 0x865 JUMPI DUP4 CALLDATALOAD PUSH2 0x3D90 DUP2 PUSH2 0x4081 JUMP JUMPDEST PUSH1 0x1 PUSH1 0x1 PUSH1 0xA0 SHL SUB AND DUP3 MSTORE SWAP3 DUP3 ADD SWAP3 SWAP1 DUP3 ADD SWAP1 PUSH1 0x1 ADD PUSH2 0x3D7D JUMP JUMPDEST PUSH1 0x0 PUSH1 0x40 DUP3 ADD DUP5 DUP4 MSTORE PUSH1 0x20 PUSH1 0x40 DUP2 DUP6 ADD MSTORE DUP2 DUP6 MLOAD DUP1 DUP5 MSTORE PUSH1 0x60 DUP7 ADD SWAP2 POP DUP3 DUP8 ADD SWAP4 POP PUSH1 0x0 JUMPDEST DUP2 DUP2 LT ISZERO PUSH2 0x3DF5 JUMPI DUP5 MLOAD PUSH1 0x1 PUSH1 0x1 PUSH1 0xA0 SHL SUB AND DUP4 MSTORE SWAP4 DUP4 ADD SWAP4 SWAP2 DUP4 ADD SWAP2 PUSH1 0x1 ADD PUSH2 0x3DD0 JUMP JUMPDEST POP SWAP1 SWAP8 SWAP7 POP POP POP POP POP POP POP JUMP JUMPDEST DUP5 DUP2 MSTORE DUP4 PUSH1 0x20 DUP3 ADD MSTORE PUSH1 0x1 PUSH1 0x1 PUSH1 0xA0 SHL SUB DUP4 AND PUSH1 0x40 DUP3 ADD MSTORE PUSH1 0x80 PUSH1 0x60 DUP3 ADD MSTORE PUSH1 0x0 PUSH2 0x3BFC PUSH1 0x80 DUP4 ADD DUP5 PUSH2 0x3B3E JUMP JUMPDEST PUSH1 0x40 MLOAD PUSH1 0x80 DUP2 ADD PUSH8 0xFFFFFFFFFFFFFFFF DUP2 GT DUP3 DUP3 LT OR ISZERO PUSH2 0x3E53 JUMPI PUSH2 0x3E53 PUSH2 0x4052 JUMP JUMPDEST PUSH1 0x40 MSTORE SWAP1 JUMP JUMPDEST PUSH1 0x40 MLOAD PUSH1 0x1F DUP3 ADD PUSH1 0x1F NOT AND DUP2 ADD PUSH8 0xFFFFFFFFFFFFFFFF DUP2 GT DUP3 DUP3 LT OR ISZERO PUSH2 0x3E82 JUMPI PUSH2 0x3E82 PUSH2 0x4052 JUMP JUMPDEST PUSH1 0x40 MSTORE SWAP2 SWAP1 POP JUMP JUMPDEST PUSH1 0x0 PUSH8 0xFFFFFFFFFFFFFFFF DUP3 GT ISZERO PUSH2 0x3EA4 JUMPI PUSH2 0x3EA4 PUSH2 0x4052 JUMP JUMPDEST POP PUSH1 0x5 SHL PUSH1 0x20 ADD SWAP1 JUMP JUMPDEST PUSH1 0x0 DUP3 NOT DUP3 GT ISZERO PUSH2 0x3EC1 JUMPI PUSH2 0x3EC1 PUSH2 0x3FC5 JUMP JUMPDEST POP ADD SWAP1 JUMP JUMPDEST PUSH1 0x0 DUP3 DUP3 LT ISZERO PUSH2 0x3ED8 JUMPI PUSH2 0x3ED8 PUSH2 0x3FC5 JUMP JUMPDEST POP SUB SWAP1 JUMP JUMPDEST PUSH1 0x0 JUMPDEST DUP4 DUP2 LT ISZERO PUSH2 0x3EF8 JUMPI DUP2 DUP2 ADD MLOAD DUP4 DUP3 ADD MSTORE PUSH1 0x20 ADD PUSH2 0x3EE0 JUMP JUMPDEST DUP4 DUP2 GT ISZERO PUSH2 0x33CA JUMPI POP POP PUSH1 0x0 SWAP2 ADD MSTORE JUMP JUMPDEST PUSH1 0x1 DUP2 DUP2 SHR SWAP1 DUP3 AND DUP1 PUSH2 0x3F1D JUMPI PUSH1 0x7F DUP3 AND SWAP2 POP JUMPDEST PUSH1 0x20 DUP3 LT DUP2 EQ ISZERO PUSH2 0x3F57 JUMPI PUSH32 0x4E487B7100000000000000000000000000000000000000000000000000000000 PUSH1 0x0 MSTORE PUSH1 0x22 PUSH1 0x4 MSTORE PUSH1 0x24 PUSH1 0x0 REVERT JUMPDEST POP SWAP2 SWAP1 POP JUMP JUMPDEST PUSH1 0x0 PUSH32 0xFFFFFFFFFFFFFFFFFFFFFFFFFFFFFFFFFFFFFFFFFFFFFFFFFFFFFFFFFFFFFFFF DUP3 EQ ISZERO PUSH2 0x3F8F JUMPI PUSH2 0x3F8F PUSH2 0x3FC5 JUMP JUMPDEST POP PUSH1 0x1 ADD SWAP1 JUMP JUMPDEST PUSH32 0x4E487B7100000000000000000000000000000000000000000000000000000000 PUSH1 0x0 MSTORE PUSH1 0x1 PUSH1 0x4 MSTORE PUSH1 0x24 PUSH1 0x0 REVERT JUMPDEST PUSH32 0x4E487B7100000000000000000000000000000000000000000000000000000000 PUSH1 0x0 MSTORE PUSH1 0x11 PUSH1 0x4 MSTORE PUSH1 0x24 PUSH1 0x0 REVERT JUMPDEST PUSH32 0x4E487B7100000000000000000000000000000000000000000000000000000000 PUSH1 0x0 MSTORE PUSH1 0x31 PUSH1 0x4 MSTORE PUSH1 0x24 PUSH1 0x0 REVERT JUMPDEST PUSH32 0x4E487B7100000000000000000000000000000000000000000000000000000000 PUSH1 0x0 MSTORE PUSH1 0x32 PUSH1 0x4 MSTORE PUSH1 0x24 PUSH1 0x0 REVERT JUMPDEST PUSH32 0x4E487B7100000000000000000000000000000000000000000000000000000000 PUSH1 0x0 MSTORE PUSH1 0x41 PUSH1 0x4 MSTORE PUSH1 0x24 PUSH1 0x0 REVERT JUMPDEST PUSH1 0x1 PUSH1 0x1 PUSH1 0xA0 SHL SUB DUP2 AND DUP2 EQ PUSH2 0x2423 JUMPI PUSH1 0x0 DUP1 REVERT INVALID LOG2 PUSH5 0x6970667358 0x22 SLT KECCAK256 CALL BYTE 0xD2 DUP4 0xD2 SWAP4 0xBA 0xEE MSTORE8 0xC1 CALLVALUE ADDMOD 0xCD PUSH21 0xC7D391B7A704AB6E9BE958805BDEE9A53CFD64736F PUSH13 0x63430008070033000000000000 "
        },
        "methodIdentifiers": {
          "WETH()": "ad5c4648",
          "addNewDex((address,address,bytes32,string))": "67e9803c",
          "dex_list(uint256)": "41c6a58b",
          "getAmountIn(uint256,uint256,uint256,uint256)": "571fd012",
          "getAmountOut(uint256,uint256,uint256,uint256)": "52707d8c",
          "getAmountsIn(uint256,uint256,address[])": "f7d13af9",
          "getAmountsOut(uint256,uint256,address[])": "b67b1220",
          "owner()": "8da5cb5b",
          "removeDex(uint256)": "3746af08",
          "renounceOwnership()": "715018a6",
          "swapETHForExactTokens(uint256,uint256,address[],address,uint256)": "fc374157",
          "swapExactETHForTokens(uint256,uint256,address[],address,uint256)": "a5be382e",
          "swapExactETHForTokensSupportingFeeOnTransferTokens(uint256,uint256,address[],address,uint256)": "73e45444",
          "swapExactTokensForETH(uint256,uint256,uint256,address[],address,uint256)": "c510b356",
          "swapExactTokensForETHSupportingFeeOnTransferTokens(uint256,uint256,uint256,address[],address,uint256)": "903ab0bb",
          "swapExactTokensForTokens(uint256,uint256,uint256,address[],address,uint256)": "f6173d61",
          "swapExactTokensForTokensSupportingFeeOnTransferTokens(uint256,uint256,uint256,address[],address,uint256)": "34cdb1e9",
          "swapTokensForExactETH(uint256,uint256,uint256,address[],address,uint256)": "2b5f221d",
          "swapTokensForExactTokens(uint256,uint256,uint256,address[],address,uint256)": "cd5fcd35",
          "transferOwnership(address)": "f2fde38b"
        }
      }
    }
  }
}