{
  "_format": "hh-sol-artifact-1",
  "contractName": "PortifyRouter",
  "sourceName": "contracts/PortifyRouter.sol",
  "abi": [
    {
      "inputs": [
        {
          "components": [
            {
              "internalType": "contract IPancakeV2Router02",
              "name": "router",
              "type": "address"
            },
            {
              "internalType": "contract IPancakeV2Factory",
              "name": "factory",
              "type": "address"
            },
            {
              "internalType": "bytes32",
              "name": "pair_code_hash",
              "type": "bytes32"
            },
            {
              "internalType": "string",
              "name": "name",
              "type": "string"
            }
          ],
          "internalType": "struct PortifyRouter.DexInfo[]",
          "name": "_dex_list",
          "type": "tuple[]"
        },
        {
          "internalType": "address",
          "name": "_WETH",
          "type": "address"
        }
      ],
      "stateMutability": "nonpayable",
      "type": "constructor"
    },
    {
      "anonymous": false,
      "inputs": [
        {
          "components": [
            {
              "internalType": "contract IPancakeV2Router02",
              "name": "router",
              "type": "address"
            },
            {
              "internalType": "contract IPancakeV2Factory",
              "name": "factory",
              "type": "address"
            },
            {
              "internalType": "bytes32",
              "name": "pair_code_hash",
              "type": "bytes32"
            },
            {
              "internalType": "string",
              "name": "name",
              "type": "string"
            }
          ],
          "indexed": false,
          "internalType": "struct PortifyRouter.DexInfo",
          "name": "removed_dex",
          "type": "tuple"
        }
      ],
      "name": "DexRemoval",
      "type": "event"
    },
    {
      "anonymous": false,
      "inputs": [
        {
          "components": [
            {
              "internalType": "contract IPancakeV2Router02",
              "name": "router",
              "type": "address"
            },
            {
              "internalType": "contract IPancakeV2Factory",
              "name": "factory",
              "type": "address"
            },
            {
              "internalType": "bytes32",
              "name": "pair_code_hash",
              "type": "bytes32"
            },
            {
              "internalType": "string",
              "name": "name",
              "type": "string"
            }
          ],
          "indexed": false,
          "internalType": "struct PortifyRouter.DexInfo",
          "name": "new_dex",
          "type": "tuple"
        }
      ],
      "name": "NewDex",
      "type": "event"
    },
    {
      "anonymous": false,
      "inputs": [
        {
          "indexed": true,
          "internalType": "address",
          "name": "previousOwner",
          "type": "address"
        },
        {
          "indexed": true,
          "internalType": "address",
          "name": "newOwner",
          "type": "address"
        }
      ],
      "name": "OwnershipTransferred",
      "type": "event"
    },
    {
      "inputs": [],
      "name": "WETH",
      "outputs": [
        {
          "internalType": "address",
          "name": "",
          "type": "address"
        }
      ],
      "stateMutability": "view",
      "type": "function"
    },
    {
      "inputs": [
        {
          "components": [
            {
              "internalType": "contract IPancakeV2Router02",
              "name": "router",
              "type": "address"
            },
            {
              "internalType": "contract IPancakeV2Factory",
              "name": "factory",
              "type": "address"
            },
            {
              "internalType": "bytes32",
              "name": "pair_code_hash",
              "type": "bytes32"
            },
            {
              "internalType": "string",
              "name": "name",
              "type": "string"
            }
          ],
          "internalType": "struct PortifyRouter.DexInfo",
          "name": "new_dex",
          "type": "tuple"
        }
      ],
      "name": "addNewDex",
      "outputs": [],
      "stateMutability": "nonpayable",
      "type": "function"
    },
    {
      "inputs": [
        {
          "internalType": "uint256",
          "name": "",
          "type": "uint256"
        }
      ],
      "name": "dex_list",
      "outputs": [
        {
          "internalType": "contract IPancakeV2Router02",
          "name": "router",
          "type": "address"
        },
        {
          "internalType": "contract IPancakeV2Factory",
          "name": "factory",
          "type": "address"
        },
        {
          "internalType": "bytes32",
          "name": "pair_code_hash",
          "type": "bytes32"
        },
        {
          "internalType": "string",
          "name": "name",
          "type": "string"
        }
      ],
      "stateMutability": "view",
      "type": "function"
    },
    {
      "inputs": [
        {
          "internalType": "uint256",
          "name": "dex_id",
          "type": "uint256"
        },
        {
          "internalType": "uint256",
          "name": "amountOut",
          "type": "uint256"
        },
        {
          "internalType": "uint256",
          "name": "reserveIn",
          "type": "uint256"
        },
        {
          "internalType": "uint256",
          "name": "reserveOut",
          "type": "uint256"
        }
      ],
      "name": "getAmountIn",
      "outputs": [
        {
          "internalType": "uint256",
          "name": "amountIn",
          "type": "uint256"
        }
      ],
      "stateMutability": "view",
      "type": "function"
    },
    {
      "inputs": [
        {
          "internalType": "uint256",
          "name": "dex_id",
          "type": "uint256"
        },
        {
          "internalType": "uint256",
          "name": "amountIn",
          "type": "uint256"
        },
        {
          "internalType": "uint256",
          "name": "reserveIn",
          "type": "uint256"
        },
        {
          "internalType": "uint256",
          "name": "reserveOut",
          "type": "uint256"
        }
      ],
      "name": "getAmountOut",
      "outputs": [
        {
          "internalType": "uint256",
          "name": "amountOut",
          "type": "uint256"
        }
      ],
      "stateMutability": "view",
      "type": "function"
    },
    {
      "inputs": [
        {
          "internalType": "uint256",
          "name": "dex_id",
          "type": "uint256"
        },
        {
          "internalType": "uint256",
          "name": "amountOut",
          "type": "uint256"
        },
        {
          "internalType": "address[]",
          "name": "path",
          "type": "address[]"
        }
      ],
      "name": "getAmountsIn",
      "outputs": [
        {
          "internalType": "uint256[]",
          "name": "amounts",
          "type": "uint256[]"
        }
      ],
      "stateMutability": "view",
      "type": "function"
    },
    {
      "inputs": [
        {
          "internalType": "uint256",
          "name": "dex_id",
          "type": "uint256"
        },
        {
          "internalType": "uint256",
          "name": "amountIn",
          "type": "uint256"
        },
        {
          "internalType": "address[]",
          "name": "path",
          "type": "address[]"
        }
      ],
      "name": "getAmountsOut",
      "outputs": [
        {
          "internalType": "uint256[]",
          "name": "amounts",
          "type": "uint256[]"
        }
      ],
      "stateMutability": "view",
      "type": "function"
    },
    {
      "inputs": [],
      "name": "owner",
      "outputs": [
        {
          "internalType": "address",
          "name": "",
          "type": "address"
        }
      ],
      "stateMutability": "view",
      "type": "function"
    },
    {
      "inputs": [
        {
          "internalType": "uint256",
          "name": "dex_idx",
          "type": "uint256"
        }
      ],
      "name": "removeDex",
      "outputs": [],
      "stateMutability": "nonpayable",
      "type": "function"
    },
    {
      "inputs": [],
      "name": "renounceOwnership",
      "outputs": [],
      "stateMutability": "nonpayable",
      "type": "function"
    },
    {
      "inputs": [
        {
          "internalType": "uint256",
          "name": "dex_id",
          "type": "uint256"
        },
        {
          "internalType": "uint256",
          "name": "amountOut",
          "type": "uint256"
        },
        {
          "internalType": "address[]",
          "name": "path",
          "type": "address[]"
        },
        {
          "internalType": "address",
          "name": "to",
          "type": "address"
        },
        {
          "internalType": "uint256",
          "name": "deadline",
          "type": "uint256"
        }
      ],
      "name": "swapETHForExactTokens",
      "outputs": [
        {
          "internalType": "uint256[]",
          "name": "amounts",
          "type": "uint256[]"
        }
      ],
      "stateMutability": "payable",
      "type": "function"
    },
    {
      "inputs": [
        {
          "internalType": "uint256",
          "name": "dex_id",
          "type": "uint256"
        },
        {
          "internalType": "uint256",
          "name": "amountOutMin",
          "type": "uint256"
        },
        {
          "internalType": "address[]",
          "name": "path",
          "type": "address[]"
        },
        {
          "internalType": "address",
          "name": "to",
          "type": "address"
        },
        {
          "internalType": "uint256",
          "name": "deadline",
          "type": "uint256"
        }
      ],
      "name": "swapExactETHForTokens",
      "outputs": [
        {
          "internalType": "uint256[]",
          "name": "amounts",
          "type": "uint256[]"
        }
      ],
      "stateMutability": "payable",
      "type": "function"
    },
    {
      "inputs": [
        {
          "internalType": "uint256",
          "name": "dex_id",
          "type": "uint256"
        },
        {
          "internalType": "uint256",
          "name": "amountOutMin",
          "type": "uint256"
        },
        {
          "internalType": "address[]",
          "name": "path",
          "type": "address[]"
        },
        {
          "internalType": "address",
          "name": "to",
          "type": "address"
        },
        {
          "internalType": "uint256",
          "name": "deadline",
          "type": "uint256"
        }
      ],
      "name": "swapExactETHForTokensSupportingFeeOnTransferTokens",
      "outputs": [],
      "stateMutability": "payable",
      "type": "function"
    },
    {
      "inputs": [
        {
          "internalType": "uint256",
          "name": "dex_id",
          "type": "uint256"
        },
        {
          "internalType": "uint256",
          "name": "amountIn",
          "type": "uint256"
        },
        {
          "internalType": "uint256",
          "name": "amountOutMin",
          "type": "uint256"
        },
        {
          "internalType": "address[]",
          "name": "path",
          "type": "address[]"
        },
        {
          "internalType": "address",
          "name": "to",
          "type": "address"
        },
        {
          "internalType": "uint256",
          "name": "deadline",
          "type": "uint256"
        }
      ],
      "name": "swapExactTokensForETH",
      "outputs": [
        {
          "internalType": "uint256[]",
          "name": "amounts",
          "type": "uint256[]"
        }
      ],
      "stateMutability": "nonpayable",
      "type": "function"
    },
    {
      "inputs": [
        {
          "internalType": "uint256",
          "name": "dex_id",
          "type": "uint256"
        },
        {
          "internalType": "uint256",
          "name": "amountIn",
          "type": "uint256"
        },
        {
          "internalType": "uint256",
          "name": "amountOutMin",
          "type": "uint256"
        },
        {
          "internalType": "address[]",
          "name": "path",
          "type": "address[]"
        },
        {
          "internalType": "address",
          "name": "to",
          "type": "address"
        },
        {
          "internalType": "uint256",
          "name": "deadline",
          "type": "uint256"
        }
      ],
      "name": "swapExactTokensForETHSupportingFeeOnTransferTokens",
      "outputs": [],
      "stateMutability": "nonpayable",
      "type": "function"
    },
    {
      "inputs": [
        {
          "internalType": "uint256",
          "name": "dex_id",
          "type": "uint256"
        },
        {
          "internalType": "uint256",
          "name": "amountIn",
          "type": "uint256"
        },
        {
          "internalType": "uint256",
          "name": "amountOutMin",
          "type": "uint256"
        },
        {
          "internalType": "address[]",
          "name": "path",
          "type": "address[]"
        },
        {
          "internalType": "address",
          "name": "to",
          "type": "address"
        },
        {
          "internalType": "uint256",
          "name": "deadline",
          "type": "uint256"
        }
      ],
      "name": "swapExactTokensForTokens",
      "outputs": [
        {
          "internalType": "uint256[]",
          "name": "amounts",
          "type": "uint256[]"
        }
      ],
      "stateMutability": "nonpayable",
      "type": "function"
    },
    {
      "inputs": [
        {
          "internalType": "uint256",
          "name": "dex_id",
          "type": "uint256"
        },
        {
          "internalType": "uint256",
          "name": "amountIn",
          "type": "uint256"
        },
        {
          "internalType": "uint256",
          "name": "amountOutMin",
          "type": "uint256"
        },
        {
          "internalType": "address[]",
          "name": "path",
          "type": "address[]"
        },
        {
          "internalType": "address",
          "name": "to",
          "type": "address"
        },
        {
          "internalType": "uint256",
          "name": "deadline",
          "type": "uint256"
        }
      ],
      "name": "swapExactTokensForTokensSupportingFeeOnTransferTokens",
      "outputs": [],
      "stateMutability": "nonpayable",
      "type": "function"
    },
    {
      "inputs": [
        {
          "internalType": "uint256",
          "name": "dex_id",
          "type": "uint256"
        },
        {
          "internalType": "uint256",
          "name": "amountOut",
          "type": "uint256"
        },
        {
          "internalType": "uint256",
          "name": "amountInMax",
          "type": "uint256"
        },
        {
          "internalType": "address[]",
          "name": "path",
          "type": "address[]"
        },
        {
          "internalType": "address",
          "name": "to",
          "type": "address"
        },
        {
          "internalType": "uint256",
          "name": "deadline",
          "type": "uint256"
        }
      ],
      "name": "swapTokensForExactETH",
      "outputs": [
        {
          "internalType": "uint256[]",
          "name": "amounts",
          "type": "uint256[]"
        }
      ],
      "stateMutability": "nonpayable",
      "type": "function"
    },
    {
      "inputs": [
        {
          "internalType": "uint256",
          "name": "dex_id",
          "type": "uint256"
        },
        {
          "internalType": "uint256",
          "name": "amountOut",
          "type": "uint256"
        },
        {
          "internalType": "uint256",
          "name": "amountInMax",
          "type": "uint256"
        },
        {
          "internalType": "address[]",
          "name": "path",
          "type": "address[]"
        },
        {
          "internalType": "address",
          "name": "to",
          "type": "address"
        },
        {
          "internalType": "uint256",
          "name": "deadline",
          "type": "uint256"
        }
      ],
      "name": "swapTokensForExactTokens",
      "outputs": [
        {
          "internalType": "uint256[]",
          "name": "amounts",
          "type": "uint256[]"
        }
      ],
      "stateMutability": "nonpayable",
      "type": "function"
    },
    {
      "inputs": [
        {
          "internalType": "address",
          "name": "newOwner",
          "type": "address"
        }
      ],
      "name": "transferOwnership",
      "outputs": [],
      "stateMutability": "nonpayable",
      "type": "function"
    },
    {
      "stateMutability": "payable",
      "type": "receive"
    }
  ],
  "bytecode": "0x60a06040523480156200001157600080fd5b506040516200486938038062004869833981016040819052620000349162000409565b6200003f33620002da565b6001600160601b0319606082901b1660805260005b600154811015620002d1576001838281518110620000765762000076620006c9565b602090810291909101810151825460018181018555600094855293839020825160049092020180546001600160a01b039283166001600160a01b03199182161782558385015195820180549690931695169490941790556040810151600284015560608101518051919392620000f5926003850192909101906200032a565b505050600181815481106200010e576200010e620006c9565b6000918252602091829020600491820201546040805163c45a015560e01b815290516001600160a01b039092169363c45a015593828101939192829003018186803b1580156200015d57600080fd5b505afa15801562000172573d6000803e3d6000fd5b505050506040513d601f19601f82011682018060405250810190620001989190620003e2565b60018281548110620001ae57620001ae620006c9565b906000526020600020906004020160010160006101000a8154816001600160a01b0302191690836001600160a01b0316021790555060018181548110620001f957620001f9620006c9565b906000526020600020906004020160010160009054906101000a90046001600160a01b03166001600160a01b0316635855a25a6040518163ffffffff1660e01b815260040160206040518083038186803b1580156200025757600080fd5b505afa1580156200026c573d6000803e3d6000fd5b505050506040513d601f19601f82011682018060405250810190620002929190620005ea565b60018281548110620002a857620002a8620006c9565b600091825260209091206002600490920201015580620002c8816200069f565b91505062000054565b5050506200070e565b600080546001600160a01b038381166001600160a01b0319831681178455604051919092169283917f8be0079c531659141344cd1fd0a4f28419497f9722a3daafe3b4186f6b6457e09190a35050565b828054620003389062000662565b90600052602060002090601f0160209004810192826200035c5760008555620003a7565b82601f106200037757805160ff1916838001178555620003a7565b82800160010185558215620003a7579182015b82811115620003a75782518255916020019190600101906200038a565b50620003b5929150620003b9565b5090565b5b80821115620003b55760008155600101620003ba565b8051620003dd81620006f5565b919050565b600060208284031215620003f557600080fd5b81516200040281620006f5565b9392505050565b600080604083850312156200041d57600080fd5b82516001600160401b03808211156200043557600080fd5b818501915085601f8301126200044a57600080fd5b8151818111156200045f576200045f620006df565b6200047060208260051b016200062f565b80828252602082019150602085018960208560051b88010111156200049457600080fd5b60005b84811015620005c957815186811115620004b057600080fd5b8701601f196080828e0382011215620004c857600080fd5b620004d262000604565b6020830151620004e281620006f5565b81526040830151620004f481620006f5565b6020820152606083015160408201526080830151898111156200051657600080fd5b8084019350508d603f8401126200052c57600080fd5b602083015189811115620005445762000544620006df565b62000557602084601f840116016200062f565b92508083528e60408286010111156200056f57600080fd5b60005b818110156200059557604081860101516020828601015260208101905062000572565b81811115620005a8576000602083860101525b50506060810191909152855250602093840193919091019060010162000497565b50508096505050505050620005e160208401620003d0565b90509250929050565b600060208284031215620005fd57600080fd5b5051919050565b604051608081016001600160401b0381118282101715620006295762000629620006df565b60405290565b604051601f8201601f191681016001600160401b03811182821017156200065a576200065a620006df565b604052919050565b600181811c908216806200067757607f821691505b602082108114156200069957634e487b7160e01b600052602260045260246000fd5b50919050565b6000600019821415620006c257634e487b7160e01b600052601160045260246000fd5b5060010190565b634e487b7160e01b600052603260045260246000fd5b634e487b7160e01b600052604160045260246000fd5b6001600160a01b03811681146200070b57600080fd5b50565b60805160601c6140cc6200079d600039600081816101730152818161035a015281816104b10152818161079101528181611342015281816113ef015281816114630152818161172a015281816118570152818161198001528181611a4301528181611c4901528181611cd701528181611f350152818161269801528181612892015261292001526140cc6000f3fe6080604052600436106101635760003560e01c8063903ab0bb116100c0578063cd5fcd3511610074578063f6173d6111610059578063f6173d61146103fc578063f7d13af91461041c578063fc3741571461043c57600080fd5b8063cd5fcd35146103bc578063f2fde38b146103dc57600080fd5b8063ad5c4648116100a5578063ad5c464814610348578063b67b12201461037c578063c510b3561461039c57600080fd5b8063903ab0bb14610315578063a5be382e1461033557600080fd5b8063571fd01211610117578063715018a6116100fc578063715018a6146102bb57806373e45444146102d05780638da5cb5b146102e357600080fd5b8063571fd0121461027b57806367e9803c1461029b57600080fd5b80633746af08116101485780633746af08146101fd57806341c6a58b1461021d57806352707d8c1461024d57600080fd5b80632b5f221d146101a757806334cdb1e9146101dd57600080fd5b366101a257336001600160a01b037f000000000000000000000000000000000000000000000000000000000000000016146101a0576101a0613f96565b005b600080fd5b3480156101b357600080fd5b506101c76101c2366004613a8e565b61044f565b6040516101d49190613b86565b60405180910390f35b3480156101e957600080fd5b506101a06101f8366004613a8e565b610871565b34801561020957600080fd5b506101a061021836600461394c565b610b8c565b34801561022957600080fd5b5061023d61023836600461394c565b610da7565b6040516101d49493929190613bca565b34801561025957600080fd5b5061026d610268366004613b0c565b610e7b565b6040519081526020016101d4565b34801561028757600080fd5b5061026d610296366004613b0c565b610f48565b3480156102a757600080fd5b506101a06102b636600461380b565b610fc0565b3480156102c757600080fd5b506101a061127a565b6101a06102de366004613965565b6112ef565b3480156102ef57600080fd5b506000546001600160a01b03165b6040516001600160a01b0390911681526020016101d4565b34801561032157600080fd5b506101a0610330366004613a8e565b6116cf565b6101c7610343366004613965565b6119ee565b34801561035457600080fd5b506102fd7f000000000000000000000000000000000000000000000000000000000000000081565b34801561038857600080fd5b506101c76103973660046139d8565b611e10565b3480156103a857600080fd5b506101c76103b7366004613a8e565b611ed8565b3480156103c857600080fd5b506101c76103d7366004613a8e565b61213a565b3480156103e857600080fd5b506101a06103f73660046136fe565b612335565b34801561040857600080fd5b506101c7610417366004613a8e565b612426565b34801561042857600080fd5b506101c76104373660046139d8565b6125d7565b6101c761044a366004613965565b612643565b606081428110156104a75760405162461bcd60e51b815260206004820152601660248201527f506f7274696679526f757465723a20455850495245440000000000000000000060448201526064015b60405180910390fd5b6001600160a01b037f00000000000000000000000000000000000000000000000000000000000000001686866104de600182613ec6565b8181106104ed576104ed614023565b905060200201602081019061050291906136fe565b6001600160a01b0316146105585760405162461bcd60e51b815260206004820152601b60248201527f506f7274696679526f757465723a20494e56414c49445f504154480000000000604482015260640161049e565b6001898154811061056b5761056b614023565b60009182526020909120600491820201546040517f1f00ca740000000000000000000000000000000000000000000000000000000081526001600160a01b0390911691631f00ca74916105c4918c918b918b9101613d5f565b60006040518083038186803b1580156105dc57600080fd5b505afa1580156105f0573d6000803e3d6000fd5b505050506040513d6000823e601f3d908101601f19168201604052610618919081019061373f565b9150868260008151811061062e5761062e614023565b602002602001015111156106aa5760405162461bcd60e51b815260206004820152602560248201527f506f7274696679526f757465723a204558434553534956455f494e5055545f4160448201527f4d4f554e54000000000000000000000000000000000000000000000000000000606482015260840161049e565b61074f868660008181106106c0576106c0614023565b90506020020160208101906106d591906136fe565b3361072f8c8a8a60008181106106ed576106ed614023565b905060200201602081019061070291906136fe565b8b8b600181811061071557610715614023565b905060200201602081019061072a91906136fe565b612a9f565b8560008151811061074257610742614023565b6020026020010151612bf3565b61078f8983888880806020026020016040519081016040528093929190818152602001838360200280828437600092019190915250309250612d6b915050565b7f00000000000000000000000000000000000000000000000000000000000000006001600160a01b0316632e1a7d4d83600185516107cd9190613ec6565b815181106107dd576107dd614023565b60200260200101516040518263ffffffff1660e01b815260040161080391815260200190565b600060405180830381600087803b15801561081d57600080fd5b505af1158015610831573d6000803e3d6000fd5b505050506108658483600185516108489190613ec6565b8151811061085857610858614023565b6020026020010151612f34565b50979650505050505050565b80428110156108c25760405162461bcd60e51b815260206004820152601660248201527f506f7274696679526f757465723a204558504952454400000000000000000000604482015260640161049e565b610933858560008181106108d8576108d8614023565b90506020020160208101906108ed91906136fe565b3361092d8b8989600081811061090557610905614023565b905060200201602081019061091a91906136fe565b8a8a600181811061071557610715614023565b8a612bf3565b60008585610942600182613ec6565b81811061095157610951614023565b905060200201602081019061096691906136fe565b6040517f70a082310000000000000000000000000000000000000000000000000000000081526001600160a01b03868116600483015291909116906370a082319060240160206040518083038186803b1580156109c257600080fd5b505afa1580156109d6573d6000803e3d6000fd5b505050506040513d601f19601f820116820180604052508101906109fa91906137f2565b9050610a3b8987878080602002602001604051908101604052809392919081815260200183836020028082843760009201919091525089925061301c915050565b86818787610a4a600182613ec6565b818110610a5957610a59614023565b9050602002016020810190610a6e91906136fe565b6040517f70a082310000000000000000000000000000000000000000000000000000000081526001600160a01b03888116600483015291909116906370a08231906024015b60206040518083038186803b158015610acb57600080fd5b505afa158015610adf573d6000803e3d6000fd5b505050506040513d601f19601f82011682018060405250810190610b0391906137f2565b610b0d9190613ec6565b1015610b815760405162461bcd60e51b815260206004820152602960248201527f506f7274696679526f757465723a20494e53554646494349454e545f4f55545060448201527f55545f414d4f554e540000000000000000000000000000000000000000000000606482015260840161049e565b505050505050505050565b33610b9f6000546001600160a01b031690565b6001600160a01b031614610bf55760405162461bcd60e51b815260206004820181905260248201527f4f776e61626c653a2063616c6c6572206973206e6f7420746865206f776e6572604482015260640161049e565b7f6f42797b737f51226bf9946fb22052d33e5ad3d5bdfd88ac38f73c375f35b1a060018281548110610c2957610c29614023565b9060005260206000209060040201604051610c449190613c4c565b60405180910390a160018054610c5b908290613ec6565b81548110610c6b57610c6b614023565b906000526020600020906004020160018281548110610c8c57610c8c614023565b60009182526020909120825460049092020180546001600160a01b039283167fffffffffffffffffffffffff0000000000000000000000000000000000000000918216178255600180850154908301805491909416911617909155600280830154908201556003808301805491830191610d0590613f09565b610d10929190613548565b509050506001805480610d2557610d25613ff4565b60008281526020812060047fffffffffffffffffffffffffffffffffffffffffffffffffffffffffffffffff9093019283020180547fffffffffffffffffffffffff0000000000000000000000000000000000000000908116825560018201805490911690556002810182905590610da060038301826135d3565b5050905550565b60018181548110610db757600080fd5b600091825260209091206004909102018054600182015460028301546003840180546001600160a01b039485169650929093169390929091610df890613f09565b80601f0160208091040260200160405190810160405280929190818152602001828054610e2490613f09565b8015610e715780601f10610e4657610100808354040283529160200191610e71565b820191906000526020600020905b815481529060010190602001808311610e5457829003601f168201915b5050505050905084565b600060018581548110610e9057610e90614023565b60009182526020909120600491820201546040517f054d50d400000000000000000000000000000000000000000000000000000000815291820186905260248201859052604482018490526001600160a01b03169063054d50d4906064015b60206040518083038186803b158015610f0757600080fd5b505afa158015610f1b573d6000803e3d6000fd5b505050506040513d601f19601f82011682018060405250810190610f3f91906137f2565b95945050505050565b600060018581548110610f5d57610f5d614023565b60009182526020909120600491820201546040517f85f8c25900000000000000000000000000000000000000000000000000000000815291820186905260248201859052604482018490526001600160a01b0316906385f8c25990606401610eef565b33610fd36000546001600160a01b031690565b6001600160a01b0316146110295760405162461bcd60e51b815260206004820181905260248201527f4f776e61626c653a2063616c6c6572206973206e6f7420746865206f776e6572604482015260640161049e565b80600001516001600160a01b031663c45a01556040518163ffffffff1660e01b815260040160206040518083038186803b15801561106657600080fd5b505afa15801561107a573d6000803e3d6000fd5b505050506040513d601f19601f8201168201806040525081019061109e9190613722565b6001600160a01b03166020808301829052604080517f5855a25a0000000000000000000000000000000000000000000000000000000081529051635855a25a92600480840193919291829003018186803b1580156110fb57600080fd5b505afa15801561110f573d6000803e3d6000fd5b505050506040513d601f19601f8201168201806040525081019061113391906137f2565b60408201908152600180548082018255600091909152825160049091027fb10e2d527612073b26eecdfd717e6a320cf44b4afac2b0732d9fcbe2b7fa0cf6810180546001600160a01b039384167fffffffffffffffffffffffff00000000000000000000000000000000000000009182161782556020808701517fb10e2d527612073b26eecdfd717e6a320cf44b4afac2b0732d9fcbe2b7fa0cf7850180549190961692169190911790935592517fb10e2d527612073b26eecdfd717e6a320cf44b4afac2b0732d9fcbe2b7fa0cf88201556060840151805185949361123d937fb10e2d527612073b26eecdfd717e6a320cf44b4afac2b0732d9fcbe2b7fa0cf90192019061360d565b5050507f2fd65a6bb51fd3e365a257d71d5bd076b21801a0198d49b8f93e4b42a9ab344a8160405161126f9190613c06565b60405180910390a150565b3361128d6000546001600160a01b031690565b6001600160a01b0316146112e35760405162461bcd60e51b815260206004820181905260248201527f4f776e61626c653a2063616c6c6572206973206e6f7420746865206f776e6572604482015260640161049e565b6112ed60006133d0565b565b80428110156113405760405162461bcd60e51b815260206004820152601660248201527f506f7274696679526f757465723a204558504952454400000000000000000000604482015260640161049e565b7f00000000000000000000000000000000000000000000000000000000000000006001600160a01b03168585600081811061137d5761137d614023565b905060200201602081019061139291906136fe565b6001600160a01b0316146113e85760405162461bcd60e51b815260206004820152601b60248201527f506f7274696679526f757465723a20494e56414c49445f504154480000000000604482015260640161049e565b60003490507f00000000000000000000000000000000000000000000000000000000000000006001600160a01b031663d0e30db0826040518263ffffffff1660e01b81526004016000604051808303818588803b15801561144857600080fd5b505af115801561145c573d6000803e3d6000fd5b50505050507f00000000000000000000000000000000000000000000000000000000000000006001600160a01b031663a9059cbb6114a78a8989600081811061090557610905614023565b6040517fffffffff0000000000000000000000000000000000000000000000000000000060e084901b1681526001600160a01b03909116600482015260248101849052604401602060405180830381600087803b15801561150757600080fd5b505af115801561151b573d6000803e3d6000fd5b505050506040513d601f19601f8201168201806040525081019061153f91906137d0565b61154b5761154b613f96565b6000868661155a600182613ec6565b81811061156957611569614023565b905060200201602081019061157e91906136fe565b6040517f70a082310000000000000000000000000000000000000000000000000000000081526001600160a01b03878116600483015291909116906370a082319060240160206040518083038186803b1580156115da57600080fd5b505afa1580156115ee573d6000803e3d6000fd5b505050506040513d601f19601f8201168201806040525081019061161291906137f2565b9050611653898888808060200260200160405190810160405280939291908181526020018383602002808284376000920191909152508a925061301c915050565b87818888611662600182613ec6565b81811061167157611671614023565b905060200201602081019061168691906136fe565b6040517f70a082310000000000000000000000000000000000000000000000000000000081526001600160a01b03898116600483015291909116906370a0823190602401610ab3565b80428110156117205760405162461bcd60e51b815260206004820152601660248201527f506f7274696679526f757465723a204558504952454400000000000000000000604482015260640161049e565b6001600160a01b037f0000000000000000000000000000000000000000000000000000000000000000168585611757600182613ec6565b81811061176657611766614023565b905060200201602081019061177b91906136fe565b6001600160a01b0316146117d15760405162461bcd60e51b815260206004820152601b60248201527f506f7274696679526f757465723a20494e56414c49445f504154480000000000604482015260640161049e565b6117e7858560008181106108d8576108d8614023565b6118268886868080602002602001604051908101604052809392919081815260200183836020028082843760009201919091525030925061301c915050565b6040517f70a082310000000000000000000000000000000000000000000000000000000081523060048201526000907f00000000000000000000000000000000000000000000000000000000000000006001600160a01b0316906370a082319060240160206040518083038186803b1580156118a157600080fd5b505afa1580156118b5573d6000803e3d6000fd5b505050506040513d601f19601f820116820180604052508101906118d991906137f2565b9050868110156119515760405162461bcd60e51b815260206004820152602960248201527f506f7274696679526f757465723a20494e53554646494349454e545f4f55545060448201527f55545f414d4f554e540000000000000000000000000000000000000000000000606482015260840161049e565b6040517f2e1a7d4d000000000000000000000000000000000000000000000000000000008152600481018290527f00000000000000000000000000000000000000000000000000000000000000006001600160a01b031690632e1a7d4d90602401600060405180830381600087803b1580156119cc57600080fd5b505af11580156119e0573d6000803e3d6000fd5b50505050610b818482612f34565b60608142811015611a415760405162461bcd60e51b815260206004820152601660248201527f506f7274696679526f757465723a204558504952454400000000000000000000604482015260640161049e565b7f00000000000000000000000000000000000000000000000000000000000000006001600160a01b031686866000818110611a7e57611a7e614023565b9050602002016020810190611a9391906136fe565b6001600160a01b031614611ae95760405162461bcd60e51b815260206004820152601b60248201527f506f7274696679526f757465723a20494e56414c49445f504154480000000000604482015260640161049e565b60018881548110611afc57611afc614023565b60009182526020909120600491820201546040517fd06ca61f0000000000000000000000000000000000000000000000000000000081526001600160a01b039091169163d06ca61f91611b559134918b918b9101613d5f565b60006040518083038186803b158015611b6d57600080fd5b505afa158015611b81573d6000803e3d6000fd5b505050506040513d6000823e601f3d908101601f19168201604052611ba9919081019061373f565b9150868260018451611bbb9190613ec6565b81518110611bcb57611bcb614023565b60200260200101511015611c475760405162461bcd60e51b815260206004820152602960248201527f506f7274696679526f757465723a20494e53554646494349454e545f4f55545060448201527f55545f414d4f554e540000000000000000000000000000000000000000000000606482015260840161049e565b7f00000000000000000000000000000000000000000000000000000000000000006001600160a01b031663d0e30db083600081518110611c8957611c89614023565b60200260200101516040518263ffffffff1660e01b81526004016000604051808303818588803b158015611cbc57600080fd5b505af1158015611cd0573d6000803e3d6000fd5b50505050507f00000000000000000000000000000000000000000000000000000000000000006001600160a01b031663a9059cbb611d1b8a8989600081811061090557610905614023565b84600081518110611d2e57611d2e614023565b60200260200101516040518363ffffffff1660e01b8152600401611d679291906001600160a01b03929092168252602082015260400190565b602060405180830381600087803b158015611d8157600080fd5b505af1158015611d95573d6000803e3d6000fd5b505050506040513d601f19601f82011682018060405250810190611db991906137d0565b611dc557611dc5613f96565b611e0588838888808060200260200160405190810160405280939291908181526020018383602002808284376000920191909152508a9250612d6b915050565b509695505050505050565b606060018481548110611e2557611e25614023565b60009182526020909120600491820201546040517fd06ca61f0000000000000000000000000000000000000000000000000000000081526001600160a01b039091169163d06ca61f91611e7c918791879101613dab565b60006040518083038186803b158015611e9457600080fd5b505afa158015611ea8573d6000803e3d6000fd5b505050506040513d6000823e601f3d908101601f19168201604052611ed0919081019061373f565b949350505050565b60608142811015611f2b5760405162461bcd60e51b815260206004820152601660248201527f506f7274696679526f757465723a204558504952454400000000000000000000604482015260640161049e565b6001600160a01b037f0000000000000000000000000000000000000000000000000000000000000000168686611f62600182613ec6565b818110611f7157611f71614023565b9050602002016020810190611f8691906136fe565b6001600160a01b031614611fdc5760405162461bcd60e51b815260206004820152601b60248201527f506f7274696679526f757465723a20494e56414c49445f504154480000000000604482015260640161049e565b60018981548110611fef57611fef614023565b60009182526020909120600491820201546040517fd06ca61f0000000000000000000000000000000000000000000000000000000081526001600160a01b039091169163d06ca61f91612048918c918b918b9101613d5f565b60006040518083038186803b15801561206057600080fd5b505afa158015612074573d6000803e3d6000fd5b505050506040513d6000823e601f3d908101601f1916820160405261209c919081019061373f565b91508682600184516120ae9190613ec6565b815181106120be576120be614023565b602002602001015110156106aa5760405162461bcd60e51b815260206004820152602960248201527f506f7274696679526f757465723a20494e53554646494349454e545f4f55545060448201527f55545f414d4f554e540000000000000000000000000000000000000000000000606482015260840161049e565b6060814281101561218d5760405162461bcd60e51b815260206004820152601660248201527f506f7274696679526f757465723a204558504952454400000000000000000000604482015260640161049e565b600189815481106121a0576121a0614023565b60009182526020909120600491820201546040517f1f00ca740000000000000000000000000000000000000000000000000000000081526001600160a01b0390911691631f00ca74916121f9918c918b918b9101613d5f565b60006040518083038186803b15801561221157600080fd5b505afa158015612225573d6000803e3d6000fd5b505050506040513d6000823e601f3d908101601f1916820160405261224d919081019061373f565b9150868260008151811061226357612263614023565b602002602001015111156122df5760405162461bcd60e51b815260206004820152602560248201527f506f7274696679526f757465723a204558434553534956455f494e5055545f4160448201527f4d4f554e54000000000000000000000000000000000000000000000000000000606482015260840161049e565b6122f5868660008181106106c0576106c0614023565b61086589838888808060200260200160405190810160405280939291908181526020018383602002808284376000920191909152508a9250612d6b915050565b336123486000546001600160a01b031690565b6001600160a01b03161461239e5760405162461bcd60e51b815260206004820181905260248201527f4f776e61626c653a2063616c6c6572206973206e6f7420746865206f776e6572604482015260640161049e565b6001600160a01b03811661241a5760405162461bcd60e51b815260206004820152602660248201527f4f776e61626c653a206e6577206f776e657220697320746865207a65726f206160448201527f6464726573730000000000000000000000000000000000000000000000000000606482015260840161049e565b612423816133d0565b50565b606081428110156124795760405162461bcd60e51b815260206004820152601660248201527f506f7274696679526f757465723a204558504952454400000000000000000000604482015260640161049e565b6001898154811061248c5761248c614023565b60009182526020909120600491820201546040517fd06ca61f0000000000000000000000000000000000000000000000000000000081526001600160a01b039091169163d06ca61f916124e5918c918b918b9101613d5f565b60006040518083038186803b1580156124fd57600080fd5b505afa158015612511573d6000803e3d6000fd5b505050506040513d6000823e601f3d908101601f19168201604052612539919081019061373f565b915086826001845161254b9190613ec6565b8151811061255b5761255b614023565b602002602001015110156122df5760405162461bcd60e51b815260206004820152602960248201527f506f7274696679526f757465723a20494e53554646494349454e545f4f55545060448201527f55545f414d4f554e540000000000000000000000000000000000000000000000606482015260840161049e565b6060600184815481106125ec576125ec614023565b60009182526020909120600491820201546040517f1f00ca740000000000000000000000000000000000000000000000000000000081526001600160a01b0390911691631f00ca7491611e7c918791879101613dab565b606081428110156126965760405162461bcd60e51b815260206004820152601660248201527f506f7274696679526f757465723a204558504952454400000000000000000000604482015260640161049e565b7f00000000000000000000000000000000000000000000000000000000000000006001600160a01b0316868660008181106126d3576126d3614023565b90506020020160208101906126e891906136fe565b6001600160a01b03161461273e5760405162461bcd60e51b815260206004820152601b60248201527f506f7274696679526f757465723a20494e56414c49445f504154480000000000604482015260640161049e565b6001888154811061275157612751614023565b60009182526020909120600491820201546040517f1f00ca740000000000000000000000000000000000000000000000000000000081526001600160a01b0390911691631f00ca74916127aa918b918b918b9101613d5f565b60006040518083038186803b1580156127c257600080fd5b505afa1580156127d6573d6000803e3d6000fd5b505050506040513d6000823e601f3d908101601f191682016040526127fe919081019061373f565b9150348260008151811061281457612814614023565b602002602001015111156128905760405162461bcd60e51b815260206004820152602560248201527f506f7274696679526f757465723a204558434553534956455f494e5055545f4160448201527f4d4f554e54000000000000000000000000000000000000000000000000000000606482015260840161049e565b7f00000000000000000000000000000000000000000000000000000000000000006001600160a01b031663d0e30db0836000815181106128d2576128d2614023565b60200260200101516040518263ffffffff1660e01b81526004016000604051808303818588803b15801561290557600080fd5b505af1158015612919573d6000803e3d6000fd5b50505050507f00000000000000000000000000000000000000000000000000000000000000006001600160a01b031663a9059cbb6129648a8989600081811061090557610905614023565b8460008151811061297757612977614023565b60200260200101516040518363ffffffff1660e01b81526004016129b09291906001600160a01b03929092168252602082015260400190565b602060405180830381600087803b1580156129ca57600080fd5b505af11580156129de573d6000803e3d6000fd5b505050506040513d601f19601f82011682018060405250810190612a0291906137d0565b612a0e57612a0e613f96565b612a4e88838888808060200260200160405190810160405280939291908181526020018383602002808284376000920191909152508a9250612d6b915050565b81600081518110612a6157612a61614023565b6020026020010151341115611e0557611e053383600081518110612a8757612a87614023565b602002602001015134612a9a9190613ec6565b612f34565b6000806000612aae8585613438565b9150915060018681548110612ac557612ac5614023565b600091825260209182902060049190910201600101546040517fffffffffffffffffffffffffffffffffffffffff000000000000000000000000606086811b8216948301949094529284901b90921660348301526001600160a01b0316906048016040516020818303038152906040528051906020012060018881548110612b4f57612b4f614023565b906000526020600020906004020160020154604051602001612bd1939291907fff00000000000000000000000000000000000000000000000000000000000000815260609390931b7fffffffffffffffffffffffffffffffffffffffff0000000000000000000000001660018401526015830191909152603582015260550190565b60408051601f1981840301815291905280516020909101209695505050505050565b604080516001600160a01b0385811660248301528481166044830152606480830185905283518084039091018152608490920183526020820180517bffffffffffffffffffffffffffffffffffffffffffffffffffffffff167f23b872dd000000000000000000000000000000000000000000000000000000001790529151600092839290881691612c859190613b6a565b6000604051808303816000865af19150503d8060008114612cc2576040519150601f19603f3d011682016040523d82523d6000602084013e612cc7565b606091505b5091509150818015612cf1575080511580612cf1575080806020019051810190612cf191906137d0565b612d635760405162461bcd60e51b815260206004820152603160248201527f5472616e7366657248656c7065723a3a7472616e7366657246726f6d3a20747260448201527f616e7366657246726f6d206661696c6564000000000000000000000000000000606482015260840161049e565b505050505050565b60005b60018351612d7c9190613ec6565b811015612f2d57600080848381518110612d9857612d98614023565b602002602001015185846001612dae9190613eae565b81518110612dbe57612dbe614023565b6020026020010151915091506000612dd68383613438565b509050600087612de7866001613eae565b81518110612df757612df7614023565b60200260200101519050600080836001600160a01b0316866001600160a01b031614612e2557826000612e29565b6000835b91509150600060028a51612e3d9190613ec6565b8810612e495788612e77565b612e778c878c612e5a8c6002613eae565b81518110612e6a57612e6a614023565b6020026020010151612a9f565b9050612e848c8888612a9f565b6001600160a01b031663022c0d9f84848460006040519080825280601f01601f191660200182016040528015612ec1576020820181803683370190505b506040518563ffffffff1660e01b8152600401612ee19493929190613e02565b600060405180830381600087803b158015612efb57600080fd5b505af1158015612f0f573d6000803e3d6000fd5b50505050505050505050508080612f2590613f5d565b915050612d6e565b5050505050565b604080516000808252602082019092526001600160a01b038416908390604051612f5e9190613b6a565b60006040518083038185875af1925050503d8060008114612f9b576040519150601f19603f3d011682016040523d82523d6000602084013e612fa0565b606091505b50509050806130175760405162461bcd60e51b815260206004820152603460248201527f5472616e7366657248656c7065723a3a736166655472616e736665724554483a60448201527f20455448207472616e73666572206661696c6564000000000000000000000000606482015260840161049e565b505050565b60005b6001835161302d9190613ec6565b8110156133ca5760008084838151811061304957613049614023565b60200260200101518584600161305f9190613eae565b8151811061306f5761306f614023565b60200260200101519150915060006130878383613438565b5090506000613097888585612a9f565b9050600080600080846001600160a01b0316630902f1ac6040518163ffffffff1660e01b815260040160606040518083038186803b1580156130d857600080fd5b505afa1580156130ec573d6000803e3d6000fd5b505050506040513d601f19601f8201168201806040525081019061311091906138fc565b506dffffffffffffffffffffffffffff1691506dffffffffffffffffffffffffffff169150600080876001600160a01b03168a6001600160a01b03161461315857828461315b565b83835b6040517f70a082310000000000000000000000000000000000000000000000000000000081526001600160a01b038a8116600483015292945090925083918c16906370a082319060240160206040518083038186803b1580156131bd57600080fd5b505afa1580156131d1573d6000803e3d6000fd5b505050506040513d601f19601f820116820180604052508101906131f591906137f2565b6131ff9190613ec6565b955060018e8154811061321457613214614023565b60009182526020909120600491820201546040517f054d50d400000000000000000000000000000000000000000000000000000000815291820188905260248201849052604482018390526001600160a01b03169063054d50d49060640160206040518083038186803b15801561328a57600080fd5b505afa15801561329e573d6000803e3d6000fd5b505050506040513d601f19601f820116820180604052508101906132c291906137f2565b945050505050600080856001600160a01b0316886001600160a01b0316146132ec578260006132f0565b6000835b91509150600060028c516133049190613ec6565b8a10613310578a613321565b6133218d898e612e5a8e6002613eae565b604080516000815260208101918290527f022c0d9f000000000000000000000000000000000000000000000000000000009091529091506001600160a01b0387169063022c0d9f9061337c9086908690869060248101613e02565b600060405180830381600087803b15801561339657600080fd5b505af11580156133aa573d6000803e3d6000fd5b5050505050505050505050505080806133c290613f5d565b91505061301f565b50505050565b600080546001600160a01b038381167fffffffffffffffffffffffff0000000000000000000000000000000000000000831681178455604051919092169283917f8be0079c531659141344cd1fd0a4f28419497f9722a3daafe3b4186f6b6457e09190a35050565b600080826001600160a01b0316846001600160a01b031614156134c35760405162461bcd60e51b815260206004820152602360248201527f506f72746966794c6962726172793a204944454e544943414c5f41444452455360448201527f5345530000000000000000000000000000000000000000000000000000000000606482015260840161049e565b826001600160a01b0316846001600160a01b0316106134e35782846134e6565b83835b90925090506001600160a01b0382166135415760405162461bcd60e51b815260206004820152601c60248201527f506f72746966794c6962726172793a205a45524f5f4144445245535300000000604482015260640161049e565b9250929050565b82805461355490613f09565b90600052602060002090601f01602090048101928261357657600085556135c3565b82601f1061358757805485556135c3565b828001600101855582156135c357600052602060002091601f016020900482015b828111156135c35782548255916001019190600101906135a8565b506135cf929150613681565b5090565b5080546135df90613f09565b6000825580601f106135ef575050565b601f0160209004906000526020600020908101906124239190613681565b82805461361990613f09565b90600052602060002090601f01602090048101928261363b57600085556135c3565b82601f1061365457805160ff19168380011785556135c3565b828001600101855582156135c3579182015b828111156135c3578251825591602001919060010190613666565b5b808211156135cf5760008155600101613682565b60008083601f8401126136a857600080fd5b50813567ffffffffffffffff8111156136c057600080fd5b6020830191508360208260051b850101111561354157600080fd5b80516dffffffffffffffffffffffffffff811681146136f957600080fd5b919050565b60006020828403121561371057600080fd5b813561371b81614081565b9392505050565b60006020828403121561373457600080fd5b815161371b81614081565b6000602080838503121561375257600080fd5b825167ffffffffffffffff81111561376957600080fd5b8301601f8101851361377a57600080fd5b805161378d61378882613e8a565b613e59565b80828252848201915084840188868560051b87010111156137ad57600080fd5b600094505b838510156108655780518352600194909401939185019185016137b2565b6000602082840312156137e257600080fd5b8151801515811461371b57600080fd5b60006020828403121561380457600080fd5b5051919050565b6000602080838503121561381e57600080fd5b823567ffffffffffffffff8082111561383657600080fd5b908401906080828703121561384a57600080fd5b613852613e30565b823561385d81614081565b81528284013561386c81614081565b818501526040838101359082015260608301358281111561388c57600080fd5b80840193505086601f8401126138a157600080fd5b8235828111156138b3576138b3614052565b6138c585601f19601f84011601613e59565b925080835287858286010111156138db57600080fd5b80858501868501376000908301909401939093526060830152509392505050565b60008060006060848603121561391157600080fd5b61391a846136db565b9250613928602085016136db565b9150604084015163ffffffff8116811461394157600080fd5b809150509250925092565b60006020828403121561395e57600080fd5b5035919050565b60008060008060008060a0878903121561397e57600080fd5b8635955060208701359450604087013567ffffffffffffffff8111156139a357600080fd5b6139af89828a01613696565b90955093505060608701356139c381614081565b80925050608087013590509295509295509295565b6000806000606084860312156139ed57600080fd5b833592506020808501359250604085013567ffffffffffffffff811115613a1357600080fd5b8501601f81018713613a2457600080fd5b8035613a3261378882613e8a565b8082825284820191508484018a868560051b8701011115613a5257600080fd5b600094505b83851015613a7e578035613a6a81614081565b835260019490940193918501918501613a57565b5080955050505050509250925092565b600080600080600080600060c0888a031215613aa957600080fd5b873596506020880135955060408801359450606088013567ffffffffffffffff811115613ad557600080fd5b613ae18a828b01613696565b9095509350506080880135613af581614081565b8092505060a0880135905092959891949750929550565b60008060008060808587031215613b2257600080fd5b5050823594602084013594506040840135936060013592509050565b60008151808452613b56816020860160208601613edd565b601f01601f19169290920160200192915050565b60008251613b7c818460208701613edd565b9190910192915050565b6020808252825182820181905260009190848201906040850190845b81811015613bbe57835183529284019291840191600101613ba2565b50909695505050505050565b60006001600160a01b03808716835280861660208401525083604083015260806060830152613bfc6080830184613b3e565b9695505050505050565b6020815260006001600160a01b0380845116602084015280602085015116604084015250604083015160608301526060830151608080840152611ed060a0840182613b3e565b600060208083526001600160a01b0380855416828501526001818187015416604086015260028601546060860152600386019150608080860152600082548181841c905083821680613c9f57607f821691505b868210811415613cd6577f4e487b710000000000000000000000000000000000000000000000000000000084526022600452602484fd5b60a0890182905260c08901818015613cf55760018114613d2457613d4f565b7fffffffffffffffffffffffffffffffffffffffffffffffffffffffffffffff00851682528882019550613d4f565b60008881526020902060005b85811015613d4957815484820152908801908a01613d30565b83019650505b50939a9950505050505050505050565b83815260406020808301829052908201839052600090849060608401835b86811015610865578335613d9081614081565b6001600160a01b031682529282019290820190600101613d7d565b6000604082018483526020604081850152818551808452606086019150828701935060005b81811015613df55784516001600160a01b031683529383019391830191600101613dd0565b5090979650505050505050565b8481528360208201526001600160a01b0383166040820152608060608201526000613bfc6080830184613b3e565b6040516080810167ffffffffffffffff81118282101715613e5357613e53614052565b60405290565b604051601f8201601f1916810167ffffffffffffffff81118282101715613e8257613e82614052565b604052919050565b600067ffffffffffffffff821115613ea457613ea4614052565b5060051b60200190565b60008219821115613ec157613ec1613fc5565b500190565b600082821015613ed857613ed8613fc5565b500390565b60005b83811015613ef8578181015183820152602001613ee0565b838111156133ca5750506000910152565b600181811c90821680613f1d57607f821691505b60208210811415613f57577f4e487b7100000000000000000000000000000000000000000000000000000000600052602260045260246000fd5b50919050565b60007fffffffffffffffffffffffffffffffffffffffffffffffffffffffffffffffff821415613f8f57613f8f613fc5565b5060010190565b7f4e487b7100000000000000000000000000000000000000000000000000000000600052600160045260246000fd5b7f4e487b7100000000000000000000000000000000000000000000000000000000600052601160045260246000fd5b7f4e487b7100000000000000000000000000000000000000000000000000000000600052603160045260246000fd5b7f4e487b7100000000000000000000000000000000000000000000000000000000600052603260045260246000fd5b7f4e487b7100000000000000000000000000000000000000000000000000000000600052604160045260246000fd5b6001600160a01b038116811461242357600080fdfea2646970667358221220f11ad283d293baee53c13408cd74c7d391b7a704ab6e9be958805bdee9a53cfd64736f6c63430008070033",
  "linkReferences": {},
  "deployedLinkReferences": {}
}